:020000040800F2
:1000000000500020D5040008A1030008A703000841
:10001000AD030008B3030008B903000800000000A6
:10002000000000000000000000000000BF03000806
:10003000CB03000800000000D703000831030008CC
:100040001D0500081D0500081D0500081D05000808
:100050001D0500081D0500081D0500081D050008F8
:100060001D0500081D0500081D0500081D050008E8
:100070001D0500081D0500081D0500081D050008D8
:100080001D0500081D0500081D0500081D050008C8
:100090001D0500081D0500081D0500081D050008B8
:1000A0001D0500081D0500081D0500081D050008A8
:1000B0001D0500081D0500081D0500081D05000898
:1000C0001D0500081D0500081D0500081D05000888
:1000D0001D0500081D0500081D0500081D05000878
:1000E0001D0500081D0500081D0500080000000092
:1000F0000000000000000000000000000000000000
:0C01000000000000000000005FF808F1A3
:10010C0010B5054C237833B9044B13B10448AFF345
:10011C0000800123237010BD0400002000000000AB
:10012C00A008000808B5034B1BB103490348AFF303
:10013C00008008BD0000000008000020A008000896
:10014C0080B483B000AF03463960FB7197F9073078
:10015C00002B0ADB3B68DAB20C4997F90730120125
:10016C00D2B20B4483F800230AE03B68DAB20849A8
:10017C00FB7903F00F03043B1201D2B20B441A7645
:10018C0000BF0C37BD4680BC704700BF00E100E0EB
:10019C0000ED00E080B582B000AF78607B68013B79
:1001AC00B3F1807F01D301230FE00A4A7B68013B46
:1001BC0053600F214FF0FF30FFF7C2FF054B0022B9
:1001CC009A60044B07221A60002318460837BD4674
:1001DC0080BD00BF10E000E080B483B000AF786059
:1001EC0039607B689B6801213A6801FA02F213407E
:1001FC0018460C37BD4680BC704780B483B000AF46
:10020C00786039607B68DB6801213A6801FA02F298
:10021C001A437B68DA6000BF0C37BD4680BC704760
:10022C0080B483B000AF786039607B68DB680121F3
:10023C003A6801FA02F2D2431A407B68DA6000BFD6
:10024C000C37BD4680BC704780B582B000AF78607B
:10025C00396039687868FFF7BFFF0346002B04D17B
:10026C0039687868FFF7C9FF03E039687868FFF7E9
:10027C00D7FF00BF0837BD4680BD000080B586B0F3
:10028C0000AF07F1080300221A605A609A60DA6026
:10029C00214B9B69204A43F0100393611E4B9B69D1
:1002AC0003F010037B607B681B4B9B691A4A43F07D
:1002BC0004039361184B9B6903F004033B603B6898
:1002CC0000224FF40051154800F0A8FA00220E212C
:1002DC00134800F0A3FA4FF40053BB600123FB60FA
:1002EC0000233B6102237B6107F1080319460B488D
:1002FC0000F010F90E23BB600123FB6000233B616F
:10030C0002237B6107F108031946054800F002F946
:10031C0000BF1837BD4680BD0010024000100140E0
:10032C000008014080B500AF094B1B680A2B06D1B1
:10033C00074B00221A6003210648FFF785FF044B88
:10034C001B68034B1B680133014A136000BF80BD5F
:10035C00200000200008014080B500AFFFF78EFFA1
:10036C00094B05221A60084B41F63F725A6000F0A7
:10037C0039F8064B1B68064AA2FB03235B09184697
:10038C00FFF708FFFEE700BF10E000E000000020D0
:10039C001F85EB5180B400AFFEE780B400AFFEE7E1
:1003AC0080B400AFFEE780B400AFFEE780B400AFCE
:1003BC00FEE780B400AF00BFBD4680BC704780B480
:1003CC0000AF00BFBD4680BC704780B400AF00BF1B
:1003DC00BD4680BC704780B400AF00BFBD4680BC3A
:1003EC007047000080B485B000AF0023FB60002391
:1003FC00BB6000237B602F4B5B6803F00C03FB603E
:10040C00FB68082B11D0FB68082B3AD8FB68002B33
:10041C0003D0FB68042B04D033E0274B274A1A6027
:10042C0033E0254B254A1A602FE0224B5B6803F41E
:10043C007013BB601F4B5B6803F480337B60BB683D
:10044C009B0C0233BB607B68002B06D1BB681C4A3B
:10045C0002FB03F3184A136017E0164B5B6803F4B6
:10046C000033002B06D0BB68154A02FB03F3124A7B
:10047C0013600AE0BB68114A02FB03F30E4A1360D7
:10048C0003E00D4B0D4A1A6000BF0A4B5B681B0959
:10049C0003F00F030B4AD35CFB60074B1A68FB6835
:1004AC0022FA03F3044A136000BF1437BD4680BC24
:1004BC00704700BF001002400000002000127A00BC
:1004CC0000093D00B80800080C480D490D4A0023EE
:1004DC0002E0D458C4500433C4188C42F9D30A4AED
:1004EC000A4C002301E013600432A242FBD3FFF755
:1004FC0072FF00F0ABF9FFF72FFF704700000020F0
:10050C0004000020D0080008040000202400002073
:10051C00FEE7000080B48BB000AF78603960002338
:10052C007B6200233B6269E101227B6A02FA03F3DE
:10053C00FB613B681B68FA691340BB61BA69FB69D4
:10054C009A4240F058813B685B689A4A93425ED06D
:10055C00984A934275D8984A934258D0964A9342F7
:10056C006FD8964A934252D0944A934269D8944A8F
:10057C0093424CD0924A934263D8924A934246D0CB
:10058C00904A93425DD8122B2AD8122B59D801A22B
:10059C0052F823F01B060008F505000807060008B2
:1005AC00490600084F0600084F0600084F060008D1
:1005BC004F0600084F0600084F0600084F060008BB
:1005CC004F0600084F0600084F0600084F060008AB
:1005DC004F0600084F060008FD050008110600082C
:1005EC00794A934213D02CE03B68DB683B6229E0EC
:1005FC003B68DB6804333B6224E03B68DB68083310
:10060C003B621FE03B68DB680C333B621AE03B68E3
:10061C009B68002B02D104233B6213E03B689B6870
:10062C00012B05D108233B627B68FA691A6109E04A
:10063C0008233B627B68FA695A6103E000233B6242
:10064C0000E000BFBB69FF2B01D87B6801E07B6831
:10065C0004337B61BB69FF2B02D87B6A9B0002E0F1
:10066C007B6A083B9B003B617B691A680F213B69E5
:10067C0001FA03F3DB431A40396A3B6901FA03F3CD
:10068C001A437B691A603B685B6803F08053002B4C
:10069C0000F0B1804D4B9B694C4A43F001039361D0
:1006AC004A4B9B6903F00103BB60BB68484A7B6AF9
:1006BC009B08023352F82330FB607B6A03F0030380
:1006CC009B000F2202FA03F3DB43FA681340FB6032
:1006DC007B68404A934213D07B683F4A93420DD0CB
:1006EC007B683E4A934207D07B683D4A934201D1D6
:1006FC00032306E0042304E0022302E0012300E0CC
:10070C0000237A6A02F0030292009340FA681343C2
:10071C00FB602F497B6A9B080233FA6841F823205F
:10072C003B685B6803F48033002B06D02D4B1A68B2
:10073C002C49BB6913430B6006E02A4B1A68BB6952
:10074C00DB43284913400B603B685B6803F40033C0
:10075C00002B06D0234B5A682249BB6913434B60CC
:10076C0006E0204B5A68BB69DB431E4913404B60C3
:10077C003B685B6803F48013002B06D0194B9A6816
:10078C001849BB6913438B6006E0164B9A68BB692A
:10079C00DB43144913408B603B685B6803F4001324
:1007AC00002B21D00F4BDA680E49BB691343CB6089
:1007BC0021E000BF000032100000311000002210B8
:1007CC000000211000001210000011100010024057
:1007DC000000014000080140000C014000100140E5
:1007EC0000140140000401400B4BDA68BB69DB4389
:1007FC0009491340CB607B6A01337B623B681A6802
:10080C007B6A22FA03F3002B7FF48EAE00BF00BF8D
:10081C002C37BD4680BC70470004014080B483B0C7
:10082C0000AF78600B467B8013467B707B78002B87
:10083C0003D07A887B681A6103E07B881A047B6892
:10084C001A6100BF0C37BD4680BC704770B50026DE
:10085C000C4D0D4C641BA410A64209D100F01AF8E3
:10086C0000260A4D0A4C641BA410A64205D170BD8B
:10087C0055F8043B98470136EEE755F8043B98478A
:10088C000136F2E7C8080008C8080008C8080008C4
:10089C00CC080008F8B500BFF8BC08BC9E467047F1
:0C08AC00F8B500BFF8BC08BC9E467047C1
:1008B8000000000000000000010203040607080908
:0408C80031010008F2
:0408CC000D01000812
:0408D0000024F4000C
:04000005080004D516
:00000001FF
