:020000040800F2
:1000000000500020D91400087D1400088314000853
:10001000891400088F1400089514000800000000DF
:100020000000000000000000000000009B14000819
:10003000A714000800000000B3140008BF14000853
:1000400021150008211500082115000821150008B8
:1000500021150008211500082115000821150008A8
:100060002115000821150008211500082115000898
:100070002115000821150008211500082115000888
:100080002115000821150008211500082115000878
:100090002115000821150008211500082115000868
:1000A0002115000821150008211500082115000858
:1000B0002115000821150008211500082115000848
:1000C0002115000821150008211500082115000838
:1000D0002115000821150008211500082115000828
:1000E0002115000821150008211500080000000056
:1000F0000000000000000000000000000000000000
:0C01000000000000000000005FF808F1A3
:10010C0010B5054C237833B9044B13B10448AFF345
:10011C0000800123237010BD0C00002000000000A3
:10012C00F028000808B5034B1BB103490348AFF393
:10013C00008008BD0000000010000020F02800081E
:10014C0081F0004102E000BF83F0004330B54FEA7C
:10015C0041044FEA430594EA050F08BF90EA020FE9
:10016C001FBF54EA000C55EA020C7FEA645C7FEA7C
:10017C00655C00F0E2804FEA5454D4EB5555B8BF9F
:10018C006D420CDD2C4480EA020281EA030382EA10
:10019C00000083EA010180EA020281EA0303362DA2
:1001AC0088BF30BD11F0004F4FEA01314FF4801C75
:1001BC004CEA113102D0404261EB410113F0004F87
:1001CC004FEA03334CEA133302D0524263EB43033E
:1001DC0094EA050F00F0A780A4F10104D5F1200EDC
:1001EC000DDB02FA0EFC22FA05F2801841F1000137
:1001FC0003FA0EF2801843FA05F359410EE0A5F10B
:10020C0020050EF1200E012A03FA0EFC28BF4CF03B
:10021C00020C43FA05F3C01851EBE37101F00045F1
:10022C0007D54FF0000EDCF1000C7EEB00006EEBFE
:10023C000101B1F5801F1BD3B1F5001F0CD3490888
:10024C005FEA30004FEA3C0C04F101044FEA4452DF
:10025C0012F5800F80F09A80BCF1004F08BF5FEA66
:10026C00500C50F1000041EB045141EA050130BD46
:10027C005FEA4C0C404141EB0101013C28BFB1F558
:10028C00801FE9D291F0000F04BF01460020B1FAA3
:10029C0081F308BF2033A3F10B03B3F120020CDA76
:1002AC000C3208DD02F1140CC2F10C0201FA0CF054
:1002BC0021FA02F10CE002F11402D8BFC2F1200CB9
:1002CC0001FA02F120FA0CFCDCBF41EA0C0190406F
:1002DC00E41AA2BF01EB0451294330BD6FEA0404B8
:1002EC001F3C1CDA0C340EDC04F11404C4F12002A3
:1002FC0020FA04F001FA02F340EA030021FA04F3B5
:10030C0045EA030130BDC4F10C04C4F1200220FA0B
:10031C0002F001FA04F340EA0300294630BD21FA49
:10032C0004F0294630BD94F0000F83F4801306BF0F
:10033C0081F480110134013D4EE77FEA645C18BF03
:10034C007FEA655C29D094EA050F08BF90EA020F9A
:10035C0005D054EA000C04BF1946104630BD91EA92
:10036C00030F1EBF0021002030BD5FEA545C05D195
:10037C004000494128BF41F0004130BD14F58004D4
:10038C003CBF01F5801130BD01F0004545F0FE4148
:10039C0041F470014FF0000030BD7FEA645C1ABF7D
:1003AC00194610467FEA655C1CBF0B46024650EAB4
:1003BC00013406BF52EA033591EA030F41F40021E0
:1003CC0030BD00BF90F0000F04BF0021704730B566
:1003DC004FF4806404F132044FF000054FF000013B
:1003EC0050E700BF90F0000F04BF0021704730B5FC
:1003FC004FF4806404F1320410F0004548BF4042D1
:10040C004FF000013EE700BF42004FEAE2014FEA25
:10041C0031014FEA02701FBF12F07F4393F07F4F00
:10042C0081F06051704732F07F4208BF704793F003
:10043C007F4F04BF41F40021704730B54FF4607416
:10044C0001F0004521F000411CE700BF50EA010219
:10045C0008BF704730B54FF000050AE050EA0102C2
:10046C0008BF704730B511F0004502D5404261EB32
:10047C0041014FF4806404F132045FEA915C3FF473
:10048C00D8AE4FF003025FEADC0C18BF03325FEA10
:10049C00DC0C18BF033202EBDC02C2F1200300FAC1
:1004AC0003FC20FA02F001FA03FE40EA0E0021FAE6
:1004BC0002F11444BDE600BF70B54FF0FF0C4CF4D4
:1004CC00E06C1CEA11541DBF1CEA135594EA0C0F86
:1004DC0095EA0C0F00F0DEF82C4481EA030621EAC1
:1004EC004C5123EA4C5350EA013518BF52EA0335FC
:1004FC0041F4801143F4801338D0A0FB02CE4FF0AE
:10050C000005E1FB02E506F00042E0FB03E54FF0DD
:10051C000006E1FB03569CF0000F18BF4EF0010ED5
:10052C00A4F1FF04B6F5007F64F5407404D25FEAD1
:10053C004E0E6D4146EB060642EAC62141EA555184
:10054C004FEAC52040EA5E504FEACE2EB4F1FD0CC6
:10055C0088BFBCF5E06F1ED8BEF1004F08BF5FEA44
:10056C00500E50F1000041EB045170BD06F00046F6
:10057C0046EA010140EA020081EA0301B4EB5C04A3
:10058C00C2BFD4EB0C0541EA045170BD41F480119B
:10059C004FF0000E013C00F3AB8014F1360FDEBFC0
:1005AC00002001F0004170BDC4F10004203C35DA9C
:1005BC000C341BDC04F11404C4F1200500FA05F31F
:1005CC0020FA04F001FA05F240EA020001F00042C0
:1005DC0021F0004110EBD37021FA04F642EB060136
:1005EC005EEA430E08BF20EAD37070BDC4F10C0460
:1005FC00C4F1200500FA04F320FA05F001FA04F224
:10060C0040EA020001F0004110EBD37041F100010F
:10061C005EEA430E08BF20EAD37070BDC4F120051A
:10062C0000FA05F24EEA020E20FA04F301FA05F282
:10063C0043EA020321FA04F001F0004121FA04F22A
:10064C0020EA020000EBD3705EEA430E08BF20EAFA
:10065C00D37070BD94F0000F0FD101F00046400034
:10066C0041EB010111F4801F08BF013CF7D041EAB6
:10067C00060195F0000F18BF704703F000465200BA
:10068C0043EB030313F4801F08BF013DF7D043EA8B
:10069C000603704794EA0C0F0CEA135518BF95EA41
:1006AC000C0F0CD050EA410618BF52EA4306D1D1C8
:1006BC0081EA030101F000414FF0000070BD50EAE7
:1006CC00410606BF1046194652EA430619D094EA71
:1006DC000C0F02D150EA013613D195EA0C0F05D15B
:1006EC0052EA03361CBF104619460AD181EA0301AF
:1006FC0001F0004141F0FE4141F470014FF0000067
:10070C0070BD41F0FE4141F4780170BD70B54FF001
:10071C00FF0C4CF4E06C1CEA11541DBF1CEA135581
:10072C0094EA0C0F95EA0C0F00F0A7F8A4EB050463
:10073C0081EA030E52EA03354FEA013100F088805A
:10074C004FEA03334FF0805545EA131343EA126323
:10075C004FEA022245EA111545EA10654FEA0026D8
:10076C000EF000419D4208BF964244F1FD0404F591
:10077C00407402D25B084FEA3202B61A65EB0305ED
:10078C005B084FEA32024FF480104FF4002CB6EBAA
:10079C00020E75EB030E22BFB61A754640EA0C002A
:1007AC005B084FEA3202B6EB020E75EB030E22BF6A
:1007BC00B61A754640EA5C005B084FEA3202B6EBAB
:1007CC00020E75EB030E22BFB61A754640EA9C006A
:1007DC005B084FEA3202B6EB020E75EB030E22BF3A
:1007EC00B61A754640EADC0055EA060E18D04FEAF8
:1007FC00051545EA16754FEA06164FEAC30343EA98
:10080C0052734FEAC2025FEA1C1CC0D111F4801F64
:10081C000BD141EA00014FF000004FF0004CB6E75D
:10082C0011F4801F04BF01430020B4F1FD0C88BFFC
:10083C00BCF5E06F3FF6AFAEB5EB030C04BFB6EB07
:10084C00020C5FEA500C50F1000041EB045170BDFA
:10085C000EF0004E4EEA113114EB5C04C2BFD4EB27
:10086C000C0541EA045170BD41F480114FF0000EAB
:10087C00013C90E645EA060E8DE60CEA135594EA27
:10088C000C0F08BF95EA0C0F3FF43BAF94EA0C0F2A
:10089C000AD150EA01347FF434AF95EA0C0F7FF49F
:1008AC0025AF104619462CE795EA0C0F06D152EAF3
:1008BC0003353FF4FDAE1046194622E750EA4106D7
:1008CC0018BF52EA43067FF4C5AE50EA41047FF4E8
:1008DC000DAF52EA43057FF4EBAE12E74FEA41024B
:1008EC00B2F1E04324BFB3F5001CDCF1FE5C0DD982
:1008FC0001F0004C4FEAC0024CEA5070B2F1004FCC
:10090C0040EB830008BF20F00100704711F0804FCE
:10091C0021D113F13872BCBF01F00040704741F493
:10092C0080114FEA5252C2F11802C2F1200C10FA97
:10093C000CF320FA02F018BF40F001004FEAC1237B
:10094C004FEAD32303FA0CFC40EA0C0023FA02F31F
:10095C004FEA4303CCE77FEA625307D150EA0133F5
:10096C001EBF4FF0FE4040F44000704701F00040C5
:10097C0040F0FE4040F40000704700BF80F00040A3
:10098C0002E000BF81F0004142001FBF5FEA41035B
:10099C0092EA030F7FEA226C7FEA236C6AD04FEA5B
:1009AC001262D2EB1363C1BFD218414048404140A0
:1009BC00B8BF5B42192B88BF704710F0004F40F452
:1009CC00000020F07F4018BF404211F0004F41F46E
:1009DC00000121F07F4118BF494292EA030F3FD03A
:1009EC00A2F1010241FA03FC10EB0C00C3F120034D
:1009FC0001FA03F100F0004302D5494260EB4000DC
:100A0C00B0F5000F13D3B0F1807F06D340084FEA46
:100A1C00310102F10102FE2A51D2B1F1004F40EB3B
:100A2C00C25008BF20F0010040EA030070474900A3
:100A3C0040EB0000013A28BFB0F5000FEDD2B0FA40
:100A4C0080FCACF1080CB2EB0C0200FA0CF0AABF63
:100A5C0000EBC25052421843BCBFD0401843704701
:100A6C0092F0000F81F4000106BF80F40000013207
:100A7C00013BB5E74FEA41037FEA226C18BF7FEADE
:100A8C00236C21D092EA030F04D092F0000F08BF20
:100A9C000846704790EA010F1CBF0020704712F007
:100AAC007F4F04D1400028BF40F00040704712F146
:100ABC0000723CBF00F50000704700F0004343F0AB
:100ACC00FE4040F4000070477FEA226216BF0846E1
:100ADC007FEA23630146420206BF5FEA412390EAA4
:100AEC00010F40F4800070474FF0000304E000BF9A
:100AFC0010F0004348BF40425FEA000C08BF70474B
:100B0C0043F0964301464FF000001CE050EA01020E
:100B1C0008BF70474FF000030AE000BF50EA010223
:100B2C0008BF704711F0004302D5404261EB410110
:100B3C005FEA010C02BF84460146002043F0B64335
:100B4C0008BFA3F18053A3F50003BCFA8CF2083A5A
:100B5C00A3EBC25310DB01FA02FC634400FA02FC63
:100B6C00C2F12002BCF1004F20FA02F243EB02006A
:100B7C0008BF20F00100704702F1200201FA02FCCC
:100B8C00C2F1200250EA4C0021FA02F243EB0200BF
:100B9C0008BF20EADC7070474FF0FF0C1CEAD05203
:100BAC001EBF1CEAD15392EA0C0F93EA0C0F6FD0C4
:100BBC001A4480EA010C400218BF5FEA41211ED0A2
:100BCC004FF0006343EA501043EA5111A0FB01318E
:100BDC000CF00040B1F5000F3EBF490041EAD37163
:100BEC005B0040EA010062F17F02FD2A1DD8B3F1DF
:100BFC00004F40EBC25008BF20F00100704790F04E
:100C0C00000F0CF0004C08BF49024CEA502040EA9F
:100C1C0051207F3AC2BFD2F1FF0340EAC250704765
:100C2C0040F400004FF00003013A5DDC12F1190FA3
:100C3C00DCBF00F000407047C2F10002410021FA15
:100C4C0002F1C2F1200200FA02FC5FEA310040F12D
:100C5C00000053EA4C0308BF20EADC70704792F0A6
:100C6C00000F00F0004C02BF400010F4000F013ADE
:100C7C00F9D040EA0C0093F0000F01F0004C02BFD9
:100C8C00490011F4000F013BF9D041EA0C018FE748
:100C9C000CEAD15392EA0C0F18BF93EA0C0F0AD04E
:100CAC0030F0004C18BF31F0004CD8D180EA010074
:100CBC0000F00040704790F0000F17BF90F0004F0D
:100CCC00084691F0000F91F0004F14D092EA0C0FEF
:100CDC0001D142020FD193EA0C0F03D14B0218BF82
:100CEC00084608D180EA010000F0004040F0FE40C8
:100CFC0040F40000704740F0FE4040F44000704764
:100D0C004FF0FF0C1CEAD0521EBF1CEAD15392EAE2
:100D1C000C0F93EA0C0F69D0A2EB030280EA010CD2
:100D2C0049024FEA402037D04FF0805343EA11116B
:100D3C0043EA10130CF000408B4238BF5B0042F1C9
:100D4C007D024FF4000C8B4224BF5B1A40EA0C006E
:100D5C00B3EB510F24BFA3EB510340EA5C00B3EBA0
:100D6C00910F24BFA3EB910340EA9C00B3EBD10F8E
:100D7C0024BFA3EBD10340EADC001B0118BF5FEAE0
:100D8C001C1CE0D1FD2A3FF650AF8B4240EBC25009
:100D9C0008BF20F0010070470CF0004C4CEA5020CA
:100DAC007F32C2BFD2F1FF0340EAC250704740F419
:100DBC0000004FF00003013A37E792F0000F00F00B
:100DCC00004C02BF400010F4000F013AF9D040EA89
:100DDC000C0093F0000F01F0004C02BF490011F41D
:100DEC00000F013BF9D041EA0C0195E70CEAD15315
:100DFC0092EA0C0F08D142027FF47DAF93EA0C0FFC
:100E0C007FF470AF084676E793EA0C0F04D14B02DF
:100E1C003FF44CAF08466EE730F0004C18BF31F091
:100E2C00004CCAD130F000427FF45CAF31F000438B
:100E3C007FF43CAF5FE700BF80B483B000AF0346E4
:100E4C00FB80084B1B6800225A6200BF054B1B68D5
:100E5C005A6AFB889A42F9D300BF00BF0C37BD46D3
:100E6C0080BC70472800002080B586B000AF0023FE
:100E7C00FB753B1D00221A605A609A60DA604FF4D1
:100E8C0080737B600123BB6002233B610023FB600A
:100E9C003B1D19462C4800F0A9FC00224FF4807130
:100EAC00294800F03EFE142000F098FB01224FF47C
:100EBC008071254800F035FE1E20FFF7BDFF002392
:100ECC00BB600123FB603B1D19461F4800F08EFCE4
:100EDC002820FFF7B1FF4FF480711B4800F00AFE89
:100EEC000346002B0CD15020FFF7A6FF4FF4807166
:100EFC00154800F0FFFD0346002B01D00123FB75C4
:100F0C0000F062FB0346114A136000F05DFB0346E0
:100F1C000F4A136004E000F057FB03460C4A1360C1
:100F2C004FF48071084800F0E5FD0346002B06D015
:100F3C00064B1B689A1C064B1B689A42EBD8FB7D30
:100F4C0018461837BD4680BD0008014078000020C7
:100F5C007C00002080B582B000AF0023FB7166E0FE
:100F6C0000F032FB0346364A136000F02DFB0346BB
:100F7C00344A136004E000F027FB0346314A136047
:100F8C004FF48071304800F0B5FD0346002B06D1BC
:100F9C002B4B1B689A1C2B4B1B689A42EBD82820B6
:100FAC00FFF74AFF4FF48071274800F0A3FD03467A
:100FBC00002B0ED1FB79C3F10703012202FA03F3D4
:100FCC005BB2DB435AB297F9063013405BB2BB718C
:100FDC000BE0FB79C3F10703012202FA03F35AB2C7
:100FEC0097F9063013435BB2BB7100F0EDFA034680
:100FFC00134A136000F0E8FA0346124A136004E047
:10100C0000F0E2FA03460F4A13604FF480710E4869
:10101C0000F070FD0346002B06D0094B1B689A1C90
:10102C00084B1B689A42EBD8FB790133FB71FB79B7
:10103C00072B95D9BB7918460837BD4680BD00BF34
:10104C00780000207C0000200008014098B500AF1B
:10105C0000F062FA00F0BEF800F052F900F000F96E
:10106C004F4801F0AFF9FFF7FFFE0346002B00F0ED
:10107C009280FFF76FFF03461A464A4B1A70FFF730
:10108C0069FF03461A46484B1A70FFF763FF034685
:10109C001A46464B1A70FFF75DFF03461A46444B3F
:1010AC001A70FFF757FF03461A46424B1A703D4B16
:1010BC001B781A463C4B1B7813443C4A1278134459
:1010CC003B4A127813443B4A1278934252D1374B25
:1010DC001B781846FFF708FD0446354B1B7818465D
:1010EC00FFF780F94FF00002334BFFF70FFB02467E
:1010FC000B4610461946FFF7F1FB034619462046EE
:10110C00FFF742FC03461A462C4B1A602B4B1B680C
:10111C002B491846FFF740FD03462A491846FFF7AE
:10112C00EFFD03464FF084411846FFF72DFC0346B4
:10113C001A46254B1A601B4B1B781846FFF7D4FC3C
:10114C000446194B1B781846FFF74CF94FF0000278
:10115C00194BFFF7DBFA02460B4610461946FFF710
:10116C00BDFB034619462046FFF70EFC03461A4604
:10117C00164B1A600D4B1B780F2B06D901224FF41E
:10118C000051134800F0CDFC05E000224FF4005153
:10119C000F4800F0C6FC4FF4FA6000F01FFA62E74B
:1011AC002800002070000020710000207200002038
:1011BC0073000020740000200000244080000020F8
:1011CC00000010410000A040840000208800002096
:1011DC000010014080B590B000AF07F11803282231
:1011EC000021184601F076FB3B1D00221A605A6064
:1011FC009A60DA601A610123BB614FF48033FB61A2
:10120C0000233B620123BB6202237B634FF48033D8
:10121C00BB634FF4E013FB6307F11803184600F0AF
:10122C0099FC0346002B01D000F0CCF80F237B6017
:10123C000223BB600023FB604FF480633B610023FF
:10124C007B613B1D0221184600F006FF0346002B74
:10125C0001D000F0B7F800BF4037BD4680BD00009C
:10126C0080B586B000AF07F1080300221A605A60FF
:10127C009A60DA603B4600221A605A601E4B1F4A85
:10128C001A601D4B47225A601B4B00229A601A4B66
:10129C004FF6FF72DA60184B00221A61164B0022CF
:1012AC005A61154B00229A61134801F03BF8034632
:1012BC00002B01D000F086F84FF48053BB6007F18F
:1012CC00080319460C4801F0C7F80346002B01D05F
:1012DC0000F078F800233B6000237B603B46194606
:1012EC00054801F075FA0346002B01D000F06AF8AE
:1012FC0000BF1837BD4680BD28000020002C0140DF
:10130C0080B588B000AF07F1100300221A605A6054
:10131C009A60DA60284B9B69274A43F0100393616B
:10132C00254B9B6903F01003FB60FB68224B9B6908
:10133C00214A43F0200393611F4B9B6903F0200368
:10134C00BB60BB681C4B9B691B4A43F00403936155
:10135C00194B9B6903F004037B607B6800224FF4FC
:10136C000051164800F0DDFB00224FF48071144848
:10137C0000F0D7FB4FF400533B6101237B6100234A
:10138C00BB610223FB6107F1100319460B4800F007
:10139C002DFA4FF480733B6101237B610023BB6109
:1013AC000223FB6107F110031946054800F01EFAF1
:1013BC0000BF2037BD4680BD001002400010014028
:1013CC000008014080B400AF72B600BFFEE7000019
:1013DC0080B485B000AF154B9B69144A43F00103F0
:1013EC009361124B9B6903F00103BB60BB680F4B0D
:1013FC00DB690E4A43F08053D3610C4BDB6903F07D
:10140C0080537B607B680A4B5B68FB60FB6823F056
:10141C00E063FB60FB6843F00073FB60044AFB680D
:10142C00536000BF1437BD4680BC704700100240AB
:10143C000000014080B485B000AF78607B681B6809
:10144C00094A93420BD1094B9B69084A43F4006348
:10145C009361064B9B6903F40063FB60FB6800BF60
:10146C001437BD4680BC7047002C01400010024070
:10147C0080B400AFFEE780B400AFFEE780B400AFED
:10148C00FEE780B400AFFEE780B400AFFEE780B4A7
:10149C0000AF00BFBD4680BC704780B400AF00BF3A
:1014AC00BD4680BC704780B400AF00BFBD4680BC59
:1014BC00704780B500AF00F075F800BF80BD80B4F8
:1014CC0000AF00BFBD4680BC704700000C480D4902
:1014DC000D4A002302E0D458C4500433C4188C4283
:1014EC00F9D30A4A0A4C002301E013600432A242E9
:1014FC00FBD3FFF7E4FF01F0C9F9FFF7A7FD704735
:10150C00000000200C000020302900080C000020F6
:10151C0090000020FEE7000080B500AF084B1B6870
:10152C00074A43F010031360032000F02BF90F203F
:10153C0000F008F8FFF74CFF0023184680BD00BFF1
:10154C000020024080B582B000AF7860124B1A6860
:10155C00124B1B7819464FF47A73B3FBF1F3B2FBC1
:10156C00F3F3184600F035F90346002B01D00123A4
:10157C000EE07B680F2B0AD8002279684FF0FF3001
:10158C0000F00BF9064A7B681360002300E001238E
:10159C0018460837BD4680BD00000020080000201A
:1015AC000400002080B400AF054B1B781A46054B95
:1015BC001B681344034A136000BFBD4680BC7047D0
:1015CC00080000208C00002080B400AF024B1B6888
:1015DC001846BD4680BC70478C00002080B584B096
:1015EC0000AF7860FFF7F0FFB8607B68FB60FB68CA
:1015FC00B3F1FF3F05D00A4B1B781A46FB68134426
:10160C00FB6000BFFFF7E0FF0246BB68D31AFA6825
:10161C009A42F7D800BF00BF1037BD4680BD00BF4F
:10162C000800002080B485B000AF78607B6803F0C0
:10163C000703FB600C4BDB68BB60BA684FF6FF031B
:10164C001340BB60FB681A02BB68134343F0BF63D3
:10165C0043F40033BB60044ABB68D36000BF14374B
:10166C00BD4680BC704700BF00ED00E080B400AF09
:10167C00044BDB681B0A03F007031846BD4680BC0D
:10168C00704700BF00ED00E080B483B000AF0346AC
:10169C003960FB7197F90730002B0ADB3B68DAB233
:1016AC000C4997F907301201D2B20B4483F800238E
:1016BC000AE03B68DAB20849FB7903F00F03043BFC
:1016CC001201D2B20B441A7600BF0C37BD4680BC57
:1016DC00704700BF00E100E000ED00E080B489B08D
:1016EC0000AFF860B9607A60FB6803F00703FB6138
:1016FC00FB69C3F10703042B28BF0423BB61FB69FF
:10170C000433062B02D9FB69033B00E000237B6109
:10171C004FF0FF32BB6902FA03F3DA43BB681A409D
:10172C007B699A404FF0FF317B6901FA03F3D9438F
:10173C007B680B40134318462437BD4680BC70476A
:10174C0080B582B000AF78607B68013BB3F1807FDD
:10175C0001D301230FE00A4A7B68013B53600F2140
:10176C004FF0FF30FFF790FF054B00229A60044BBF
:10177C0007221A60002318460837BD4680BD00BFFB
:10178C0010E000E080B582B000AF78607868FFF7B9
:10179C0049FF00BF0837BD4680BD80B586B000AF9D
:1017AC000346B9607A60FB7300237B61FFF75EFF31
:1017BC0078617A68B9687869FFF790FF024697F903
:1017CC000F3011461846FFF75FFF00BF1837BD46B4
:1017DC0080BD80B582B000AF78607868FFF7B0FF4D
:1017EC00034618460837BD4680BD000080B48BB058
:1017FC0000AF7860396000237B6200233B6269E1B3
:10180C0001227B6A02FA03F3FB613B681B68FA69ED
:10181C001340BB61BA69FB699A4240F058813B683E
:10182C005B689A4A93425ED0984A934275D8984A1C
:10183C00934258D0964A93426FD8964A934252D0CC
:10184C00944A934269D8944A93424CD0924A934218
:10185C0063D8924A934246D0904A93425DD8122B59
:10186C002AD8122B59D801A252F823F0F3180008E9
:10187C00CD180008DF1800082119000827190008E6
:10188C00271900082719000827190008271900082C
:10189C00271900082719000827190008271900081C
:1018AC00271900082719000827190008271900080C
:1018BC00D5180008E9180008794A934213D02CE097
:1018CC003B68DB683B6229E03B68DB6804333B62C6
:1018DC0024E03B68DB6808333B621FE03B68DB6855
:1018EC000C333B621AE03B689B68002B02D104234B
:1018FC003B6213E03B689B68012B05D108233B62DC
:10190C007B68FA691A6109E008233B627B68FA6913
:10191C005A6103E000233B6200E000BFBB69FF2B70
:10192C0001D87B6801E07B6804337B61BB69FF2BCA
:10193C0002D87B6A9B0002E07B6A083B9B003B6100
:10194C007B691A680F213B6901FA03F3DB431A40E8
:10195C00396A3B6901FA03F31A437B691A603B68E5
:10196C005B6803F08053002B00F0B1804D4B9B69FA
:10197C004C4A43F0010393614A4B9B6903F001030A
:10198C00BB60BB68484A7B6A9B08023352F8233021
:10199C00FB607B6A03F003039B000F2202FA03F344
:1019AC00DB43FA681340FB607B68404A934213D0D8
:1019BC007B683F4A93420DD07B683E4A934207D0E6
:1019CC007B683D4A934201D1032306E0042304E0E3
:1019DC00022302E0012300E000237A6A02F00302F2
:1019EC0092009340FA681343FB602F497B6A9B0873
:1019FC000233FA6841F823203B685B6803F48033B8
:101A0C00002B06D02D4B1A682C49BB6913430B6075
:101A1C0006E02A4B1A68BB69DB43284913400B606C
:101A2C003B685B6803F40033002B06D0234B5A68E9
:101A3C002249BB6913434B6006E0204B5A68BB69D3
:101A4C00DB431E4913404B603B685B6803F4801317
:101A5C00002B06D0194B9A681849BB6913438B604D
:101A6C0006E0164B9A68BB69DB43144913408B6044
:101A7C003B685B6803F40013002B21D00F4BDA6832
:101A8C000E49BB691343CB6021E000BF000032104C
:101A9C000000311000002210000021100000121074
:101AAC00000011100010024000000140000801402D
:101ABC00000C0140001001400014014000040140E2
:101ACC000B4BDA68BB69DB4309491340CB607B6A7B
:101ADC0001337B623B681A687B6A22FA03F3002BA2
:101AEC007FF48EAE00BF00BF2C37BD4680BC704764
:101AFC000004014080B485B000AF78600B467B8059
:101B0C007B689A687B881340002B02D00123FB73FF
:101B1C0001E00023FB73FB7B18461437BD4680BCE9
:101B2C00704780B483B000AF78600B467B8013465F
:101B3C007B707B78002B03D07A887B681A6103E07A
:101B4C007B881A047B681A6100BF0C37BD4680BCC9
:101B5C007047000080B586B000AF78607B68002BC2
:101B6C0001D1012372E27B681B6803F00103002B97
:101B7C0000F08780924B5B6803F00C03042B0CD0B5
:101B8C008F4B5B6803F00C03082B12D18C4B5B68FA
:101B9C0003F48033B3F5803F0BD1894B1B6803F4FE
:101BAC000033002B6CD07B685B68002B68D1012361
:101BBC004CE27B685B68B3F5803F06D1804B1B68B9
:101BCC007F4A43F4803313602EE07B685B68002B04
:101BDC000CD17B4B1B687A4A23F480331360784B0F
:101BEC001B68774A23F4802313601DE07B685B68D5
:101BFC00B3F5A02F0CD1724B1B68714A43F48023B0
:101C0C0013606F4B1B686E4A43F4803313600BE018
:101C1C006B4B1B686A4A23F480331360684B1B6858
:101C2C00674A23F4802313607B685B68002B13D016
:101C3C00FFF7CAFC386108E0FFF7C6FC02463B69B7
:101C4C00D31A642B01D9032300E25D4B1B6803F408
:101C5C000033002BF0D014E0FFF7B6FC386108E03D
:101C6C00FFF7B2FC02463B69D31A642B01D903235C
:101C7C00ECE1534B1B6803F40033002BF0D100E074
:101C8C0000BF7B681B6803F00203002B63D04C4B36
:101C9C005B6803F00C03002B0BD0494B5B6803F023
:101CAC000C03082B1CD1464B5B6803F48033002BD0
:101CBC0016D1434B1B6803F00203002B05D07B6845
:101CCC001B69012B01D00123C0E13D4B1B6823F0A4
:101CDC00F8027B685B69DB00394913430B603AE01F
:101CEC007B681B69002B20D0364B01221A60FFF752
:101CFC006BFC386108E0FFF767FC02463B69D31ABE
:101D0C00022B01D90323A1E12D4B1B6803F0020325
:101D1C00002BF0D02A4B1B6823F0F8027B685B6920
:101D2C00DB00274913430B6015E0264B00221A6099
:101D3C00FFF74AFC386108E0FFF746FC02463B69B6
:101D4C00D31A022B01D9032380E11D4B1B6803F02E
:101D5C000203002BF0D17B681B6803F00803002BF7
:101D6C003AD07B689B69002B19D0174B01221A6063
:101D7C00FFF72AFC386108E0FFF726FC02463B69B6
:101D8C00D31A022B01D9032360E10D4B5B6A03F0DC
:101D9C000203002BF0D0012000F0A6FA1CE00A4B45
:101DAC0000221A60FFF710FC38610FE0FFF70CFC03
:101DBC0002463B69D31A022B08D9032346E100BF24
:101DCC00001002400000424280044242924B5B6A87
:101DDC0003F00203002BE9D17B681B6803F00403BA
:101DEC00002B00F0A6800023FB758B4BDB6903F006
:101DFC008053002B0DD1884BDB69874A43F080530D
:101E0C00D361854BDB6903F08053BB60BB68012356
:101E1C00FB75824B1B6803F48073002B18D17F4B2E
:101E2C001B687E4A43F480731360FFF7CDFB386167
:101E3C0008E0FFF7C9FB02463B69D31A642B01D9B2
:101E4C00032303E1754B1B6803F48073002BF0D064
:101E5C007B68DB68012B06D16F4B1B6A6E4A43F023
:101E6C00010313622DE07B68DB68002B0CD16A4BFD
:101E7C001B6A694A23F001031362674B1B6A664AAB
:101E8C0023F0040313621CE07B68DB68052B0CD188
:101E9C00614B1B6A604A43F0040313625E4B1B6A7E
:101EAC005D4A43F0010313620BE05B4B1B6A5A4A19
:101EBC0023F001031362584B1B6A574A23F00403A7
:101ECC0013627B68DB68002B15D0FFF77DFB386154
:101EDC000AE0FFF779FB02463B69D31A41F28832DC
:101EEC00934201D90323B1E04B4B1B6A03F002036D
:101EFC00002BEED014E0FFF767FB38610AE0FFF728
:101F0C0063FB02463B69D31A41F28832934201D9F2
:101F1C0003239BE0404B1B6A03F00203002BEED122
:101F2C00FB7D012B05D13C4BDB693B4A23F08053F5
:101F3C00D3617B68DB69002B00F08780364B5B68D4
:101F4C0003F00C03082B61D07B68DB69022B46D1B4
:101F5C00334B00221A60FFF737FB386108E0FFF7BC
:101F6C0033FB02463B69D31A022B01D903236DE0E4
:101F7C00294B1B6803F00073002BF0D17B681B6AA4
:101F8C00B3F5803F08D1244B5B6823F400327B68A7
:101F9C009B68214913434B601F4B5B6823F47412FD
:101FAC007B68196A7B685B6A0B431B4913434B6064
:101FBC001B4B01221A60FFF707FB386108E0FFF7A3
:101FCC0003FB02463B69D31A022B01D903233DE0E4
:101FDC00114B1B6803F00073002BF0D035E0104B55
:101FEC0000221A60FFF7F0FA386108E0FFF7ECFA0C
:101FFC0002463B69D31A022B01D9032326E0064B78
:10200C001B6803F00073002BF0D11EE07B68DB69CA
:10201C00012B07D1012319E0001002400070004091
:10202C00600042420B4B5B68FB60FB6803F4803240
:10203C007B681B6A9A4206D1FB6803F470127B68BA
:10204C005B6A9A4201D0012300E00023184618373E
:10205C00BD4680BD0010024080B584B000AF7860F2
:10206C0039607B68002B01D10123D0E06A4B1B68DF
:10207C0003F007033A689A4210D9674B1B6823F0A8
:10208C00070265493B6813430B60634B1B6803F005
:10209C0007033A689A4201D00123B8E07B681B68B9
:1020AC0003F00203002B20D07B681B6803F00403B1
:1020BC00002B05D0594B5B68584A43F4E0635360DE
:1020CC007B681B6803F00803002B05D0534B5B683F
:1020DC00524A43F460535360504B5B6823F0F00258
:1020EC007B689B684D4913434B607B681B6803F00E
:1020FC000103002B40D07B685B68012B07D1474B59
:10210C001B6803F40033002B15D101237FE07B689F
:10211C005B68022B07D1414B1B6803F00073002B4B
:10212C0009D1012373E03D4B1B6803F00203002B24
:10213C0001D101236BE0394B5B6823F003027B6810
:10214C005B68364913434B60FFF73EFAF8600AE0D0
:10215C00FFF73AFA0246FB68D31A41F288329342EF
:10216C0001D9032353E02D4B5B6803F00C027B6811
:10217C005B689B009A42EBD1274B1B6803F007036B
:10218C003A689A4210D2244B1B6823F0070222496A
:10219C003B6813430B60204B1B6803F007033A6842
:1021AC009A4201D0012332E07B681B6803F00403E0
:1021BC00002B08D0194B5B6823F4E0627B68DB686A
:1021CC00164913434B607B681B6803F00803002B14
:1021DC0009D0124B5B6823F460527B681B69DB00EF
:1021EC000E4913434B6000F021F802460B4B5B6821
:1021FC001B0903F00F030A49CB5C22FA03F3094ACB
:10220C001360094B1B681846FFF79CF9002318460E
:10221C001037BD4680BD00BF0020024000100240B8
:10222C0018290008000000200400002090B48AB097
:10223C0000AF294B3C1D0FCB84E80F0040F201236B
:10224C003B800023FB610023BB6100237B620023E6
:10225C007B6100233B62214B5B68FB61FB6903F0F4
:10226C000C03042B02D0082B03D02BE01C4B3B623D
:10227C002BE0FB699B0C03F00F0328333B4413F852
:10228C00243C7B61FB6903F48033002B12D0134B8D
:10229C005B685B0C03F0010328333B4413F8283CC8
:1022AC00BB617B690E4A03FB02F2BB69B2FBF3F321
:1022BC007B6204E07B690B4A02FB03F37B627B6A63
:1022CC003B6202E0064B3B6200BF3B6A1846283774
:1022DC00BD4690BC704700BF0829000800100240A2
:1022EC0000127A0000093D0080B485B000AF786020
:1022FC000A4B1B680A4AA2FB03235B0A7A6802FB9F
:10230C0003F3FB6000BFFB685A1EFA60002BF9D187
:10231C0000BF00BF1437BD4680BC704700000020D2
:10232C00D34D621080B582B000AF78607B68002B13
:10233C0001D1012341E07B6893F83D30DBB2002BE7
:10234C0006D17B68002283F83C207868FFF772F88E
:10235C007B68022283F83D207B681A687B68043313
:10236C001946104600F03CF97B68012283F84620A0
:10237C007B68012283F83E207B68012283F83F2092
:10238C007B68012283F840207B68012283F841207E
:10239C007B68012283F842207B68012283F843206A
:1023AC007B68012283F844207B68012283F8452056
:1023BC007B68012283F83D20002318460837BD4670
:1023CC0080BD000080B485B000AF78607B6893F866
:1023DC003D30DBB2012B01D0012332E07B680222BD
:1023EC0083F83D207B681B68184A93420ED07B68AB
:1023FC001B68B3F1804F09D07B681B68144A934269
:10240C0004D07B681B68134A934211D17B681B680C
:10241C009B6803F00703FB60FB68062B10D07B68FE
:10242C001B681A687B681B6842F001021A6007E09F
:10243C007B681B681A687B681B6842F001021A6093
:10244C00002318461437BD4680BC7047002C014051
:10245C00000400400008004080B584B000AF7860F4
:10246C0039607B6893F83C30012B01D10223B3E037
:10247C007B68012283F83C207B68022283F83D2094
:10248C007B681B689B68FB60FB6823F07703FB6031
:10249C00FB6823F47F43FB607B681B68FA689A60D7
:1024AC003B681B68B3F5005F3ED0B3F5005F00F2EC
:1024BC008780B3F5805F00F08580B3F5805F7FD8AF
:1024CC00702B1AD0702B7BD8602B50D0602B77D808
:1024DC00502B3CD0502B73D8402B58D0402B6FD85E
:1024EC00302B64D0302B6BD8202B60D0202B67D8AE
:1024FC00002B5CD0102B5AD062E07B6818683B68CC
:10250C0099683B685A683B68DB6800F042F97B6865
:10251C001B689B68FB60FB6843F07703FB607B6880
:10252C001B68FA689A604EE07B6818683B6899688B
:10253C003B685A683B68DB6800F02BF97B681B68CA
:10254C009A687B681B6842F480429A603BE07B6827
:10255C0018683B6859683B68DB681A4600F0A2F8BB
:10256C007B681B685021184600F0F9F82BE07B685B
:10257C0018683B6859683B68DB681A4600F0C0F87D
:10258C007B681B686021184600F0E9F81BE07B684B
:10259C0018683B6859683B68DB681A4600F082F89B
:1025AC007B681B684021184600F0D9F80BE07B686B
:1025BC001A683B681B681946104600F0D0F802E018
:1025CC0000BF00E000BF7B68012283F83D207B68E0
:1025DC00002283F83C20002318461037BD4680BDEE
:1025EC0080B485B000AF786039607B681B68FB6095
:1025FC007B68294A93420BD07B68B3F1804F07D09C
:10260C007B68264A934203D07B68254A934208D1C3
:10261C00FB6823F07003FB603B685B68FA6813434C
:10262C00FB607B681C4A93420BD07B68B3F1804FF4
:10263C0007D07B68194A934203D07B68184A9342AF
:10264C0008D1FB6823F44073FB603B68DB68FA68D5
:10265C001343FB60FB6823F080023B685B69134308
:10266C00FB607B68FA681A603B689A687B68DA6280
:10267C003B681A687B689A627B68074A934203D16D
:10268C003B681A697B681A637B6801225A6100BF38
:10269C001437BD4680BC7047002C0140000400403C
:1026AC000008004080B487B000AFF860B9607A6071
:1026BC00FB681B6A7B61FB681B6A23F00102FB68E9
:1026CC001A62FB689B693B613B6923F0F0033B6139
:1026DC007B681B013A6913433B617B6923F00A0356
:1026EC007B617A69BB6813437B61FB683A699A61C9
:1026FC00FB687A691A6200BF1C37BD4680BC704704
:10270C0080B487B000AFF860B9607A60FB681B6A70
:10271C0023F01002FB681A62FB689B697B61FB6803
:10272C001B6A3B617B6923F470437B617B681B03F1
:10273C007A6913437B613B6923F0A0033B61BB685F
:10274C001B013A6913433B61FB687A699A61FB6828
:10275C003A691A6200BF1C37BD4680BC704780B412
:10276C0085B000AF786039607B689B68FB60FB6864
:10277C0023F07003FB603A68FB68134343F00703D4
:10278C00FB607B68FA689A6000BF1437BD4680BC5A
:10279C00704780B487B000AFF860B9607A603B6076
:1027AC00FB689B687B617B6923F47F437B613B689F
:1027BC001A027B681A43BB6813437A6913437B6123
:1027CC00FB687A699A6000BF1C37BD4680BC7047B5
:1027DC0080B485B000AF786039607B6893F83C308A
:1027EC00012B01D1022346E07B68012283F83C20B7
:1027FC007B68022283F83D207B681B685B68FB606A
:10280C007B681B689B68BB60FB6823F07003FB60F4
:10281C003B681B68FA681343FB607B681B68FA68AB
:10282C005A607B681B68164A93420ED07B681B6803
:10283C00B3F1804F09D07B681B68124A934204D0D5
:10284C007B681B68104A93420CD1BB6823F0800351
:10285C00BB603B685B68BA681343BB607B681B68F2
:10286C00BA689A607B68012283F83D207B6800225D
:10287C0083F83C20002318461437BD4680BC7047B3
:10288C00002C0140000400400008004070B50026F8
:10289C000C4D0D4C641BA410A64209D100F022F87B
:1028AC0000260A4D0A4C641BA410A64205D170BD2B
:1028BC0055F8043B98470136EEE755F8043B98472A
:1028CC000136F2E7282900082829000828290008E1
:1028DC002C29000803460244934200D1704703F8A8
:1028EC00011BF9E7F8B500BFF8BC08BC9E46704761
:0C28FC00F8B500BFF8BC08BC9E46704751
:1029080002030405060708090A0B0C0D0E0F101028
:102918000000000000000000010203040607080987
:042928003101000871
:04292C000D01000891
:0C2930000024F400100000000100000072
:04000005080014D902
:00000001FF
