:020000040800F2
:1000000000500020C1240008E1230008E723000875
:10001000ED230008F3230008F92300080000000086
:10002000000000000000000000000000FF230008A6
:100030000B240008000000001724000823240008F7
:1000400009250008092500080925000809250008D8
:1000500009250008092500080925000809250008C8
:1000600009250008092500080925000809250008B8
:1000700009250008092500080925000809250008A8
:100080000925000809250008092500080925000898
:100090000925000809250008092500080925000888
:1000A0000925000809250008092500080925000878
:1000B0000925000809250008092500080925000868
:1000C0000925000809250008092500080925000858
:1000D0000925000809250008092500080925000848
:1000E0002F24000809250008092500080000000049
:1000F0000000000000000000000000000000000000
:0C01000000000000000000005FF808F1A3
:10010C0010B5054C237833B9044B13B10448AFF345
:10011C0000800123237010BD80000020000000002F
:10012C00CC4D000808B5034B1BB103490348AFF392
:10013C00008008BD0000000084000020CC4D0008A9
:10014C0081F0004102E000BF83F0004330B54FEA7C
:10015C0041044FEA430594EA050F08BF90EA020FE9
:10016C001FBF54EA000C55EA020C7FEA645C7FEA7C
:10017C00655C00F0E2804FEA5454D4EB5555B8BF9F
:10018C006D420CDD2C4480EA020281EA030382EA10
:10019C00000083EA010180EA020281EA0303362DA2
:1001AC0088BF30BD11F0004F4FEA01314FF4801C75
:1001BC004CEA113102D0404261EB410113F0004F87
:1001CC004FEA03334CEA133302D0524263EB43033E
:1001DC0094EA050F00F0A780A4F10104D5F1200EDC
:1001EC000DDB02FA0EFC22FA05F2801841F1000137
:1001FC0003FA0EF2801843FA05F359410EE0A5F10B
:10020C0020050EF1200E012A03FA0EFC28BF4CF03B
:10021C00020C43FA05F3C01851EBE37101F00045F1
:10022C0007D54FF0000EDCF1000C7EEB00006EEBFE
:10023C000101B1F5801F1BD3B1F5001F0CD3490888
:10024C005FEA30004FEA3C0C04F101044FEA4452DF
:10025C0012F5800F80F09A80BCF1004F08BF5FEA66
:10026C00500C50F1000041EB045141EA050130BD46
:10027C005FEA4C0C404141EB0101013C28BFB1F558
:10028C00801FE9D291F0000F04BF01460020B1FAA3
:10029C0081F308BF2033A3F10B03B3F120020CDA76
:1002AC000C3208DD02F1140CC2F10C0201FA0CF054
:1002BC0021FA02F10CE002F11402D8BFC2F1200CB9
:1002CC0001FA02F120FA0CFCDCBF41EA0C0190406F
:1002DC00E41AA2BF01EB0451294330BD6FEA0404B8
:1002EC001F3C1CDA0C340EDC04F11404C4F12002A3
:1002FC0020FA04F001FA02F340EA030021FA04F3B5
:10030C0045EA030130BDC4F10C04C4F1200220FA0B
:10031C0002F001FA04F340EA0300294630BD21FA49
:10032C0004F0294630BD94F0000F83F4801306BF0F
:10033C0081F480110134013D4EE77FEA645C18BF03
:10034C007FEA655C29D094EA050F08BF90EA020F9A
:10035C0005D054EA000C04BF1946104630BD91EA92
:10036C00030F1EBF0021002030BD5FEA545C05D195
:10037C004000494128BF41F0004130BD14F58004D4
:10038C003CBF01F5801130BD01F0004545F0FE4148
:10039C0041F470014FF0000030BD7FEA645C1ABF7D
:1003AC00194610467FEA655C1CBF0B46024650EAB4
:1003BC00013406BF52EA033591EA030F41F40021E0
:1003CC0030BD00BF90F0000F04BF0021704730B566
:1003DC004FF4806404F132044FF000054FF000013B
:1003EC0050E700BF90F0000F04BF0021704730B5FC
:1003FC004FF4806404F1320410F0004548BF4042D1
:10040C004FF000013EE700BF42004FEAE2014FEA25
:10041C0031014FEA02701FBF12F07F4393F07F4F00
:10042C0081F06051704732F07F4208BF704793F003
:10043C007F4F04BF41F40021704730B54FF4607416
:10044C0001F0004521F000411CE700BF50EA010219
:10045C0008BF704730B54FF000050AE050EA0102C2
:10046C0008BF704730B511F0004502D5404261EB32
:10047C0041014FF4806404F132045FEA915C3FF473
:10048C00D8AE4FF003025FEADC0C18BF03325FEA10
:10049C00DC0C18BF033202EBDC02C2F1200300FAC1
:1004AC0003FC20FA02F001FA03FE40EA0E0021FAE6
:1004BC0002F11444BDE600BF70B54FF0FF0C4CF4D4
:1004CC00E06C1CEA11541DBF1CEA135594EA0C0F86
:1004DC0095EA0C0F00F0DEF82C4481EA030621EAC1
:1004EC004C5123EA4C5350EA013518BF52EA0335FC
:1004FC0041F4801143F4801338D0A0FB02CE4FF0AE
:10050C000005E1FB02E506F00042E0FB03E54FF0DD
:10051C000006E1FB03569CF0000F18BF4EF0010ED5
:10052C00A4F1FF04B6F5007F64F5407404D25FEAD1
:10053C004E0E6D4146EB060642EAC62141EA555184
:10054C004FEAC52040EA5E504FEACE2EB4F1FD0CC6
:10055C0088BFBCF5E06F1ED8BEF1004F08BF5FEA44
:10056C00500E50F1000041EB045170BD06F00046F6
:10057C0046EA010140EA020081EA0301B4EB5C04A3
:10058C00C2BFD4EB0C0541EA045170BD41F480119B
:10059C004FF0000E013C00F3AB8014F1360FDEBFC0
:1005AC00002001F0004170BDC4F10004203C35DA9C
:1005BC000C341BDC04F11404C4F1200500FA05F31F
:1005CC0020FA04F001FA05F240EA020001F00042C0
:1005DC0021F0004110EBD37021FA04F642EB060136
:1005EC005EEA430E08BF20EAD37070BDC4F10C0460
:1005FC00C4F1200500FA04F320FA05F001FA04F224
:10060C0040EA020001F0004110EBD37041F100010F
:10061C005EEA430E08BF20EAD37070BDC4F120051A
:10062C0000FA05F24EEA020E20FA04F301FA05F282
:10063C0043EA020321FA04F001F0004121FA04F22A
:10064C0020EA020000EBD3705EEA430E08BF20EAFA
:10065C00D37070BD94F0000F0FD101F00046400034
:10066C0041EB010111F4801F08BF013CF7D041EAB6
:10067C00060195F0000F18BF704703F000465200BA
:10068C0043EB030313F4801F08BF013DF7D043EA8B
:10069C000603704794EA0C0F0CEA135518BF95EA41
:1006AC000C0F0CD050EA410618BF52EA4306D1D1C8
:1006BC0081EA030101F000414FF0000070BD50EAE7
:1006CC00410606BF1046194652EA430619D094EA71
:1006DC000C0F02D150EA013613D195EA0C0F05D15B
:1006EC0052EA03361CBF104619460AD181EA0301AF
:1006FC0001F0004141F0FE4141F470014FF0000067
:10070C0070BD41F0FE4141F4780170BD70B54FF001
:10071C00FF0C4CF4E06C1CEA11541DBF1CEA135581
:10072C0094EA0C0F95EA0C0F00F0A7F8A4EB050463
:10073C0081EA030E52EA03354FEA013100F088805A
:10074C004FEA03334FF0805545EA131343EA126323
:10075C004FEA022245EA111545EA10654FEA0026D8
:10076C000EF000419D4208BF964244F1FD0404F591
:10077C00407402D25B084FEA3202B61A65EB0305ED
:10078C005B084FEA32024FF480104FF4002CB6EBAA
:10079C00020E75EB030E22BFB61A754640EA0C002A
:1007AC005B084FEA3202B6EB020E75EB030E22BF6A
:1007BC00B61A754640EA5C005B084FEA3202B6EBAB
:1007CC00020E75EB030E22BFB61A754640EA9C006A
:1007DC005B084FEA3202B6EB020E75EB030E22BF3A
:1007EC00B61A754640EADC0055EA060E18D04FEAF8
:1007FC00051545EA16754FEA06164FEAC30343EA98
:10080C0052734FEAC2025FEA1C1CC0D111F4801F64
:10081C000BD141EA00014FF000004FF0004CB6E75D
:10082C0011F4801F04BF01430020B4F1FD0C88BFFC
:10083C00BCF5E06F3FF6AFAEB5EB030C04BFB6EB07
:10084C00020C5FEA500C50F1000041EB045170BDFA
:10085C000EF0004E4EEA113114EB5C04C2BFD4EB27
:10086C000C0541EA045170BD41F480114FF0000EAB
:10087C00013C90E645EA060E8DE60CEA135594EA27
:10088C000C0F08BF95EA0C0F3FF43BAF94EA0C0F2A
:10089C000AD150EA01347FF434AF95EA0C0F7FF49F
:1008AC0025AF104619462CE795EA0C0F06D152EAF3
:1008BC0003353FF4FDAE1046194622E750EA4106D7
:1008CC0018BF52EA43067FF4C5AE50EA41047FF4E8
:1008DC000DAF52EA43057FF4EBAE12E74FEA41024B
:1008EC00B2F1E04324BFB3F5001CDCF1FE5C0DD982
:1008FC0001F0004C4FEAC0024CEA5070B2F1004FCC
:10090C0040EB830008BF20F00100704711F0804FCE
:10091C0021D113F13872BCBF01F00040704741F493
:10092C0080114FEA5252C2F11802C2F1200C10FA97
:10093C000CF320FA02F018BF40F001004FEAC1237B
:10094C004FEAD32303FA0CFC40EA0C0023FA02F31F
:10095C004FEA4303CCE77FEA625307D150EA0133F5
:10096C001EBF4FF0FE4040F44000704701F00040C5
:10097C0040F0FE4040F40000704700BF80F00040A3
:10098C0002E000BF81F0004142001FBF5FEA41035B
:10099C0092EA030F7FEA226C7FEA236C6AD04FEA5B
:1009AC001262D2EB1363C1BFD218414048404140A0
:1009BC00B8BF5B42192B88BF704710F0004F40F452
:1009CC00000020F07F4018BF404211F0004F41F46E
:1009DC00000121F07F4118BF494292EA030F3FD03A
:1009EC00A2F1010241FA03FC10EB0C00C3F120034D
:1009FC0001FA03F100F0004302D5494260EB4000DC
:100A0C00B0F5000F13D3B0F1807F06D340084FEA46
:100A1C00310102F10102FE2A51D2B1F1004F40EB3B
:100A2C00C25008BF20F0010040EA030070474900A3
:100A3C0040EB0000013A28BFB0F5000FEDD2B0FA40
:100A4C0080FCACF1080CB2EB0C0200FA0CF0AABF63
:100A5C0000EBC25052421843BCBFD0401843704701
:100A6C0092F0000F81F4000106BF80F40000013207
:100A7C00013BB5E74FEA41037FEA226C18BF7FEADE
:100A8C00236C21D092EA030F04D092F0000F08BF20
:100A9C000846704790EA010F1CBF0020704712F007
:100AAC007F4F04D1400028BF40F00040704712F146
:100ABC0000723CBF00F50000704700F0004343F0AB
:100ACC00FE4040F4000070477FEA226216BF0846E1
:100ADC007FEA23630146420206BF5FEA412390EAA4
:100AEC00010F40F4800070474FF0000304E000BF9A
:100AFC0010F0004348BF40425FEA000C08BF70474B
:100B0C0043F0964301464FF000001CE050EA01020E
:100B1C0008BF70474FF000030AE000BF50EA010223
:100B2C0008BF704711F0004302D5404261EB410110
:100B3C005FEA010C02BF84460146002043F0B64335
:100B4C0008BFA3F18053A3F50003BCFA8CF2083A5A
:100B5C00A3EBC25310DB01FA02FC634400FA02FC63
:100B6C00C2F12002BCF1004F20FA02F243EB02006A
:100B7C0008BF20F00100704702F1200201FA02FCCC
:100B8C00C2F1200250EA4C0021FA02F243EB0200BF
:100B9C0008BF20EADC7070474FF0FF0C1CEAD05203
:100BAC001EBF1CEAD15392EA0C0F93EA0C0F6FD0C4
:100BBC001A4480EA010C400218BF5FEA41211ED0A2
:100BCC004FF0006343EA501043EA5111A0FB01318E
:100BDC000CF00040B1F5000F3EBF490041EAD37163
:100BEC005B0040EA010062F17F02FD2A1DD8B3F1DF
:100BFC00004F40EBC25008BF20F00100704790F04E
:100C0C00000F0CF0004C08BF49024CEA502040EA9F
:100C1C0051207F3AC2BFD2F1FF0340EAC250704765
:100C2C0040F400004FF00003013A5DDC12F1190FA3
:100C3C00DCBF00F000407047C2F10002410021FA15
:100C4C0002F1C2F1200200FA02FC5FEA310040F12D
:100C5C00000053EA4C0308BF20EADC70704792F0A6
:100C6C00000F00F0004C02BF400010F4000F013ADE
:100C7C00F9D040EA0C0093F0000F01F0004C02BFD9
:100C8C00490011F4000F013BF9D041EA0C018FE748
:100C9C000CEAD15392EA0C0F18BF93EA0C0F0AD04E
:100CAC0030F0004C18BF31F0004CD8D180EA010074
:100CBC0000F00040704790F0000F17BF90F0004F0D
:100CCC00084691F0000F91F0004F14D092EA0C0FEF
:100CDC0001D142020FD193EA0C0F03D14B0218BF82
:100CEC00084608D180EA010000F0004040F0FE40C8
:100CFC0040F40000704740F0FE4040F44000704764
:100D0C004FF0FF0C1CEAD0521EBF1CEAD15392EAE2
:100D1C000C0F93EA0C0F69D0A2EB030280EA010CD2
:100D2C0049024FEA402037D04FF0805343EA11116B
:100D3C0043EA10130CF000408B4238BF5B0042F1C9
:100D4C007D024FF4000C8B4224BF5B1A40EA0C006E
:100D5C00B3EB510F24BFA3EB510340EA5C00B3EBA0
:100D6C00910F24BFA3EB910340EA9C00B3EBD10F8E
:100D7C0024BFA3EBD10340EADC001B0118BF5FEAE0
:100D8C001C1CE0D1FD2A3FF650AF8B4240EBC25009
:100D9C0008BF20F0010070470CF0004C4CEA5020CA
:100DAC007F32C2BFD2F1FF0340EAC250704740F419
:100DBC0000004FF00003013A37E792F0000F00F00B
:100DCC00004C02BF400010F4000F013AF9D040EA89
:100DDC000C0093F0000F01F0004C02BF490011F41D
:100DEC00000F013BF9D041EA0C0195E70CEAD15315
:100DFC0092EA0C0F08D142027FF47DAF93EA0C0FFC
:100E0C007FF470AF084676E793EA0C0F04D14B02DF
:100E1C003FF44CAF08466EE730F0004C18BF31F091
:100E2C00004CCAD130F000427FF45CAF31F000438B
:100E3C007FF43CAF5FE700BF42000ED2B2F1FE4F31
:100E4C000BD34FF09E03B3EB126209D44FEA00238D
:100E5C0043F0004323FA02F070474FF00000704754
:100E6C0012F1610F01D1420202D14FF0FF307047F5
:100E7C004FF00000704700BF80B586B000AF002374
:100E8C00FB753B1D00221A605A609A60DA604FF4C1
:100E9C0080737B600123BB6002233B610023FB60FA
:100EAC003B1D19462C4801F0BFFC00224FF4807109
:100EBC00294801F054FE142001F084FB01224FF468
:100ECC008071254801F04BFE1E2000F003FD00232D
:100EDC00BB600123FB603B1D19461F4801F0A4FCBD
:100EEC00282000F0F7FC4FF480711B4801F020FE25
:100EFC000346002B0CD1502000F0ECFC4FF4807119
:100F0C00154801F015FE0346002B01D00123FB759B
:100F1C0001F04EFB0346114A136001F049FB0346F6
:100F2C000F4A136004E001F043FB03460C4A1360C4
:100F3C004FF48071084801F0FBFD0346002B06D0EE
:100F4C00064B1B689A1C064B1B689A42EBD8FB7D20
:100F5C0018461837BD4680BD00080140A40000208B
:100F6C00A800002080B582B000AF0023FB7166E0C2
:100F7C0001F01EFB0346364A136001F019FB0346D1
:100F8C00344A136004E001F013FB0346314A13604A
:100F9C004FF48071304801F0CBFD0346002B06D195
:100FAC002B4B1B689A1C2B4B1B689A42EBD82820A6
:100FBC0000F090FC4FF48071274801F0B9FD034616
:100FCC00002B0ED1FB79C3F10703012202FA03F3C4
:100FDC005BB2DB435AB297F9063013405BB2BB717C
:100FEC000BE0FB79C3F10703012202FA03F35AB2B7
:100FFC0097F9063013435BB2BB7101F0D9FA034683
:10100C00134A136001F0D4FA0346124A136004E049
:10101C0001F0CEFA03460F4A13604FF480710E486C
:10102C0001F086FD0346002B06D0094B1B689A1C69
:10103C00084B1B689A42EBD8FB790133FB71FB79A7
:10104C00072B95D9BB7918460837BD4680BD00BF24
:10105C00A4000020A80000200008014090B583B037
:10106C0000AFFFF77FFF03461A46624B1A70FFF77B
:10107C0079FF03461A46604B1A70FFF773FF03465D
:10108C001A465E4B1A70FFF76DFF03461A465C4B0F
:10109C001A70FFF767FF03461A465A4B1A70554BE6
:1010AC001B781A46544B1B781344544A1278134439
:1010BC00534A12781344534A1278934240F0878073
:1010CC004E4B1B781846FFF70FFD04464C4B1B7814
:1010DC001846FFF787F94FF000024B4BFFF716FB52
:1010EC0002460B4610461946FFF7F8FB0346194615
:1010FC002046FFF749FC03461A46444B1A60434B03
:10110C001B6843491846FFF747FD034641491846FB
:10111C00FFF7F6FD03464FF084411846FFF734FC09
:10112C0003461A463C4B1A60324B1B781846FFF7A5
:10113C00DBFC0446304B1B781846FFF753F94FF095
:10114C000002314BFFF7E2FA02460B4610461946F5
:10115C00FFF7C4FB034619462046FFF715FC034670
:10116C001A462E4B1A602C4B1B681846FFF764FE70
:10117C000346DAB22A4B1A70274B1B6829491846CA
:10118C00FFF70AFD03461C46254B1B781A461346EF
:10119C009B0013445B001846FFF7AAFC0346194654
:1011AC002046FFF7EFFB03461846FFF745FE0346C4
:1011BC00DAB21D4B1A701C4B1B78BB70184B1B788A
:1011CC00FB700E4B1B783B700D4B1B787B703B6898
:1011DC007B6000233A7962F307037A7962F30F2379
:1011EC00BA7962F31743FA7962F31F6318460C3726
:1011FC00BD4690BD9C0000209D0000209E0000205C
:10120C009F000020A000002000002440AC00002023
:10121C00000010410000A040B0000020B4000020ED
:10122C00B800002000002041B900002080B584B037
:10123C0000AFBA607B600346FB810B46BB81BA8969
:10124C00FB891146184600F0B9FEBB69002B14BF90
:10125C0001230023DBB21A467968B86800F044FF1A
:10126C0000BF1037BD4680BD80B584B000AFBA60FA
:10127C007B600346FB810B46BB81BA89FB89114617
:10128C00184600F09BFE7B68002B14BF0123002343
:10129C00DBB21A460349B86800F026FF00BF1037CE
:1012AC00BD4680BD0000002080B584B002AF7860E0
:1012BC0039603B68002B08D101230093094B7A68F5
:1012CC0000211420FFF7B2FF07E001230093064B27
:1012DC007A6800211420FFF7A9FF00BF0837BD462C
:1012EC0080BD00BF000000200800002080B590B039
:1012FC0002AF786039607B681B687B633B681B6856
:10130C003B6307F1080328220021184603F0D6F8A6
:10131C00414BBB60414BFB60414B3B61414B7B61A3
:10132C00414BBB61414BFB61414B3B623B6B002B27
:10133C000AD101213F48FFF7B7FF07F1080319460F
:10134C00786B00F07BF861E03B6B012B0ED13B6BB3
:10135C00013B9B0038333B4453F8303C002118468A
:10136C00FFF7A2FF786B00F0B1F84FE03B6B022B5C
:10137C000ED13B6B013B9B0038333B4453F8303C64
:10138C0000211846FFF790FF786B00F005F93DE05F
:10139C003B6B032B11D13B6B013B9B0038333B4424
:1013AC0053F8302C01230093234B00210020FFF72E
:1013BC003DFF786B00F056F928E03B6B042B11D104
:1013CC003B6B013B9B0038333B4453F8302C0123DF
:1013DC000093194B00210020FFF728FF786B00F0D9
:1013EC007DF913E03B6B062B03D1786B00F098F979
:1013FC000CE03B6B013B9B0038333B4453F8303CD7
:10140C0001211846FFF750FF00F094F900F032FD6F
:10141C0000BF3837BD4680BDE44D0008044E0008BF
:10142C00244E0008444E0008644E0008844E000808
:10143C00A44E0008C44E00080000002080B586B001
:10144C0000AF786039607B6803F18043013B9B00FF
:10145C003A6813441B687B617B689B003A681344B1
:10146C001B683B617B6801339B003A6813441B6823
:10147C00FB607B68002B06DD01237A6918210020B4
:10148C00FFF7F2FE05E001230F4A18210020FFF7B9
:10149C00EBFE00233A6924210020FFF7E5FE7B6870
:1014AC00052B06DC0123FA6830210020FFF7DCFE57
:1014BC0005E00123044A30210020FFF7D5FE00BFD0
:1014CC001837BD4680BD00BFE04E000880B582B025
:1014DC0000AF78604FF40051274801F029FB034618
:1014EC00002B01D1254A00E0254A7B68002B04DD46
:1014FC007B68032B01DC012300E000230C2100207E
:10150C00FFF7B2FE4FF480411B4801F011FB03467C
:10151C00002B01D11B4A00E01B4A7B68012B14BF36
:10152C0001230023DBB218210020FFF79DFE4FF4AE
:10153C000041114801F0FCFA0346002B01D1134A7B
:10154C0000E0134A7B68022B14BF01230023DBB29B
:10155C0024210020FFF788FE7B68032B14BF012396
:10156C000023DBB20B4A30210020FFF77DFE00BFC9
:10157C000837BD4680BD00BF00100140F84E000882
:10158C00144F0008304F00084C4F0008684F0008FB
:10159C00844F0008A04F000880B582B000AF78607F
:1015AC000221274801F0C4FA0346002B01D1254A39
:1015BC0000E0254A7B68002B04DD7B68032B01DCF3
:1015CC00012300E000230C210020FFF74DFE4FF417
:1015DC0080411E4801F0ACFA0346002B01D11C4A95
:1015EC0000E01C4A7B68012B14BF01230023DBB2F3
:1015FC0018210020FFF738FE4FF40041134801F08A
:10160C0097FA0346002B01D1134A00E0134A7B687A
:10161C00022B14BF01230023DBB224210020FFF78F
:10162C0023FE7B68032B14BF01230023DBB20C4A7F
:10163C0030210020FFF718FE00BF0837BD4680BDE3
:10164C0000080140A84F0008C44F000800100140DA
:10165C00E04F0008FC4F00081850000834500008F8
:10166C00A04F000880B588B000AF7860FFF704FC8D
:10167C000346002B27D0FFF7F1FC0346FB613B7FB1
:10168C001A467B7F07F10C00114902F01FFF07F18E
:10169C000C0201230C210020FFF7E6FDFB7F1A460C
:1016AC00BB7F07F10C000B4902F010FF07F10C0295
:1016BC00012318210020FFF7D7FD0023064A24211F
:1016CC000020FFF7D1FD00BF2037BD4680BD00BF15
:1016DC005050000860500008A04F000880B582B040
:1016EC0000AF78607B68002B14BF01230023DBB2B2
:1016FC00094A0C210020FFF7B7FD7B68012B14BFB2
:10170C0001230023DBB2054A18210020FFF7ACFDB2
:10171C0000BF0837BD4680BD70500008A04F0008C0
:10172C0080B483B000AF786000BF0C37BD4680BC7E
:10173C007047000080B500AF0123064A2421002029
:10174C00FFF792FD0023044A30210020FFF78CFDA7
:10175C0000BF80BD78500008A04F000880B584B051
:10176C0000AF786039607B681B68FB603B681B6866
:10177C00BB60BB68002B04D1FB685A1C3B681A6029
:10178C001BE0BB68012B04D13968F86800F01AF82B
:10179C0013E0BB68022B04D13968F86800F03EF8FE
:1017AC000BE0BB68042B04D13968F86800F060F8D2
:1017BC0003E03968F86800F07FF8BB68184610370A
:1017CC00BD4680BD80B582B000AF786039607B6863
:1017DC00002B05D14FF400510F4801F0D8F917E058
:1017EC007B68012B05D14FF480410B4801F0CFF9F8
:1017FC000EE07B68022B05D14FF40041064801F046
:10180C00C6F905E07B68032B02D13B6800221A6005
:10181C0000BF0837BD4680BD0010014080B582B0C6
:10182C0000AF786039607B68002B04D102210F482F
:10183C0001F0ADF915E07B68012B04D104210B48B4
:10184C0001F0A5F90DE07B68022B04D108210748B3
:10185C0001F09DF905E07B68032B02D13B68002267
:10186C001A6000BF0837BD4680BD00BF00080140AC
:10187C0080B584B000AF786039607B68002B11D1E3
:10188C000AE04FF400710B4801F081F90A2000F0D6
:10189C0099FEFB680133FB60FB6840F6B83293425B
:1018AC00EFDD02E03B6800221A6000BF1037BD4636
:1018BC0080BD00BF000C014080B483B000AF7860E5
:1018CC0039603B6800221A6000BF0C37BD4680BCF3
:1018DC007047000080B483B000AF0346FB80084B18
:1018EC001B6800225A6200BF054B1B685A6AFB88B2
:1018FC009A42F9D300BF00BF0C37BD4680BC70477D
:10190C001001002080B584B000AF00F0F9FD00F0AC
:10191C006BF800F02DF900F0ADF800F0D9F82E4876
:10192C0002F03EFB00F0E2F910212C4801F000F926
:10193C0003467B602021294801F0FAF803463B60FE
:10194C003B68002B2BD1264B1B68002B17D0244B4C
:10195C001B68012B11D0224B1B68022B0BD0204B88
:10196C001B68032B05D01E4B1B68042B01D10123D4
:10197C0006E0002304E0032302E0032300E0062337
:10198C00FB60184B1B68FA689A4203DA154B00226D
:10199C001A6004E0134B1B680133124A13607B6816
:1019AC00002B0FD100F0C5FB0D490E48FFF7D6FEFA
:1019BC00B860BB68002B02D0BB68013B00E0002381
:1019CC00084A136006490748FFF790FC4FF4FA7079
:1019DC0000F0F8FDA8E700BF10010020000C01404A
:1019EC00580100205C01002080B590B000AF07F1D9
:1019FC00180328220021184602F060FD3B1D00222E
:101A0C001A605A609A60DA601A610123BB614FF464
:101A1C008033FB6100233B620123BB6202237B63A7
:101A2C004FF48033BB634FF4E013FB6307F11803EF
:101A3C00184601F05FFE0346002B01D000F050F970
:101A4C000F237B600223BB600023FB604FF4806399
:101A5C003B6100237B613B1D0221184602F0CCF850
:101A6C000346002B01D000F03BF900BF4037BD46C8
:101A7C0080BD000080B500AF124B134A1A60114BA9
:101A8C00124A5A600F4B00229A600E4B0022DA6009
:101A9C000C4B4FF480421A610A4B00225A61094BDD
:101AAC0000229A61074B0022DA61064B00221A626F
:101ABC00044801F0A7F80346002B01D000F010F900
:101ACC0000BF80BDBC00002000540040801A0600FE
:101ADC0080B586B000AF07F1080300221A605A6087
:101AEC009A60DA603B4600221A605A601E4B1F4A0D
:101AFC001A601D4B47225A601B4B00229A601A4BEE
:101B0C004FF6FF72DA60184B00221A61164B002256
:101B1C005A61154B00229A61134802F0F1F9034601
:101B2C00002B01D000F0DCF84FF48053BB6007F1C0
:101B3C00080319460C4802F07DFA0346002B01D02D
:101B4C0000F0CEF800233B6000237B603B46194637
:101B5C00054802F02BFC0346002B01D000F0C0F826
:101B6C0000BF1837BD4680BD10010020002C01407D
:101B7C0080B588B000AF07F1100300221A605A60DC
:101B8C009A60DA60504B9B694F4A43F010039361A3
:101B9C004D4B9B6903F01003FB60FB684A4B9B6940
:101BAC00494A43F020039361474B9B6903F02003A0
:101BBC00BB60BB68444B9B69434A43F00803936189
:101BCC00414B9B6903F008037B607B683E4B9B6930
:101BDC003D4A43F0040393613B4B9B6903F00403C0
:101BEC003B603B6800224FF46041384800F0B7FF7F
:101BFC0000224FF48771364800F0B1FF00224FF4F9
:101C0C000071344800F0ABFF4FF460433B6101239B
:101C1C007B610023BB610223FB6107F110031946B2
:101C2C002A4800F001FE4FF400633B612A4B7B61B4
:101C3C000023BB6107F110031946264800F0F4FDA0
:101C4C004FF487733B6101237B610023BB6102234B
:101C5C00FB6107F1100319461D4800F0E5FD4FF438
:101C6C0080633B611D4B7B610023BB6107F110035B
:101C7C001946174800F0D8FD38233B6100237B61DF
:101C8C000023BB6107F110031946124800F0CCFD8C
:101C9C004FF400733B6101237B610023BB61022382
:101CAC00FB6107F1100319460A4800F0BDFD002244
:101CBC000021282000F081FD282000F09AFD00BFB3
:101CCC002037BD4680BD00BF00100240001001400F
:101CDC0000080140000C0140000021100000111010
:101CEC0080B400AF72B600BFFEE7000080B582B0D2
:101CFC0000AF00F027FA44F62063012278215B48FC
:101D0C0001F0C2F90346002B01D00023A9E040F6F4
:101D1C00C4137B6002E07B68013B7B607B68002B1B
:101D2C00F9D1AE220021782000F086FA2022002181
:101D3C00782000F081FA10220021782000F07CFA43
:101D4C00B0220021782000F077FAC82200217820F8
:101D5C0000F072FA00220021782000F06DFA1022B7
:101D6C000021782000F068FA40220021782000F051
:101D7C0063FA81220021782000F05EFAFF22002114
:101D8C00782000F059FAA1220021782000F054FAB2
:101D9C00A6220021782000F04FFAA82200217820FA
:101DAC0000F04AFA3F220021782000F045FAA422E4
:101DBC000021782000F040FAD3220021782000F096
:101DCC003BFA00220021782000F036FAD5220021BF
:101DDC00782000F031FAF0220021782000F02CFA63
:101DEC00D9220021782000F027FA22220021782025
:101DFC0000F022FADA220021782000F01DFA1222DB
:101E0C000021782000F018FADB220021782000F065
:101E1C0013FA20220021782000F00EFA8D220021E6
:101E2C00782000F009FA14220021782000F004FA3E
:101E3C00AF220021782000F0FFF92E22002178201B
:101E4C0000F0FAF9002000F043F800F013F8084B0A
:101E5C0000221A80064B00225A80054B01225A712F
:101E6C00012318460837BD4680BD00BFBC000020CA
:101E7C006005002080B582B000AF0023FB711DE02F
:101E8C00FB79503BDBB21A460021782000F0D4F9E4
:101E9C0000220021782000F0CFF9102200217820B8
:101EAC0000F0CAF9FB79DB01084A1A44802340216F
:101EBC00782000F05BF9FB790133FB71FB79072B80
:101ECC00DED900BF00BF0837BD4680BD60010020D1
:101EDC0080B582B000AF0346FB71FB79002B01D1BA
:101EEC00002300E0FF234FF480621946034802F000
:101EFC00E5FA00BF0837BD4680BD00BF6001002079
:101F0C0080B483B000AF0346FB800B46BB80134606
:101F1C00FB70FB887F2B48D8BB883F2B45D8254BC3
:101F2C001B79002B06D0FB78002B0CBF0123002360
:101F3C00DBB2FB70FB78012B1AD1FA88BB88DB086B
:101F4C0098B20346DB0113441B4AD35C5AB2BB88DC
:101F5C0003F00703012101FA03F35BB2134359B2F7
:101F6C00FA880346DB011344C9B2134AD1541DE06D
:101F7C00FA88BB88DB0898B20346DB0113440E4A8F
:101F8C00D35C5AB2BB8803F00703012101FA03F3B7
:101F9C005BB2DB435BB2134059B2FA880346DB01F8
:101FAC001344C9B2044AD15400E000BF0C37BD46FB
:101FBC0080BC7047600500206001002080B483B0B5
:101FCC0000AF03460A46FB801346BB80054AFB88DC
:101FDC001380044ABB88538000BF0C37BD4680BCBD
:101FEC00704700BF6005002080B586B000AF034687
:101FFC003960FB711346BB713A4B1B881A463B6820
:10200C001B7813447F2B07DC364B5B881A463B68E6
:10201C005B7813443F2B01DD00235EE000237B61E2
:10202C004BE03B685A68FB79203B3968497801FBE7
:10203C0003F319467B690B445B0013441B88FB605C
:10204C0000233B6130E0FA683B6902FA03F303F4C6
:10205C000043002B10D0234B1A883B699BB21344CE
:10206C0098B2204B5A887B699BB213449BB2BA79C5
:10207C001946FFF745FF14E01A4B1A883B699BB2CF
:10208C00134498B2174B5A887B699BB2134499B28C
:10209C00BB79002B0CBF01230023DBB21A46FFF7E0
:1020AC002FFF3B6901333B613B681B781A463B6948
:1020BC009342C8D37B6901337B613B685B781A46DA
:1020CC007B699342ADD3074B1A883B681B789BB254
:1020DC0013449AB2034B1A80FB7918461837BD4645
:1020EC0080BD00BF6005002080B584B000AFF860F3
:1020FC00B9601346FB7112E0FB681B78FA79B9687A
:10210C001846FFF771FF03461A46FB681B789A4284
:10211C0002D0FB681B7808E0FB680133FB60FB68AE
:10212C001B78002BE8D1FB681B7818461037BD468E
:10213C0080BD80B500AF0020FFF7CAFEFFF79AFE06
:10214C0000BF80BD80B483B000AF074B7B6002E062
:10215C007B68013B7B607B68002BF9D100BF00BF23
:10216C000C37BD4680BC704790D0030090B5C7B00B
:10217C0002AF0446084607F58871A1F588710A601C
:10218C00194607F58873A3F2091322461A7007F54E
:10219C008873A3F5857302461A7007F58873A3F547
:1021AC0086730A461A8007F58873A3F5827307F5C0
:1021BC008872A2F5857212781A70002387F80F3195
:1021CC0015E097F80F3107F58872A2F5887212683E
:1021DC001A4497F80F310133117807F58872A2F57C
:1021EC008272D15497F80F31013387F80F3197F879
:1021FC000F319BB207F58872A2F5867212889A424B
:10220C00DFD807F58873A3F209131B7899B207F589
:10221C008873A3F586731B8801339BB207F10C02FC
:10222C000A200090034800F031FE00BF07F58A77C2
:10223C00BD4690BDBC00002080B586B002AF034601
:10224C00FB710B46BB7113467B71BB793B737B797E
:10225C007B73FB7999B207F10C020A2300930223DA
:10226C00034800F013FE00BF1037BD4680BD00BF11
:10227C00BC00002080B485B000AF154B9B69144A9C
:10228C0043F001039361124B9B6903F00103BB60A4
:10229C00BB680F4BDB690E4A43F08053D3610C4B88
:1022AC00DB6903F080537B607B680A4B5B68FB60E7
:1022BC00FB6823F0E063FB60FB6843F00073FB609A
:1022CC00044AFB68536000BF1437BD4680BC70479E
:1022DC00001002400000014080B588B000AF78606B
:1022EC0007F1100300221A605A609A60DA607B686A
:1022FC001B68154A934223D1144B9B69134A43F034
:10230C0008039361114B9B6903F00803FB60FB68A6
:10231C00C0233B6112237B610323FB6107F1100394
:10232C0019460B4800F080FA084BDB69074A43F466
:10233C000013D361054BDB6903F40013BB60BB686E
:10234C0000BF2037BD4680BD005400400010024045
:10235C00000C014080B588B000AF786007F1100325
:10236C0000221A605A609A60DA607B681B68164A11
:10237C00934224D1154B9B69144A43F40063936137
:10238C00124B9B6903F40063FB60FB680F4B9B696A
:10239C000E4A43F0040393610C4B9B6903F0040356
:1023AC00BB60BB684FF400733B6100237B6100236F
:1023BC00BB6107F110031946054800F035FA00BF60
:1023CC002037BD4680BD00BF002C014000100240EC
:1023DC000008014080B400AFFEE780B400AFFEE718
:1023EC0080B400AFFEE780B400AFFEE780B400AF6E
:1023FC00FEE780B400AF00BFBD4680BC704780B420
:10240C0000AF00BFBD4680BC704780B400AF00BFBA
:10241C00BD4680BC704780B500AF00F0B7F800BF78
:10242C0080BD80B500AF4FF4806000F0C9FB4FF465
:10243C00006000F0C5FB00BF80BD000080B586B019
:10244C0000AF7860144A154BD31A7B617B693B61F2
:10245C00134B1B68002B02D1114B124A1A60104B04
:10246C001A687B6813443A699A4207D201F0FCFF60
:10247C0003460C221A604FF0FF3309E0084B1B682F
:10248C00FB60074B1A687B681344054A1360FB68B2
:10249C0018461837BD4680BD0050002000040000CF
:1024AC00680500208005002080B400AF00BFBD4649
:1024BC0080BC70470C480D490D4A002302E0D458EB
:1024CC00C4500433C4188C42F9D30A4A0A4C002372
:1024DC0001E013600432A242FBD3FFF7E5FF01F0E9
:1024EC00C9FFFFF70FFA70470000002080000020A2
:1024FC00C46500088000002080050020FEE7000075
:10250C0080B500AF084B1B68074A43F010031360FB
:10251C00032000F047F90F2000F008F8FFF7AAFE9F
:10252C000023184680BD00BF0020024080B582B059
:10253C0000AF7860124B1A68124B1B7819464FF497
:10254C007A73B3FBF1F3B2FBF3F3184600F05FF9C7
:10255C000346002B01D001230EE07B680F2B0AD819
:10256C00002279684FF0FF3000F027F9064A7B68AB
:10257C001360002300E0012318460837BD4680BDD8
:10258C0010000020180000201400002080B400AFC0
:10259C00054B1B781A46054B1B681344034A136002
:1025AC0000BFBD4680BC7047180000206C050020A1
:1025BC0080B400AF024B1B681846BD4680BC704708
:1025CC006C05002080B584B000AF7860FFF7F0FF99
:1025DC00B8607B68FB60FB68B3F1FF3F05D00A4B2A
:1025EC001B781A46FB681344FB6000BFFFF7E0FF43
:1025FC000246BB68D31AFA689A42F7D800BF00BFEC
:10260C001037BD4680BD00BF1800002080B485B0D7
:10261C0000AF78607B6803F00703FB600C4BDB6852
:10262C00BB60BA684FF6FF031340BB60FB681A022D
:10263C00BB68134343F0BF6343F40033BB60044AED
:10264C00BB68D36000BF1437BD4680BC704700BF69
:10265C0000ED00E080B400AF044BDB681B0A03F014
:10266C0007031846BD4680BC704700BF00ED00E074
:10267C0080B483B000AF0346FB7197F90730002B91
:10268C000BDBFB7903F01F02064997F907305B0956
:10269C00012000FA02F241F8232000BF0C37BD469E
:1026AC0080BC704700E100E080B483B000AF03460B
:1026BC003960FB7197F90730002B0ADB3B68DAB203
:1026CC000C4997F907301201D2B20B4483F800235E
:1026DC000AE03B68DAB20849FB7903F00F03043BCC
:1026EC001201D2B20B441A7600BF0C37BD4680BC27
:1026FC00704700BF00E100E000ED00E080B489B05D
:10270C0000AFF860B9607A60FB6803F00703FB6107
:10271C00FB69C3F10703042B28BF0423BB61FB69CE
:10272C000433062B02D9FB69033B00E000237B61D9
:10273C004FF0FF32BB6902FA03F3DA43BB681A406D
:10274C007B699A404FF0FF317B6901FA03F3D9435F
:10275C007B680B40134318462437BD4680BC70473A
:10276C0080B582B000AF78607B68013BB3F1807FAD
:10277C0001D301230FE00A4A7B68013B53600F2110
:10278C004FF0FF30FFF790FF054B00229A60044B8F
:10279C0007221A60002318460837BD4680BD00BFCB
:1027AC0010E000E080B582B000AF78607868FFF789
:1027BC002DFF00BF0837BD4680BD80B586B000AF89
:1027CC000346B9607A60FB7300237B61FFF742FF1D
:1027DC0078617A68B9687869FFF790FF024697F9D3
:1027EC000F3011461846FFF75FFF00BF1837BD4684
:1027FC0080BD80B582B000AF0346FB7197F90730FE
:10280C001846FFF735FF00BF0837BD4680BD80B5C1
:10281C0082B000AF78607868FFF7A2FF03461846D5
:10282C000837BD4680BD000080B48BB000AF786027
:10283C00396000237B6200233B6269E101227B6AE1
:10284C0002FA03F3FB613B681B68FA691340BB6136
:10285C00BA69FB699A4240F058813B685B689A4AB6
:10286C0093425ED0984A934275D8984A934258D076
:10287C00964A93426FD8964A934252D0944A9342C6
:10288C0069D8944A93424CD0924A934263D8924A64
:10289C00934246D0904A93425DD8122B2AD8122BE1
:1028AC0059D801A252F823F02F2900080929000851
:1028BC001B2900085D29000863290008632900080A
:1028CC0063290008632900086329000863290008AC
:1028DC00632900086329000863290008632900089C
:1028EC0063290008632900086329000811290008DE
:1028FC0025290008794A934213D02CE03B68DB6809
:10290C003B6229E03B68DB6804333B6224E03B68B4
:10291C00DB6808333B621FE03B68DB680C333B62CF
:10292C001AE03B689B68002B02D104233B6213E046
:10293C003B689B68012B05D108233B627B68FA69D5
:10294C001A6109E008233B627B68FA695A6103E06B
:10295C0000233B6200E000BFBB69FF2B01D87B6802
:10296C0001E07B6804337B61BB69FF2B02D87B6A77
:10297C009B0002E07B6A083B9B003B617B691A6809
:10298C000F213B6901FA03F3DB431A40396A3B69B7
:10299C0001FA03F31A437B691A603B685B6803F026
:1029AC008053002B00F0B1804D4B9B694C4A43F097
:1029BC00010393614A4B9B6903F00103BB60BB6845
:1029CC00484A7B6A9B08023352F82330FB607B6ACF
:1029DC0003F003039B000F2202FA03F3DB43FA68B4
:1029EC001340FB607B68404A934213D07B683F4A9C
:1029FC0093420DD07B683E4A934207D07B683D4A98
:102A0C00934201D1032306E0042304E0022302E0F5
:102A1C00012300E000237A6A02F003029200934043
:102A2C00FA681343FB602F497B6A9B080233FA68F0
:102A3C0041F823203B685B6803F48033002B06D0FD
:102A4C002D4B1A682C49BB6913430B6006E02A4BCB
:102A5C001A68BB69DB43284913400B603B685B6811
:102A6C0003F40033002B06D0234B5A682249BB6970
:102A7C0013434B6006E0204B5A68BB69DB431E498D
:102A8C0013404B603B685B6803F48013002B06D04B
:102A9C00194B9A681849BB6913438B6006E0164BB7
:102AAC009A68BB69DB43144913408B603B685B68D5
:102ABC0003F40013002B21D00F4BDA680E49BB69CD
:102ACC001343CB6021E000BF000032100000311036
:102ADC000000221000002110000012100000111044
:102AEC00001002400000014000080140000C0140B1
:102AFC000010014000140140000401400B4BDA6847
:102B0C00BB69DB4309491340CB607B6A01337B62B1
:102B1C003B681A687B6A22FA03F3002B7FF48EAEB3
:102B2C0000BF00BF2C37BD4680BC7047000401407D
:102B3C0080B485B000AF78600B467B807B689A6868
:102B4C007B881340002B02D00123FB7301E0002390
:102B5C00FB73FB7B18461437BD4680BC704780B4B2
:102B6C0083B000AF78600B467B8013467B707B781C
:102B7C00002B03D07A887B681A6103E07B881A04E7
:102B8C007B681A6100BF0C37BD4680BC704780B4AF
:102B9C0085B000AF78600B467B807B68DB68FB60A0
:102BAC007A88FB6813401A04FB68D9437B880B4076
:102BBC001A437B681A6100BF1437BD4680BC70474E
:102BCC0080B582B000AF0346FB80084B5A69FB8886
:102BDC001340002B06D0054AFB885361FB8818462E
:102BEC0000F006F800BF0837BD4680BD0004014068
:102BFC0080B483B000AF0346FB8000BF0C37BD46EA
:102C0C0080BC704780B584B000AF78607B68002BC7
:102C1C0001D101232BE17B6893F83D30DBB2002B13
:102C2C0006D17B68002283F83C207868FFF754FBC0
:102C3C007B68242283F83D207B681B681A687B68BC
:102C4C001B6822F001021A607B681B681A687B689B
:102C5C001B6842F400421A607B681B681A687B6828
:102C6C001B6822F400421A6001F018F9F8607B68C6
:102C7C005B68814A934207D8FB68804A934294BFB1
:102C8C0001230023DBB206E0FB687D4A934294BF2C
:102C9C0001230023DBB2002B01D00123E7E0FB680A
:102CAC00784AA2FB03239B0CBB607B681B685B68A8
:102CBC0023F03F017B681B68BA680A435A607B6843
:102CCC001B681B6A23F03F017B685B686A4A93426E
:102CDC0002D8BB68013309E0BB684FF4967202FB63
:102CEC0003F3694AA2FB03239B0901337A68126838
:102CFC000B4313627B681B68DB6923F44F4222F0A1
:102D0C00FF027B685B685C498B4219D8FB68591ED3
:102D1C007B685B685B00B1FBF3F3591C40F6FC73FA
:102D2C000B40002B0AD0FB68591E7B685B685B006C
:102D3C00B1FBF3F30133C3F30B0351E004234FE076
:102D4C007B689B68002B11D1FB68581E7B68596807
:102D5C000B465B000B44B0FBF3F30133C3F30B03E3
:102D6C00002B0CBF01230023DBB212E0FB68581EC2
:102D7C007B6859680B469B000B4499000B44B0FBD5
:102D8C00F3F30133C3F30B03002B0CBF012300231C
:102D9C00DBB2002B01D0012322E07B689B68002B67
:102DAC000ED1FB68581E7B6859680B465B000B44C0
:102DBC00B0FBF3F30133C3F30B0343F400430FE015
:102DCC00FB68581E7B6859680B469B000B449900A6
:102DDC000B44B0FBF3F30133C3F30B0343F4404355
:102DEC00796809681343CB617B681B681B6823F007
:102DFC00C0017B68DA697B681B6A1A437B681B68B5
:102E0C000A431A607B681B689B6823F4034323F016
:102E1C00FF037A6811697A68D26811437A6812687C
:102E2C000B4393607B681B68DB6823F0FF017B68B6
:102E3C005A697B689B691A437B681B680A43DA6092
:102E4C007B681B681A687B681B6842F001021A6079
:102E5C007B6800221A647B68202283F83D207B6803
:102E6C0000221A637B68002283F83E200023184658
:102E7C001037BD4680BD00BFA08601007F841E00B8
:102E8C00FF083D0083DE1B43D34D621080B588B034
:102E9C0002AFF8607A601A460B467B8113463B8181
:102EAC00FFF786FB7861FB6893F83D30DBB2202B93
:102EBC0040F0E0807B690093192301227049F86887
:102ECC0000F092FA0346002B01D00223D3E0FB68FA
:102EDC0093F83C30012B01D10223CCE0FB6801229A
:102EEC0083F83C20FB681B681B6803F00103012B73
:102EFC0007D0FB681B681A68FB681B6842F001026C
:102F0C001A60FB681B681A68FB681B6822F4006275
:102F1C001A60FB68212283F83D20FB68102283F89D
:102F2C003E20FB6800221A64FB687A685A62FB68D0
:102F3C003A895A85FB685B8D9AB2FB681A85FB68E7
:102F4C00504ADA6279897B693A6AF86800F0CAF902
:102F5C000346002B01D001238DE000233B61FB686D
:102F6C001B685B693B61FB681B689B693B613B6948
:102F7C0066E07A69396AF86800F00CFB0346002BAE
:102F8C000DD0FB681B6C042B07D1FB681B681A68FF
:102F9C00FB681B6842F400721A6001236BE0FB684B
:102FAC005B6A1A78FB681B681A61FB685B6A5A1CBF
:102FBC00FB685A62FB685B8D9BB2013B9AB2FB6863
:102FCC005A85FB681B8D013B9AB2FB681A85FB681E
:102FDC001B685B6903F00403042B1BD1FB681B8D7E
:102FEC00002B17D0FB685B6A1A78FB681B681A61A8
:102FFC00FB685B6A5A1CFB685A62FB685B8D9BB270
:10300C00013B9AB2FB685A85FB681B8D013B9AB257
:10301C00FB681A857A69396AF86800F0FCFA03468D
:10302C00002B0DD0FB681B6C042B07D1FB681B68B5
:10303C001A68FB681B6842F400721A6001231AE0DC
:10304C00FB681B8D002B94D1FB681B681A68FB680E
:10305C001B6842F400721A60FB68202283F83D2042
:10306C00FB68002283F83E20FB68002283F83C209A
:10307C00002300E0022318461837BD4680BD00BF70
:10308C00020010000000FFFF80B58AB002AFF860AC
:10309C007A603B600B467B81FFF78AFAF86101236B
:1030AC00BB61FB6893F83D30DBB2202B40F0118103
:1030BC00FB690093192301228849F86800F094F900
:1030CC000346002B01D0022304E1FB6893F83C304B
:1030DC00012B01D10223FDE0FB68012283F83C2087
:1030EC00FB681B681B6803F00103012B07D0FB680E
:1030FC001B681A68FB681B6842F001021A60FB68C7
:10310C001B681A68FB681B6822F400621A60FB6873
:10311C00242283F83D20FB6800221A64FB68704A65
:10312C00DA62FB681B681A68FB681B6842F48072E1
:10313C001A60FB6900933B6800224FF00111F8689C
:10314C0000F052F90346002B0DD0FB681B681B687E
:10315C0003F48073B3F5807F03D1FB684FF40072E6
:10316C001A640323B6E07B89DBB21A46FB681B6842
:10317C0002F0FE021A61FFF71BFAF861FB681B688C
:10318C005B6903F00203022B0CBF01230023DBB2AB
:10319C00FB75FB681B685B6903F48063B3F5806F98
:1031AC000CBF01230023DBB2BB7525E0FFF700FA4F
:1031BC000246FB69D31A3A689A4202D33B68002B49
:1031CC0003D1FB68A02283F83D20FB681B685B6978
:1031DC0003F00203022B0CBF01230023DBB2FB75AF
:1031EC00FB681B685B6903F48063B3F5806F0CBFED
:1031FC0001230023DBB2BB75FB6893F83D30DBB2D7
:10320C00A02B05D0FB7D002B02D1BB7D002BCDD09C
:10321C00FB68202283F83D20FB681B685B6903F088
:10322C000203022B29D1FB681B681A68FB681B6818
:10323C0042F400721A6000233B61FB681B685B69F7
:10324C003B61FB681B689B693B613B69FB690093B5
:10325C00192301222149F86800F0C6F80346002B17
:10326C0001D0012336E0FB68202283F83D20FB6867
:10327C00002283F83C2000232CE0FB681B681A68B2
:10328C00FB681B6842F400721A60FB681B686FF4E1
:10329C0080625A61FB690093192301220F49F86877
:1032AC0000F0A2F80346002B01D0012312E0BB6909
:1032BC000133BB61BA697B689A42FFF432AFFB6899
:1032CC00202283F83D20FB68002283F83C20012358
:1032DC0000E0022318462037BD4680BD02001000D6
:1032EC000000FFFF80B588B002AFF8607A603B60E9
:1032FC000B467B81FB68DB6A7B617B69082B06D004
:10330C007B69012B03D07B6913F5803F08D1FB68E7
:10331C001B681A68FB681B6842F480721A600BE029
:10332C00FB681B6B122B07D1FB681B681A68FB68C8
:10333C001B6842F480721A603B6800937B68002221
:10334C004FF00111F86800F04FF80346002B0DD038
:10335C00FB681B681B6803F48073B3F5807F03D193
:10336C00FB684FF400721A64032335E0FB681B6999
:10337C00B3F5804F08D17B89DBB21A46FB681B681A
:10338C0002F0FE021A611BE07B89DB11DBB203F059
:10339C000603DBB263F00F03DAB2FB681B681A6139
:1033AC003B687A680E49F86800F075F80346002B04
:1033BC0001D0012310E07B89DAB2FB681B681A612B
:1033CC003B687A680749F86800F065F80346002BFB
:1033DC0001D0012300E0002318461837BD4680BDFC
:1033EC00080001000200010080B584B000AFF86055
:1033FC00B9603B601346FB7125E03B68B3F1FF3FBE
:10340C0021D0FFF7D5F80246BB69D31A3A689A4225
:10341C0002D33B68002B16D1FB6800221A63FB68B1
:10342C00202283F83D20FB68002283F83E20FB68B5
:10343C001B6C43F02002FB681A64FB68002283F8C3
:10344C003C20012323E0BB681B0CDBB2012B0DD10C
:10345C00FB681B685B69DA43BB6813409BB2002BAB
:10346C000CBF01230023DBB21A460CE0FB681B687F
:10347C009B69DA43BB6813409BB2002B0CBF012342
:10348C000023DBB21A46FB799A42B6D000231846C9
:10349C001037BD4680BD80B584B000AFF860B96010
:1034AC007A603B6051E0FB681B685B6903F48063E6
:1034BC00B3F5806F23D1FB681B681A68FB681B6827
:1034CC0042F400721A60FB681B686FF480625A61E8
:1034DC00FB6800221A63FB68202283F83D20FB68FE
:1034EC00002283F83E20FB681B6C43F00402FB684F
:1034FC001A64FB68002283F83C20012346E07B68B9
:10350C00B3F1FF3F21D0FFF753F802463B68D31AC3
:10351C007A689A4202D37B68002B16D1FB68002292
:10352C001A63FB68202283F83D20FB68002283F895
:10353C003E20FB681B6C43F02002FB681A64FB689E
:10354C00002283F83C20012320E0BB681B0CDBB27B
:10355C00012B0CD1FB681B685B69DA43BB68134019
:10356C009BB2002B14BF01230023DBB20BE0FB68E2
:10357C001B689B69DA43BB6813409BB2002B14BFDA
:10358C0001230023DBB2002B8DD10023184610370A
:10359C00BD4680BD80B584B000AFF860B9607A607C
:1035AC002DE0F86800F078F80346002B01D00123D9
:1035BC002DE0BB68B3F1FF3F21D0FEF7F9FF0246C7
:1035CC007B68D31ABA689A4202D3BB68002B16D117
:1035DC00FB6800221A63FB68202283F83D20FB68FD
:1035EC00002283F83E20FB681B6C43F02002FB6832
:1035FC001A64FB68002283F83C20012307E0FB6877
:10360C001B685B6903F08003802BCAD1002318462A
:10361C001037BD4680BD80B584B000AFF860B9608E
:10362C007A602DE0F86800F037F80346002B01D0E3
:10363C0001232DE0BB68B3F1FF3F21D0FEF7B8FFAB
:10364C0002467B68D31ABA689A4202D3BB68002B35
:10365C0016D1FB6800221A63FB68202283F83D20F8
:10366C00FB68002283F83E20FB681B6C43F02002B1
:10367C00FB681A64FB68002283F83C20012307E0F6
:10368C00FB681B685B6903F00403042BCAD100239D
:10369C0018461037BD4680BD80B483B000AF78604B
:1036AC007B681B685B6903F48063B3F5806F1BD187
:1036BC007B681B686FF480625A617B6800221A6316
:1036CC007B68202283F83D207B68002283F83E2013
:1036DC007B681B6C43F004027B681A647B680022D5
:1036EC0083F83C20012300E0002318460C37BD462C
:1036FC0080BC704780B586B000AF78607B68002BCB
:10370C0001D1012372E27B681B6803F00103002BDB
:10371C0000F08780924B5B6803F00C03042B0CD0F9
:10372C008F4B5B6803F00C03082B12D18C4B5B683E
:10373C0003F48033B3F5803F0BD1894B1B6803F442
:10374C000033002B6CD07B685B68002B68D10123A5
:10375C004CE27B685B68B3F5803F06D1804B1B68FD
:10376C007F4A43F4803313602EE07B685B68002B48
:10377C000CD17B4B1B687A4A23F480331360784B53
:10378C001B68774A23F4802313601DE07B685B6819
:10379C00B3F5A02F0CD1724B1B68714A43F48023F4
:1037AC0013606F4B1B686E4A43F4803313600BE05D
:1037BC006B4B1B686A4A23F480331360684B1B689D
:1037CC00674A23F4802313607B685B68002B13D05B
:1037DC00FEF7EEFE386108E0FEF7EAFE02463B69B2
:1037EC00D31A642B01D9032300E25D4B1B6803F44D
:1037FC000033002BF0D014E0FEF7DAFE386108E05D
:10380C00FEF7D6FE02463B69D31A642B01D903237B
:10381C00ECE1534B1B6803F40033002BF0D100E0B8
:10382C0000BF7B681B6803F00203002B63D04C4B7A
:10383C005B6803F00C03002B0BD0494B5B6803F067
:10384C000C03082B1CD1464B5B6803F48033002B14
:10385C0016D1434B1B6803F00203002B05D07B6889
:10386C001B69012B01D00123C0E13D4B1B6823F0E8
:10387C00F8027B685B69DB00394913430B603AE063
:10388C007B681B69002B20D0364B01221A60FEF797
:10389C008FFE386108E0FEF78BFE02463B69D31AB7
:1038AC00022B01D90323A1E12D4B1B6803F002036A
:1038BC00002BF0D02A4B1B6823F0F8027B685B6965
:1038CC00DB00274913430B6015E0264B00221A60DE
:1038DC00FEF76EFE386108E0FEF76AFE02463B69B1
:1038EC00D31A022B01D9032380E11D4B1B6803F073
:1038FC000203002BF0D17B681B6803F00803002B3C
:10390C003AD07B689B69002B19D0174B01221A60A7
:10391C00FEF74EFE386108E0FEF74AFE02463B69B0
:10392C00D31A022B01D9032360E10D4B5B6A03F020
:10393C000203002BF0D0012000F0C4FA1CE00A4B6B
:10394C0000221A60FEF734FE38610FE0FEF730FEFD
:10395C0002463B69D31A022B08D9032346E100BF68
:10396C00001002400000424280044242924B5B6ACB
:10397C0003F00203002BE9D17B681B6803F00403FE
:10398C00002B00F0A6800023FB758B4BDB6903F04A
:10399C008053002B0DD1884BDB69874A43F0805351
:1039AC00D361854BDB6903F08053BB60BB6801239B
:1039BC00FB75824B1B6803F48073002B18D17F4B73
:1039CC001B687E4A43F480731360FEF7F1FD386187
:1039DC0008E0FEF7EDFD02463B69D31A642B01D9D2
:1039EC00032303E1754B1B6803F48073002BF0D0A9
:1039FC007B68DB68012B06D16F4B1B6A6E4A43F068
:103A0C00010313622DE07B68DB68002B0CD16A4B41
:103A1C001B6A694A23F001031362674B1B6A664AEF
:103A2C0023F0040313621CE07B68DB68052B0CD1CC
:103A3C00614B1B6A604A43F0040313625E4B1B6AC2
:103A4C005D4A43F0010313620BE05B4B1B6A5A4A5D
:103A5C0023F001031362584B1B6A574A23F00403EB
:103A6C0013627B68DB68002B15D0FEF7A1FD386173
:103A7C000AE0FEF79DFD02463B69D31A41F28832FB
:103A8C00934201D90323B1E04B4B1B6A03F00203B1
:103A9C00002BEED014E0FEF78BFD38610AE0FEF748
:103AAC0087FD02463B69D31A41F28832934201D911
:103ABC0003239BE0404B1B6A03F00203002BEED167
:103ACC00FB7D012B05D13C4BDB693B4A23F080533A
:103ADC00D3617B68DB69002B00F08780364B5B6819
:103AEC0003F00C03082B61D07B68DB69022B46D1F9
:103AFC00334B00221A60FEF75BFD386108E0FEF7DD
:103B0C0057FD02463B69D31A022B01D903236DE002
:103B1C00294B1B6803F00073002BF0D17B681B6AE8
:103B2C00B3F5803F08D1244B5B6823F400327B68EB
:103B3C009B68214913434B601F4B5B6823F4741241
:103B4C007B68196A7B685B6A0B431B4913434B60A8
:103B5C001B4B01221A60FEF72BFD386108E0FEF7C3
:103B6C0027FD02463B69D31A022B01D903233DE002
:103B7C00114B1B6803F00073002BF0D035E0104B99
:103B8C0000221A60FEF714FD386108E0FEF710FD04
:103B9C0002463B69D31A022B01D9032326E0064BBC
:103BAC001B6803F00073002BF0D11EE07B68DB690F
:103BBC00012B07D1012319E00010024000700040D6
:103BCC00600042420B4B5B68FB60FB6803F4803285
:103BDC007B681B6A9A4206D1FB6803F470127B68FF
:103BEC005B6A9A4201D0012300E000231846183783
:103BFC00BD4680BD0010024080B584B000AF786037
:103C0C0039607B68002B01D10123D0E06A4B1B6823
:103C1C0003F007033A689A4210D9674B1B6823F0EC
:103C2C00070265493B6813430B60634B1B6803F049
:103C3C0007033A689A4201D00123B8E07B681B68FD
:103C4C0003F00203002B20D07B681B6803F00403F5
:103C5C00002B05D0594B5B68584A43F4E063536022
:103C6C007B681B6803F00803002B05D0534B5B6883
:103C7C00524A43F460535360504B5B6823F0F0029C
:103C8C007B689B684D4913434B607B681B6803F052
:103C9C000103002B40D07B685B68012B07D1474B9D
:103CAC001B6803F40033002B15D101237FE07B68E4
:103CBC005B68022B07D1414B1B6803F00073002B90
:103CCC0009D1012373E03D4B1B6803F00203002B69
:103CDC0001D101236BE0394B5B6823F003027B6855
:103CEC005B68364913434B60FEF762FCF8600AE0F0
:103CFC00FEF75EFC0246FB68D31A41F2883293420F
:103D0C0001D9032353E02D4B5B6803F00C027B6855
:103D1C005B689B009A42EBD1274B1B6803F00703AF
:103D2C003A689A4210D2244B1B6823F007022249AE
:103D3C003B6813430B60204B1B6803F007033A6886
:103D4C009A4201D0012332E07B681B6803F0040324
:103D5C00002B08D0194B5B6823F4E0627B68DB68AE
:103D6C00164913434B607B681B6803F00803002B58
:103D7C0009D0124B5B6823F460527B681B69DB0033
:103D8C000E4913434B6000F021F802460B4B5B6865
:103D9C001B0903F00F030A49CB5C22FA03F3094A0F
:103DAC001360094B1B681846FEF7C0FB002318462E
:103DBC001037BD4680BD00BF0020024000100240FD
:103DCC0070650008100000201400002090B48AB028
:103DDC0000AF294B3C1D0FCB84E80F0040F20123B0
:103DEC003B800023FB610023BB6100237B6200232B
:103DFC007B6100233B62214B5B68FB61FB6903F039
:103E0C000C03042B02D0082B03D02BE01C4B3B6281
:103E1C002BE0FB699B0C03F00F0328333B4413F896
:103E2C00243C7B61FB6903F48033002B12D0134BD1
:103E3C005B685B0C03F0010328333B4413F8283C0C
:103E4C00BB617B690E4A03FB02F2BB69B2FBF3F365
:103E5C007B6204E07B690B4A02FB03F37B627B6AA7
:103E6C003B6202E0064B3B6200BF3B6A18462837B8
:103E7C00BD4690BC704700BF98500008001002402F
:103E8C0000127A0000093D0080B400AF024B1B68A1
:103E9C001846BD4680BC70471000002080B500AFAE
:103EAC00FFF7F2FF0246054B5B681B0A03F00703A2
:103EBC000349CB5C22FA03F3184680BD0010024084
:103ECC008065000880B485B000AF78600A4B1B6831
:103EDC000A4AA2FB03235B0A7A6802FB03F3FB602A
:103EEC0000BFFB685A1EFA60002BF9D100BF00BF5F
:103EFC001437BD4680BC704710000020D34D6210B3
:103F0C0080B582B000AF78607B68002B01D10123B3
:103F1C0041E07B6893F83D30DBB2002B06D17B6827
:103F2C00002283F83C207868FEF714FA7B680222A2
:103F3C0083F83D207B681A687B6804331946104669
:103F4C0000F03CF97B68012283F846207B68012253
:103F5C0083F83E207B68012283F83F207B68012296
:103F6C0083F840207B68012283F841207B68012282
:103F7C0083F842207B68012283F843207B6801226E
:103F8C0083F844207B68012283F845207B6801225A
:103F9C0083F83D20002318460837BD4680BD00003D
:103FAC0080B485B000AF78607B6893F83D30DBB2AD
:103FBC00012B01D0012332E07B68022283F83D20E3
:103FCC007B681B68184A93420ED07B681B68B3F160
:103FDC00804F09D07B681B68144A934204D07B68DD
:103FEC001B68134A934211D17B681B689B6803F0D2
:103FFC000703FB60FB68062B10D07B681B681A68F4
:10400C007B681B6842F001021A6007E07B681B6842
:10401C001A687B681B6842F001021A60002318467C
:10402C001437BD4680BC7047002C01400004004092
:10403C000008004080B584B000AF786039607B68C0
:10404C0093F83C30012B01D10223B3E07B680122B1
:10405C0083F83C207B68022283F83D207B681B6838
:10406C009B68FB60FB6823F07703FB60FB6823F421
:10407C007F43FB607B681B68FA689A603B681B682F
:10408C00B3F5005F3ED0B3F5005F00F28780B3F567
:10409C00805F00F08580B3F5805F7FD8702B1AD0DD
:1040AC00702B7BD8602B50D0602B77D8502B3CD00A
:1040BC00502B73D8402B58D0402B6FD8302B64D05A
:1040CC00302B6BD8202B60D0202B67D8002B5CD0EA
:1040DC00102B5AD062E07B6818683B6899683B6883
:1040EC005A683B68DB6800F042F97B681B689B6888
:1040FC00FB60FB6843F07703FB607B681B68FA6826
:10410C009A604EE07B6818683B6899683B685A680F
:10411C003B68DB6800F02BF97B681B689A687B684E
:10412C001B6842F480429A603BE07B6818683B68ED
:10413C0059683B68DB681A4600F0A2F87B681B687C
:10414C005021184600F0F9F82BE07B6818683B68A2
:10415C0059683B68DB681A4600F0C0F87B681B683E
:10416C006021184600F0E9F81BE07B6818683B6892
:10417C0059683B68DB681A4600F082F87B681B685C
:10418C004021184600F0D9F80BE07B681A683B68B0
:10419C001B681946104600F0D0F802E000BF00E0A2
:1041AC0000BF7B68012283F83D207B68002283F8E6
:1041BC003C20002318461037BD4680BD80B485B026
:1041CC0000AF786039607B681B68FB607B68294AAC
:1041DC0093420BD07B68B3F1804F07D07B68264AA3
:1041EC00934203D07B68254A934208D1FB6823F0A5
:1041FC007003FB603B685B68FA681343FB607B6889
:10420C001C4A93420BD07B68B3F1804F07D07B687C
:10421C00194A934203D07B68184A934208D1FB6831
:10422C0023F44073FB603B68DB68FA681343FB6064
:10423C00FB6823F080023B685B691343FB607B687F
:10424C00FA681A603B689A687B68DA623B681A689D
:10425C007B689A627B68074A934203D13B681A6970
:10426C007B681A637B6801225A6100BF1437BD4614
:10427C0080BC7047002C0140000400400008004046
:10428C0080B487B000AFF860B9607A60FB681B6AD5
:10429C007B61FB681B6A23F00102FB681A62FB68F6
:1042AC009B693B613B6923F0F0033B617B681B011D
:1042BC003A6913433B617B6923F00A037B617A699A
:1042CC00BB6813437B61FB683A699A61FB687A6946
:1042DC001A6200BF1C37BD4680BC704780B487B0E3
:1042EC0000AFF860B9607A60FB681B6A23F01002BB
:1042FC00FB681A62FB689B697B61FB681B6A3B610C
:10430C007B6923F470437B617B681B037A691343DD
:10431C007B613B6923F0A0033B61BB681B013A69DD
:10432C0013433B61FB687A699A61FB683A691A62CC
:10433C0000BF1C37BD4680BC704780B485B000AF51
:10434C00786039607B689B68FB60FB6823F07003C6
:10435C00FB603A68FB68134343F00703FB607B6820
:10436C00FA689A6000BF1437BD4680BC704780B4B1
:10437C0087B000AFF860B9607A603B60FB689B68FF
:10438C007B617B6923F47F437B613B681A027B680A
:10439C001A43BB6813437A6913437B61FB687A69E0
:1043AC009A6000BF1C37BD4680BC704780B485B096
:1043BC0000AF786039607B6893F83C30012B01D1F9
:1043CC00022346E07B68012283F83C207B680222B2
:1043DC0083F83D207B681B685B68FB607B681B680F
:1043EC009B68BB60FB6823F07003FB603B681B6839
:1043FC00FA681343FB607B681B68FA685A607B6839
:10440C001B68164A93420ED07B681B68B3F1804F31
:10441C0009D07B681B68124A934204D07B681B68E6
:10442C00104A93420CD1BB6823F08003BB603B68FD
:10443C005B68BA681343BB607B681B68BA689A6098
:10444C007B68012283F83D207B68002283F83C20A6
:10445C00002318461437BD4680BC7047002C014021
:10446C000004004000080040014B1868704700BF72
:10447C001C00002070B500260C4D0D4C641BA410C4
:10448C00A64209D100F09CFC00260A4D0A4C641B84
:10449C00A410A64205D170BD55F8043B98470136CF
:1044AC00EEE755F8043B98470136F2E7BC65000887
:1044BC00BC650008BC650008C065000803460244E2
:1044CC00934200D1704703F8011BF9E70EB46FF06B
:1044DC00004100B59CB01DAB029006900791049171
:1044EC000848094953F8042B0591006802A9019367
:1044FC0000F068F80022029B1A701CB05DF804EB07
:10450C0003B070471C0000200802FFFF2DE9F047A4
:10451C008E6882469E420C4690461F4638D88A8941
:10452C0012F4906F32D0256809690133A5EB0109AB
:10453C0065694B4405EB450505EBD5756D109D4242
:10454C0038BF1D46530531D5294600F06FFB064692
:10455C0050B90C234FF0FF30CAF80030A38943F058
:10456C004003A381BDE8F0874A46216900F0CEFAEA
:10457C00A38923F4906343F08003A38126614E4406
:10458C0026603E466561A5EB0905A560BE4200D9D3
:10459C003E4632464146206800F0C6FAA368002029
:1045AC009B1BA360236833442360DBE72A4600F09F
:1045BC00B1FB06460028E1D15046216900F0CEFA45
:1045CC00C7E700002DE9F04F98468B8907461B067C
:1045DC000D4614469DB00ED50B6963B9402100F011
:1045EC0025FB2860286120B90C233B604FF0FF307D
:1045FC00D1E040236B610023099320238DF82930EF
:10460C0030234FF00109CDF80C80DFF8A4818DF830
:10461C002A3023469A4613F8012B0AB1252AF9D1E0
:10462C00BAEB040B0BD05B46224629463846FFF703
:10463C006DFF013000F0AA80099A5A4409929AF849
:10464C000030002B00F0A28000234FF0FF32CDE9A8
:10465C0005230AF1010A049307938DF853301A933A
:10466C005446052214F8011B514800F041FA049AF3
:10467C00D8B9D00644BF20238DF85330110744BF5E
:10468C002B238DF853309AF800302A2B15D0544632
:10469C0000204FF00A0C079A214611F8013B303BE1
:1046AC00092B4ED9B0B1079214E0A0EB080309FA1C
:1046BC0003F31343A2460493D2E7039B191D1B6813
:1046CC000391002BBBBF5B4242F00202079307939E
:1046DC00B8BF049223782E2B0CD163782A2B35D1BA
:1046EC00039B02341A1D1B680392002BB8BF4FF0BA
:1046FC00FF330593DFF8BCA003225046217800F06D
:10470C00F7F940B14023A0EB0A0003FA00F0049B38
:10471C0001340343049314F8011B062226488DF838
:10472C00281000F0E5F9002838D0244B1BBB039B64
:10473C00073323F0070308330393099B334409938E
:10474C0067E70C4601200CFB0232A5E700234FF073
:10475C000A0C194601340593204610F8012B303A07
:10476C00092A03D9002BC5D00591C3E704460123C0
:10477C000CFB0121F0E703AB00932A463846104BA3
:10478C0004A9AFF30080421C0646D6D1AB895B0668
:10479C003FF52CAF09981DB0BDE8F08F03AB00932B
:1047AC002A463846064B04A900F07CF8EBE700BF1C
:1047BC00886500088E6500089265000800000000FE
:1047CC00194500082DE9F047164699468A680B6989
:1047DC0007469342B8BF1346336091F843200C460A
:1047EC00DDF820800AB1013333602368990642BF9B
:1047FC00336802333360256815F0060506D104F1E1
:10480C00190AE36832689B1AAB4228DC94F84320FF
:10481C00131E226818BF012392062DD44946384630
:10482C0004F14302C047013020D02368E56803F04F
:10483C000603042B18BF002532684FF00006A3684E
:10484C0008BFAD1A226908BF25EAE5759342C4BFBB
:10485C009B1AED181A34B5421AD1002008E0012336
:10486C00524649463846C047013003D14FF0FF301D
:10487C00BDE8F0870135C4E73020E11881F843002A
:10488C005A1C94F845102244023382F84310C5E7B1
:10489C000123224649463846C0470130E6D001364E
:1048AC00D9E700002DE9FF470F7E9146782F80460F
:1048BC000C469A460C9D01F1430207D8622F0AD888
:1048CC00002F00F0D980582F00F0A48004F142058D
:1048DC0084F842703AE0A7F16303152BF6D801A1D6
:1048EC0051F823F0494900085D490008D9480008EF
:1048FC00D9480008D9480008D94800085D49000883
:10490C00D9480008D9480008D9480008D9480008F7
:10491C006B4A00088D4900084D4A0008D948000828
:10492C00D94800088D4A0008D94800088D4900086C
:10493C00D9480008D9480008554A00082B681A1DA8
:10494C001B682A6004F1420584F842300123A4E07C
:10495C0020682968060601F104030AD50E682B604D
:10496C00002E03DA2D23764284F843300A235E4866
:10497C0019E00E6810F0400F2B6018BF36B2EFE74D
:10498C002B682068191D2960010601D51E6802E0FC
:10499C004606FBD51E886F2F0CBF08230A235248EE
:1049AC00002184F843106568002DA8BF2168A5601C
:1049BC00A4BF21F0040121600EB9002D4DD0154685
:1049CC00B6FBF3F103FB1167C75D05F8017D3746B4
:1049DC00BB420E46F4D9082B0BD12368DE0708D551
:1049EC00236961689942DEBF302305F8013C05F16B
:1049FC00FF35521B22614B4621464046CDF800A0A4
:104A0C0003AAFFF7DFFE01304CD14FF0FF3004B0AA
:104A1C00BDE8F087344881F845702968236851F85F
:104A2C00046B29601D0614D5DF0744BF43F0200337
:104A3C0023601EB9236823F0200323601023AFE703
:104A4C00236843F0200323607823284884F84530FA
:104A5C00E3E7590648BFB6B2E6E71546BBE72B6855
:104A6C002668181D6169286035061B6801D5196018
:104A7C0002E07006FBD51980002315462361BAE7C6
:104A8C002B6800211A1D2A601D686268284600F0F8
:104A9C002FF808B1401B606063682361002384F821
:104AAC004330A8E72A46494640462369D04701309F
:104ABC00ABD023689B0713D4E068039B9842B8BF24
:104ACC001846A4E70123324649464046D0470130F8
:104ADC009BD00135E36803995B1AAB42F2DCEBE740
:104AEC00002504F11906F5E799650008AA65000888
:104AFC00034610B5C9B202449342184601D10020B6
:104B0C0003E0047801338C42F6D110BD0A44914283
:104B1C0000F1FF3300D1704710B511F8014B9142F1
:104B2C0003F8014FF9D110BD884210B501EB020416
:104B3C0002D98442234607D8431EA14208D011F85B
:104B4C00012B03F8012FF8E7014602448A4200D1F9
:104B5C0010BD13F8014D02F8014DF7E738B50546C5
:104B6C00002940D051F8043C0C1F002BB8BFE418AE
:104B7C0000F010F91C4A136833B9636014602846BE
:104B8C00BDE8384000F00CB9A34208D920682118C0
:104B9C008B4201BF19685B6809182160EDE71A4662
:104BAC005B680BB1A342FAD911685018A0420BD123
:104BBC0020680144501883421160E0D118685B688A
:104BCC00014411605360DAE702D90C232B60D6E75D
:104BDC00206821188B4201BF19685B680918216095
:104BEC0063605460CBE738BD7005002070B50E4E85
:104BFC000C463168054611B900F0BCF8306021460E
:104C0C00284600F0B7F8431C0AD0C41C24F0030457
:104C1C00A04207D0211A284600F0ACF8013001D18F
:104C2C004FF0FF34204670BD740500202DE9F04193
:104C3C00CD1C25F0030508350C2D38BF0C25002D97
:104C4C00074601DBA94205D90C2300263B60304600
:104C5C00BDE8F0812E4E00F09DF833681C4634BB45
:104C6C0029463846FFF7C2FF431C04464DD1346831
:104C7C002646002E40D123683146384604EB030803
:104C8C0000F078F880453AD1216803356D1A25F08B
:104C9C00030508350C2D38BF0C2538462946FFF77F
:104CAC00A5FF01302BD023682B4423600EE0226833
:104CBC00521B1ED40B2A16D96119A342256018BFAA
:104CCC005960636808BF316062514B60384604F12B
:104CDC000B0600F065F826F00706231DF21AB6D075
:104CEC009B1BA350B3E76268A3420CBF32605A60AF
:104CFC00ECE723466468B2E734467668B9E70C23E0
:104D0C0038463B6000F04CF8A1E72560DEE700BFB9
:104D1C00700500202DE9F041804614460E4621B95D
:104D2C001146BDE8F041FFF781BF2AB9FFF716FF26
:104D3C0025462846BDE8F08100F038F88442074645
:104D4C0002D8B4EB500F12D821464046FFF76EFF45
:104D5C0005460028EDD0BC422246314628BF3A46D3
:104D6C00FFF7D4FE31464046FFF7F8FEE1E7354643
:104D7C00DFE7000038B50023054D044608462B60DC
:104D8C00FDF75CFB431C02D12B6803B1236038BDDB
:104D9C0078050020014800F011B800BF7C05002008
:104DAC00014800F00CB800BF7C05002051F8043C11
:104DBC00181F002BBCBF0B58C018704770477047AA
:104DCC00F8B500BFF8BC08BC9E467047F8B500BFEC
:084DDC00F8BC08BC9E467047BC
:104DE4004C454473202020202020202020202020F7
:104DF400202020202020202020202020200000000F
:104E04004C4544732052474220202020202020205B
:104E140020202020202020202020202020000000EE
:104E240074656D70657261747572652073656E73F7
:104E34006F727320202020202020202020000000DA
:104E440042757A7A6572202020202020202020209C
:104E540020202020202020202020202020000000AE
:104E64004D6F746F722020202020202020202020CD
:104E7400202020202020202020202020200000008E
:104E840041626F75742020202020202020202020C3
:104E9400202020202020202020202020200000006E
:104EA40053687574446F776E2020202020202020C2
:104EB400202020202020202020202020200000004E
:104EC4004D656E75202020202020202020202020C9
:104ED40020202020202020202020200020202020EE
:104EE40020202020202020202020202020202020BE
:104EF400000000004C65642031203D206F66662070
:104F040020202020202020202020202020202000BD
:104F14004C65642031203D206F6E2020202020200D
:104F24002020202020202020202020004C656420E8
:104F340032203D206F666620202020202020202063
:104F440020202020202020004C65642032203D2099
:104F54006F6E2020202020202020202020202020B0
:104F6400202020004C65642033203D206F6666209D
:104F7400202020202020202020202020202020004D
:104F84004C65642033203D206F6E2020202020209B
:104F94002020202020202020202020004261636B3C
:104FA400000000005265643A206F666620202020CD
:104FB400202020202020202020202020202020000D
:104FC4005265643A206F6E2020202020202020206B
:104FD40020202020202020202020200047726565EA
:104FE4006E3A206F6666202020202020202020207A
:104FF4002020202020202000477265656E3A206F13
:105004006E2020202020202020202020202020204E
:1050140020202000426C75653A206F6666202020AF
:10502400202020202020202020202020202020009C
:10503400426C75653A206F6E2020202020202020AD
:1050440020202020202020202020200025642E2520
:1050540064204320202020202000000025642E25E9
:105064006420462020202020200000005465737412
:105074000000000057696C6C206F70656E20736FC0
:105084006F6E20202020202020202020202020207F
:105094002020200002030405060708090A0B0C0D52
:1050A4000E0F1010000000000000000000000000BF
:1050B40000000000000000000010001000100010AC
:1050C400001000100000001000000000002800285C
:1050D40000280000000000000000000000000000A4
:1050E40000240024007C00240048007C0048004880
:1050F4000000000000380054005000380014005430
:105104000054003800100000002000540058003003
:1051140000280054001400080000000000100028BB
:10512400002800100034004800480034000000004B
:10513400001000100010000000000000000000003B
:1051440000000000000800100020002000200020C3
:1051540000200020001000080020001000080008B3
:1051640000080008000800080010002000100038A3
:1051740000100028000000000000000000000000F3
:105184000000000000100010007C0010001000005F
:10519400000000000000000000000000000000000B
:1051A40000000010001000100000000000000000CB
:1051B40000000038000000000000000000000000B3
:1051C40000000000000000000000001000000000CB
:1051D400000800080010001000100010002000203B
:1051E400000000000038004400440054004400441F
:1051F400004400380000000000100030005000108F
:1052040000100010001000100000000000380044DE
:1052140000440004000800100020007C000000008E
:10522400003800440004001800040004004400385E
:105234000000000000080018002800280048007C36
:105244000008000800000000007C004000400078D6
:10525400000400040044003800000000003800444A
:10526400004000780044004400440038000000007E
:10527400007C000400080010001000200020002022
:10528400000000000038004400440038004400449A
:10529400004400380000000000380044004400448A
:1052A400003C00040044003800000000000000003E
:1052B40000100000000000000000001000000000CA
:1052C40000000000000000100000000000000010BA
:1052D4000010001000000000000C003000400030FE
:1052E400000C000000000000000000000000007C32
:1052F4000000007C0000000000000000000000002E
:1053040000600018000400180060000000000000A5
:1053140000380044000400080010001000000010D1
:105324000000000000380044004C0054005C0040C1
:105334000040003800000000001000280028002869
:105344000028007C00440044000000000078004471
:105354000044007800440044004400780000000049
:105364000038004400400040004000400044003841
:105374000000000000700048004400440044004461
:105384000048007000000000007C00400040007CE9
:10539400004000400040007C00000000007C004011
:1053A4000040007800400040004000400000000041
:1053B4000038004400400040005C004400440038D1
:1053C40000000000004400440044007C0044004409
:1053D40000440044000000000038001000100010D9
:1053E4000010001000100038000000000004000449
:1053F400000400040004000400440038000000001D
:105404000044004800500060005000480048004438
:105414000000000000400040004000400040004008
:105424000040007C000000000044006C006C00544C
:1054340000440044004400440000000000440064B0
:10544400006400540054004C004C00440000000070
:105454000038004400440044004400440044003840
:10546400000000000078004400440044007800403C
:1054740000400040000000000038004400440044A4
:105484000044004400540038000400000078004444
:105494000044004400780048004800440000000034
:1054A4000038004400400030000800040044003884
:1054B40000000000007C001000100010001000101C
:1054C40000100010000000000044004400440044A8
:1054D400004400440044003800000000004400443C
:1054E40000440028002800280010001000000000DC
:1054F40000440044005400540054006C0028002868
:1055040000000000004400280028001000100028BB
:105514000028004400000000004400440028002843
:10552400001000100010001000000000007C0004B7
:1055340000080010001000200040007C0000000063
:1055440000180010001000100010001000100010CF
:10555400001000180020002000100010001000109F
:1055640000080008000000000030001000100010C7
:10557400001000100010001000100030001000286F
:1055840000280044000000000000000000000000AB
:105594000000000000000000000000000000000007
:1055A400000000FE002000100000000000000000C9
:1055B400000000000000000000000000003800446B
:1055C400003C0044004C0034000000000040004057
:1055D40000580064004400440064005800000000C7
:1055E400000000000038004400400040004400383F
:1055F40000000000000400040034004C0044004497
:10560400004C00340000000000000000003800449A
:10561400007C00400044003800000000000C001032
:10562400007C0010001000100010001000000000AA
:10563400000000000034004C00440044004C0034DE
:105644000004007800400040005800640044004416
:10565400004400440000000000100000007000102E
:1056640000100010001000100000000000100000E6
:10567400007000100010001000100010001000E076
:1056840000400040004800500060005000480044C2
:105694000000000000700010001000100010001046
:1056A400001000100000000000000000007800540A
:1056B4000054005400540054000000000000000096
:1056C400005800640044004400440044000000000A
:1056D4000000000000380044004400440044003846
:1056E4000000000000000000005800640044004472
:1056F4000064005800400040000000000034004CEA
:1057040000440044004C0034000400040000000085
:1057140000580064004000400040004000000000C9
:105724000000000000380044003000080044003845
:10573400000000000020002000780020002000204D
:105744000020001800000000000000000044004495
:1057540000440044004C003400000000000000003D
:105764000044004400280028002800100000000025
:1057740000000000005400540054006C002800286D
:105784000000000000000000004400280010001089
:105794000028004400000000000000000044004411
:1057A4000028002800100010001000600000000015
:1057B400007C0008001000200040007C0000000075
:1057C400001800100010001000200020001000102D
:1057D400001000180010001000100010001000103D
:1057E4000010001000100010003000100010001015
:1057F4000008000800100010001000300000000035
:1058040000000074004C00000000000000000000D4
:105814000000000000000000000000000000000084
:105824000000000000000000000000000000000074
:10583400000000000000000C000C000C000C000C28
:10584400000C000C000C000C000C000C0000000C00
:10585400000C0000000000000000001B001B001BE7
:10586400001B001B000000000000000000000000FE
:10587400000000000000000000000000000080198B
:10588400801980198019C07FC07F80190033C07FC0
:10589400C07F0033003300330033000000000000F9
:1058A4000000001E003F807580650074003C001EEF
:1058B40000078005806580658075003F001E000438
:1058C400000400000000007000D840D8C0D880D97F
:1058D40000730006000C801BC036C066C046C006BC
:1058E40080030000000000000000001E003F0033A1
:1058F40000330033001E000CC03CC066806380612E
:105904008063C03E801C0000000000000000000C0A
:10591400000C000C000C000C000000000000000053
:105924000000000000000000000000000000000073
:10593400800000010003000600060004000C000CB7
:10594400000C000C000C000C000400060006000310
:1059540000018000002000100018000C000C00045E
:105964000006000600060006000600060004000CFF
:10597400000C0018001000200000000C002D003F57
:10598400001E0033000000000000000000000000C2
:105994000000000000000000000000000000000003
:1059A4000000000C000C000C000CC0FFC0FF000C39
:1059B400000C000C000C00000000000000000000BF
:1059C40000000000000000000000000000000000D3
:1059D40000000000000000000000000C000C0004A7
:1059E40000040008000000000000000000000000A7
:1059F400000000000000001E001E00000000000067
:105A04000000000000000000000000000000000092
:105A14000000000000000000000000000000000082
:105A24000000000C000C0000000000000000000357
:105A3400000300030006000600060006000C000C2C
:105A4400000C000C001800180018000000000000F2
:105A54000000001E003F0033806180618061806D22
:105A6400806D8061806180610033003F001E000012
:105A74000000000000000006000E001E0036002694
:105A840000060006000600060006000600060006E2
:105A940000060000000000000000001E003F8073AC
:105AA40080618061800100030006000C0018003052
:105AB4000060807F807F0000000000000000001C68
:105AC400003E006300630003000E000E000380012B
