:020000040800F2
:100000000050002075070008A1060008A706000898
:10001000AD060008B3060008B9060008000000009D
:10002000000000000000000000000000BF06000803
:10003000CB06000800000000D7060008E306000811
:10004000BD070008BD070008BD070008BD07000880
:10005000BD070008BD070008BD070008BD07000870
:10006000BD070008BD070008BD070008BD07000860
:10007000BD070008BD070008BD070008BD07000850
:10008000BD070008BD070008BD070008BD07000840
:10009000BD070008BD070008BD070008BD07000830
:1000A000BD070008BD070008BD070008BD07000820
:1000B000BD070008BD070008BD070008BD07000810
:1000C000EF060008BD070008BD070008BD070008CF
:1000D000BD070008BD070008BD070008BD070008F0
:1000E000BD070008BD070008BD07000800000000AC
:1000F0000000000000000000000000000000000000
:0C01000000000000000000005FF808F1A3
:10010C0010B5054C237833B9044B13B10448AFF345
:10011C0000800123237010BD780000200000000037
:10012C00A827000808B5034B1BB103490348AFF3DC
:10013C00008008BD000000007C000020A8270008FB
:10014C0080B582B000AF78607B68124A1A607B6819
:10015C00114A5A607B6800229A607B680022DA6040
:10016C007B684FF480421A617B6800225A617B687D
:10017C0000229A617B680022DA617B6800221A6295
:10018C007B68184600F060FE0346002B00BF083762
:10019C00BD4680BD00540040801A060080B592B068
:1001AC0000AF786007F1200328220021184601F0E7
:1001BC0073FE07F10C0300221A605A609A60DA6031
:1001CC001A6101233B624FF480337B620023BB62D4
:1001DC0001233B630223FB634FF480333B644FF4F6
:1001EC00E0137B6407F12003184600F071FF03460F
:1001FC00002B0F23FB6002233B6100237B614FF438
:10020C008063BB610023FB6107F10C0302211846DC
:10021C0001F0E0F90346002B00BF4837BD4680BD16
:10022C0080B58AB000AF786007F1180300221A601D
:10023C005A609A60DA60504B9B694F4A43F0100346
:10024C0093614D4B9B6903F010037B617B694A4BB7
:10025C009B69494A43F020039361474B9B6903F028
:10026C0020033B613B69444B9B69434A43F00803C1
:10027C009361414B9B6903F00803FB60FB683E4BA9
:10028C009B693D4A43F0040393613B4B9B6903F02C
:10029C000403BB60BB6800224FF46041374800F098
:1002AC00A1FD00224FF48071354800F09BFD002227
:1002BC004FF40071334800F095FD4FF46043BB617F
:1002CC000123FB6100233B6202237B6207F11803CD
:1002DC0019462A4800F002FC4FF40063BB612A4B1C
:1002EC00FB6100233B6207F118031946254800F017
:1002FC00F5FB4FF48073BB610123FB6100233B6270
:10030C0002237B6207F1180319461D4800F0E6FB37
:10031C004FF48063BB611D4BFB6100233B6207F113
:10032C0018031946164800F0D9FB3823BB6100238B
:10033C00FB6100233B6207F118031946114800F0DA
:10034C00CDFB4FF40073BB610123FB6100233B62C7
:10035C0002237B6207F1180319460A4800F0BEFB22
:10036C0000220021282000F082FB282000F09BFBBB
:10037C0000BF2837BD4680BD001002400010014070
:10038C0000080140000C0140000021100000111079
:10039C0080B588B000AF786007F1100300221A60B6
:1003AC005A609A60DA6007F1080300221A605A60FA
:1003BC007B681D4A5A657B6847229A657B680022D8
:1003CC00DA657B684FF6FF721A667B6800225A6604
:1003DC007B6800229A667B680022DA667B6854335D
:1003EC00184601F07BFA0346002B4FF480533B6117
:1003FC007B68543307F110021146184601F008FBD4
:10040C000346002B0023BB600023FB607B68543346
:10041C0007F108021146184601F0B6FC0346002B02
:10042C0000BF2037BD4680BD002C014080B582B096
:10043C0000AF786000F0BEF97868FFF7AFFE78681F
:10044C00FFF7EEFE7868FFF7A3FF7868FFF778FEFA
:10045C007B685433184601F091FA00BF0837BD464B
:10046C0080BD80B584B000AFF860B9601346FB80E6
:10047C00FB881946B86800F0CDFC00BF1037BD46AC
:10048C0080BD80B485B000AFF860B9607A607B80C5
:10049C0000BF1437BD4680BC704780B483B000AF3A
:1004AC0078607B684FF000021A617B684FF00002A5
:1004BC005A617B684FF000029A617B6800221A77C0
:1004CC007B6800225A777B6800221A627B681C22A8
:1004DC005A637B6818460C37BD4680BC70470000D9
:1004EC0080B5D2B002AF07F164031846FFF7D5FF11
:1004FC0007F19C031846FFF799FF0023C7F83C311E
:10050C00D7F83C31B3F57A6FF7DDD7F83C31C7F843
:10051C0038313B46D7F838211049184601F0C4FC55
:10052C0007F19C034FF480420D491846FFF799FFE1
:10053C00394607F164000023019300230093002344
:10054C00084AFFF79EFF4FF47A7000F095F9D7F840
:10055C003C310133C7F83C31D2E700BFC02700085B
:10056C00001001400000002080B485B000AF154B96
:10057C009B69144A43F001039361124B9B6903F08E
:10058C000103BB60BB680F4BDB690E4A43F0805321
:10059C00D3610C4BDB6903F080537B607B680A4BA7
:1005AC005B68FB60FB6823F0E063FB60FB6843F077
:1005BC000073FB60044AFB68536000BF1437BD46F0
:1005CC0080BC7047001002400000014080B588B02C
:1005DC0000AF786007F1100300221A605A609A602D
:1005EC00DA607B681B68194A93422BD1184B9B69C4
:1005FC00174A43F008039361154B9B6903F00803FA
:10060C00FB60FB68C0233B6112237B610323FB610E
:10061C0007F1100319460F4800F060FA0C4BDB6928
:10062C000B4A43F40013D361094BDB6903F4001349
:10063C00BB60BB6800220021202000F018FA2020AB
:10064C0000F031FA00BF2037BD4680BD0054004099
:10065C0000100240000C014080B485B000AF7860FF
:10066C007B681B68094A93420BD1094B9B69084A6A
:10067C0043F400639361064B9B6903F40063FB60D6
:10068C00FB6800BF1437BD4680BC7047002C01408E
:10069C000010024080B400AFFEE780B400AFFEE76C
:1006AC0080B400AFFEE780B400AFFEE780B400AFCB
:1006BC00FEE780B400AF00BFBD4680BC704780B47D
:1006CC0000AF00BFBD4680BC704780B400AF00BF18
:1006DC00BD4680BC704780B500AF00F0B1F800BFDC
:1006EC0080BD80B400AF00BFBD4680BC7047000029
:1006FC0080B586B000AF7860144A154BD31A7B6175
:10070C007B693B61134B1B68002B02D1114B124AC6
:10071C001A60104B1A687B6813443A699A4207D2E4
:10072C0001F090FB03460C221A604FF0FF3309E0F6
:10073C00084B1B68FB60074B1A687B681344054A1F
:10074C001360FB6818461837BD4680BD005000206A
:10075C000004000094000020B000002080B400AF22
:10076C0000BFBD4680BC70470C480D490D4A0023A4
:10077C0002E0D458C4500433C4188C42F9D30A4A4A
:10078C000A4C002301E013600432A242FBD3FFF7B2
:10079C00E5FF01F05DFBFFF7A3FE704700000020B2
:1007AC00780000209C2F000878000020AC0000206E
:1007BC00FEE7000080B500AF084B1B68074A43F00A
:1007CC0010031360032000F047F90F2000F008F825
:1007DC00FFF7CAFE0023184680BD00BF0020024070
:1007EC0080B582B000AF7860124B1A68124B1B7840
:1007FC0019464FF47A73B3FBF1F3B2FBF3F31846DB
:10080C0000F05FF90346002B01D001230EE07B685A
:10081C000F2B0AD8002279684FF0FF3000F027F92F
:10082C00064A7B681360002300E001231846083752
:10083C00BD4680BD08000020100000200C000020E8
:10084C0080B400AF054B1B781A46054B1B6813444C
:10085C00034A136000BFBD4680BC704710000020E7
:10086C009800002080B400AF024B1B681846BD46B0
:10087C0080BC70479800002080B584B000AF7860D1
:10088C00FFF7F0FFB8607B68FB60FB68B3F1FF3FDC
:10089C0005D00A4B1B781A46FB681344FB6000BF5B
:1008AC00FFF7E0FF0246BB68D31AFA689A42F7D802
:1008BC0000BF00BF1037BD4680BD00BF1000002038
:1008CC0080B485B000AF78607B6803F00703FB60F1
:1008DC000C4BDB68BB60BA684FF6FF031340BB6080
:1008EC00FB681A02BB68134343F0BF6343F4003345
:1008FC00BB60044ABB68D36000BF1437BD4680BCE4
:10090C00704700BF00ED00E080B400AF044BDB6823
:10091C001B0A03F007031846BD4680BC704700BF96
:10092C0000ED00E080B483B000AF0346FB7197F993
:10093C000730002B0BDBFB7903F01F02064997F9FC
:10094C0007305B09012000FA02F241F8232000BFB6
:10095C000C37BD4680BC704700E100E080B483B02A
:10096C0000AF03463960FB7197F90730002B0ADBA7
:10097C003B68DAB20C4997F907301201D2B20B443A
:10098C0083F800230AE03B68DAB20849FB7903F0EC
:10099C000F03043B1201D2B20B441A7600BF0C3782
:1009AC00BD4680BC704700BF00E100E000ED00E0F8
:1009BC0080B489B000AFF860B9607A60FB6803F06E
:1009CC000703FB61FB69C3F10703042B28BF042356
:1009DC00BB61FB690433062B02D9FB69033B00E0C6
:1009EC0000237B614FF0FF32BB6902FA03F3DA4359
:1009FC00BB681A407B699A404FF0FF317B6901FA62
:100A0C0003F3D9437B680B40134318462437BD4688
:100A1C0080BC704780B582B000AF78607B68013BCA
:100A2C00B3F1807F01D301230FE00A4A7B68013BBD
:100A3C0053600F214FF0FF30FFF790FF054B002262
:100A4C009A60044B07221A60002318460837BD46EB
:100A5C0080BD00BF10E000E080B582B000AF7860D0
:100A6C007868FFF72DFF00BF0837BD4680BD80B505
:100A7C0086B000AF0346B9607A60FB7300237B61DC
:100A8C00FFF742FF78617A68B9687869FFF790FFE1
:100A9C00024697F90F3011461846FFF75FFF00BF6B
:100AAC001837BD4680BD80B582B000AF0346FB71E0
:100ABC0097F907301846FFF735FF00BF0837BD46DA
:100ACC0080BD80B582B000AF78607868FFF7A2FF78
:100ADC00034618460837BD4680BD000080B48BB075
:100AEC0000AF7860396000237B6200233B6269E1D0
:100AFC0001227B6A02FA03F3FB613B681B68FA690B
:100B0C001340BB61BA69FB699A4240F058813B685B
:100B1C005B689A4A93425ED0984A934275D8984A39
:100B2C00934258D0964A93426FD8964A934252D0E9
:100B3C00944A934269D8944A93424CD0924A934235
:100B4C0063D8924A934246D0904A93425DD8122B76
:100B5C002AD8122B59D801A252F823F0E30B000823
:100B6C00BD0B0008CF0B0008110C0008170C000877
:100B7C00170C0008170C0008170C0008170C0008BD
:100B8C00170C0008170C0008170C0008170C0008AD
:100B9C00170C0008170C0008170C0008170C00089D
:100BAC00C50B0008D90B0008794A934213D02CE0EE
:100BBC003B68DB683B6229E03B68DB6804333B62E3
:100BCC0024E03B68DB6808333B621FE03B68DB6872
:100BDC000C333B621AE03B689B68002B02D1042368
:100BEC003B6213E03B689B68012B05D108233B62F9
:100BFC007B68FA691A6109E008233B627B68FA6931
:100C0C005A6103E000233B6200E000BFBB69FF2B8D
:100C1C0001D87B6801E07B6804337B61BB69FF2BE7
:100C2C0002D87B6A9B0002E07B6A083B9B003B611D
:100C3C007B691A680F213B6901FA03F3DB431A4005
:100C4C00396A3B6901FA03F31A437B691A603B6802
:100C5C005B6803F08053002B00F0B1804D4B9B6917
:100C6C004C4A43F0010393614A4B9B6903F0010327
:100C7C00BB60BB68484A7B6A9B08023352F823303E
:100C8C00FB607B6A03F003039B000F2202FA03F361
:100C9C00DB43FA681340FB607B68404A934213D0F5
:100CAC007B683F4A93420DD07B683E4A934207D003
:100CBC007B683D4A934201D1032306E0042304E000
:100CCC00022302E0012300E000237A6A02F003020F
:100CDC0092009340FA681343FB602F497B6A9B0890
:100CEC000233FA6841F823203B685B6803F48033D5
:100CFC00002B06D02D4B1A682C49BB6913430B6093
:100D0C0006E02A4B1A68BB69DB43284913400B6089
:100D1C003B685B6803F40033002B06D0234B5A6806
:100D2C002249BB6913434B6006E0204B5A68BB69F0
:100D3C00DB431E4913404B603B685B6803F4801334
:100D4C00002B06D0194B9A681849BB6913438B606A
:100D5C0006E0164B9A68BB69DB43144913408B6061
:100D6C003B685B6803F40013002B21D00F4BDA684F
:100D7C000E49BB691343CB6021E000BF0000321069
:100D8C000000311000002210000021100000121091
:100D9C00000011100010024000000140000801404A
:100DAC00000C0140001001400014014000040140FF
:100DBC000B4BDA68BB69DB4309491340CB607B6A98
:100DCC0001337B623B681A687B6A22FA03F3002BBF
:100DDC007FF48EAE00BF00BF2C37BD4680BC704781
:100DEC000004014080B483B000AF78600B467B8078
:100DFC0013467B707B78002B03D07A887B681A6152
:100E0C0003E07B881A047B681A6100BF0C37BD466F
:100E1C0080BC704780B485B000AF78600B467B8097
:100E2C007B68DB68FB607A88FB6813401A04FB68FC
:100E3C00D9437B880B401A437B681A6100BF143777
:100E4C00BD4680BC7047000080B584B000AF7860B0
:100E5C007B68002B01D101232BE17B6893F83D309B
:100E6C00DBB2002B06D17B68002283F83C2078682B
:100E7C00FFF7ACFB7B68242283F83D207B681B6862
:100E8C001A687B681B6822F001021A607B681B6879
:100E9C001A687B681B6842F400421A607B681B6806
:100EAC001A687B681B6822F400421A6000F0E4FCAC
:100EBC00F8607B685B68814A934207D8FB68804A7C
:100ECC00934294BF01230023DBB206E0FB687D4A0A
:100EDC00934294BF01230023DBB2002B01D00123EA
:100EEC00E7E0FB68784AA2FB03239B0CBB607B68A2
:100EFC001B685B6823F03F017B681B68BA680A4378
:100F0C005A607B681B681B6A23F03F017B685B6837
:100F1C006A4A934202D8BB68013309E0BB684FF4BC
:100F2C00967202FB03F3694AA2FB03239B0901336C
:100F3C007A6812680B4313627B681B68DB6923F4C5
:100F4C004F4222F0FF027B685B685C498B4219D8E8
:100F5C00FB68591E7B685B685B00B1FBF3F3591CA3
:100F6C0040F6FC730B40002B0AD0FB68591E7B68C3
:100F7C005B685B00B1FBF3F30133C3F30B0351E08C
:100F8C0004234FE07B689B68002B11D1FB68581E33
:100F9C007B6859680B465B000B44B0FBF3F30133E1
:100FAC00C3F30B03002B0CBF01230023DBB212E0B5
:100FBC00FB68581E7B6859680B469B000B449900D4
:100FCC000B44B0FBF3F30133C3F30B03002B0CBF47
:100FDC0001230023DBB2002B01D0012322E07B682C
:100FEC009B68002B0ED1FB68581E7B6859680B461A
:100FFC005B000B44B0FBF3F30133C3F30B0343F47B
:10100C0000430FE0FB68581E7B6859680B469B0039
:10101C000B4499000B44B0FBF3F30133C3F30B0304
:10102C0043F44043796809681343CB617B681B68C0
:10103C001B6823F0C0017B68DA697B681B6A1A4362
:10104C007B681B680A431A607B681B689B6823F4E7
:10105C00034323F0FF037A6811697A68D26811435D
:10106C007A6812680B4393607B681B68DB6823F01B
:10107C00FF017B685A697B689B691A437B681B6814
:10108C000A43DA607B681B681A687B681B6842F04D
:10109C0001021A607B6800221A647B68202283F8A4
:1010AC003D207B6800221A637B68002283F83E2077
:1010BC00002318461037BD4680BD00BFA086010036
:1010CC007F841E00FF083D0083DE1B43D34D62105E
:1010DC0080B586B000AF78607B68002B01D101230E
:1010EC0072E27B681B6803F00103002B00F0878021
:1010FC00924B5B6803F00C03042B0CD08F4B5B689A
:10110C0003F00C03082B12D18C4B5B6803F4803377
:10111C00B3F5803F0BD1894B1B6803F40033002BD4
:10112C006CD07B685B68002B68D101234CE27B6838
:10113C005B68B3F5803F06D1804B1B687F4A43F454
:10114C00803313602EE07B685B68002B0CD17B4BEB
:10115C001B687A4A23F480331360784B1B68774AF8
:10116C0023F4802313601DE07B685B68B3F5A02F2C
:10117C000CD1724B1B68714A43F4802313606F4B84
:10118C001B686E4A43F4803313600BE06B4B1B6897
:10119C006A4A23F480331360684B1B68674A23F454
:1011AC00802313607B685B68002B13D0FFF75AFB1E
:1011BC00386108E0FFF756FB02463B69D31A642BF3
:1011CC0001D9032300E25D4B1B6803F40033002BB1
:1011DC00F0D014E0FFF746FB386108E0FFF742FB64
:1011EC0002463B69D31A642B01D90323ECE1534B20
:1011FC001B6803F40033002BF0D100E000BF7B68C8
:10120C001B6803F00203002B63D04C4B5B6803F0AC
:10121C000C03002B0BD0494B5B6803F00C03082B21
:10122C001CD1464B5B6803F48033002B16D1434B27
:10123C001B6803F00203002B05D07B681B69012B94
:10124C0001D00123C0E13D4B1B6823F0F8027B6801
:10125C005B69DB00394913430B603AE07B681B691F
:10126C00002B20D0364B01221A60FFF7FBFA3861B5
:10127C0008E0FFF7F7FA02463B69D31A022B01D9B3
:10128C000323A1E12D4B1B6803F00203002BF0D0CC
:10129C002A4B1B6823F0F8027B685B69DB0027494B
:1012AC0013430B6015E0264B00221A60FFF7DAFAA5
:1012BC00386108E0FFF7D6FA02463B69D31A022BD5
:1012CC0001D9032380E11D4B1B6803F00203002BA3
:1012DC00F0D17B681B6803F00803002B3AD07B68C5
:1012EC009B69002B19D0174B01221A60FFF7BAFA31
:1012FC00386108E0FFF7B6FA02463B69D31A022BB5
:10130C0001D9032360E10D4B5B6A03F00203002B50
:10131C00F0D0012000F0C4FA1CE00A4B00221A6045
:10132C00FFF7A0FA38610FE0FFF79CFA02463B6921
:10133C00D31A022B08D9032346E100BF0010024048
:10134C000000424280044242924B5B6A03F002036B
:10135C00002BE9D17B681B6803F00403002B00F021
:10136C00A6800023FB758B4BDB6903F08053002BAD
:10137C000DD1884BDB69874A43F08053D361854B91
:10138C00DB6903F08053BB60BB680123FB75824BA8
:10139C001B6803F48073002B18D17F4B1B687E4AAB
:1013AC0043F480731360FFF75DFA386108E0FFF7D0
:1013BC0059FA02463B69D31A642B01D9032303E182
:1013CC00754B1B6803F48073002BF0D07B68DB68D3
:1013DC00012B06D16F4B1B6A6E4A43F0010313625B
:1013EC002DE07B68DB68002B0CD16A4B1B6A694AC9
:1013FC0023F001031362674B1B6A664A23F0040354
:10140C0013621CE07B68DB68052B0CD1614B1B6AFB
:10141C00604A43F0040313625E4B1B6A5D4A43F05F
:10142C00010313620BE05B4B1B6A5A4A23F0010366
:10143C001362584B1B6A574A23F0040313627B68F0
:10144C00DB68002B15D0FFF70DFA38610AE0FFF7C7
:10145C0009FA02463B69D31A41F28832934201D908
:10146C000323B1E04B4B1B6A03F00203002BEED0BD
:10147C0014E0FFF7F7F938610AE0FFF7F3F90246D9
:10148C003B69D31A41F28832934201D903239BE082
:10149C00404B1B6A03F00203002BEED1FB7D012BAA
:1014AC0005D13C4BDB693B4A23F08053D3617B680D
:1014BC00DB69002B00F08780364B5B6803F00C0374
:1014CC00082B61D07B68DB69022B46D1334B0022A1
:1014DC001A60FFF7C7F9386108E0FFF7C3F9024655
:1014EC003B69D31A022B01D903236DE0294B1B68EE
:1014FC0003F00073002BF0D17B681B6AB3F5803FBF
:10150C0008D1244B5B6823F400327B689B6821492B
:10151C0013434B601F4B5B6823F474127B68196A8E
:10152C007B685B6A0B431B4913434B601B4B0122CB
:10153C001A60FFF797F9386108E0FFF793F9024654
:10154C003B69D31A022B01D903233DE0114B1B68D5
:10155C0003F00073002BF0D035E0104B00221A6022
:10156C00FFF780F9386108E0FFF77CF902463B6928
:10157C00D31A022B01D9032326E0064B1B6803F078
:10158C000073002BF0D11EE07B68DB69012B07D1C7
:10159C00012319E00010024000700040600042423C
:1015AC000B4B5B68FB60FB6803F480327B681B6A47
:1015BC009A4206D1FB6803F470127B685B6A9A420C
:1015CC0001D0012300E0002318461837BD4680BD2A
:1015DC000010024080B584B000AF786039607B6841
:1015EC00002B01D10123D0E06A4B1B6803F00703E9
:1015FC003A689A4210D9674B1B6823F00702654979
:10160C003B6813430B60634B1B6803F007033A689A
:10161C009A4201D00123B8E07B681B6803F00203F7
:10162C00002B20D07B681B6803F00403002B05D033
:10163C00594B5B68584A43F4E06353607B681B6802
:10164C0003F00803002B05D0534B5B68524A43F45C
:10165C0060535360504B5B6823F0F0027B689B68CF
:10166C004D4913434B607B681B6803F00103002B4F
:10167C0040D07B685B68012B07D1474B1B6803F498
:10168C000033002B15D101237FE07B685B68022BB4
:10169C0007D1414B1B6803F00073002B09D10123C8
:1016AC0073E03D4B1B6803F00203002B01D10123B7
:1016BC006BE0394B5B6823F003027B685B6836494F
:1016CC0013434B60FFF7CEF8F8600AE0FFF7CAF857
:1016DC000246FB68D31A41F28832934201D90323A4
:1016EC0053E02D4B5B6803F00C027B685B689B003E
:1016FC009A42EBD1274B1B6803F007033A689A42D6
:10170C0010D2244B1B6823F0070222493B68134379
:10171C000B60204B1B6803F007033A689A4201D018
:10172C00012332E07B681B6803F00403002B08D014
:10173C00194B5B6823F4E0627B68DB681649134342
:10174C004B607B681B6803F00803002B09D0124B1D
:10175C005B6823F460527B681B69DB000E49134302
:10176C004B6000F021F802460B4B5B681B0903F041
:10177C000F030A49CB5C22FA03F3094A1360094BA5
:10178C001B681846FFF72CF8002318461037BD4687
:10179C0080BD00BF0020024000100240482F00080E
:1017AC00080000200C00002090B48AB000AF294B38
:1017BC003C1D0FCB84E80F0040F201233B8000233B
:1017CC00FB610023BB6100237B6200237B61002350
:1017DC003B62214B5B68FB61FB6903F00C03042B40
:1017EC0002D0082B03D02BE01C4B3B622BE0FB6997
:1017FC009B0C03F00F0328333B4413F8243C7B6110
:10180C00FB6903F48033002B12D0134B5B685B0C29
:10181C0003F0010328333B4413F8283CBB617B697C
:10182C000E4A03FB02F2BB69B2FBF3F37B6204E0EA
:10183C007B690B4A02FB03F37B627B6A3B6202E02F
:10184C00064B3B6200BF3B6A18462837BD4690BC2E
:10185C00704700BFCC2700080010024000127A002D
:10186C0000093D0080B400AF024B1B681846BD4612
:10187C0080BC70470800002080B500AFFFF7F2FF76
:10188C000246054B5B681B0A03F007030349CB5C5C
:10189C0022FA03F3184680BD00100240582F0008AE
:1018AC0080B485B000AF78600A4B1B680A4AA2FB73
:1018BC0003235B0A7A6802FB03F3FB6000BFFB683F
:1018CC005A1EFA60002BF9D100BF00BF1437BD4679
:1018DC0080BC704708000020D34D621080B582B0E8
:1018EC0000AF78607B68002B01D1012341E07B685D
:1018FC0093F83D30DBB2002B06D17B68002283F8D5
:10190C003C207868FEF7A8FE7B68022283F83D2015
:10191C007B681A687B6804331946104600F03CF962
:10192C007B68012283F846207B68012283F83E20E5
:10193C007B68012283F83F207B68012283F84020DA
:10194C007B68012283F841207B68012283F84220C6
:10195C007B68012283F843207B68012283F84420B2
:10196C007B68012283F845207B68012283F83D20A7
:10197C00002318460837BD4680BD000080B485B0F2
:10198C0000AF78607B6893F83D30DBB2012B01D05F
:10199C00012332E07B68022283F83D207B681B68C0
:1019AC00184A93420ED07B681B68B3F1804F09D064
:1019BC007B681B68144A934204D07B681B68134AEB
:1019CC00934211D17B681B689B6803F00703FB6093
:1019DC00FB68062B10D07B681B681A687B681B6839
:1019EC0042F001021A6007E07B681B681A687B688A
:1019FC001B6842F001021A60002318461437BD46DA
:101A0C0080BC7047002C01400004004000080040DE
:101A1C0080B584B000AF786039607B6893F83C3057
:101A2C00012B01D10223B3E07B68012283F83C2017
:101A3C007B68022283F83D207B681B689B68FB60F7
:101A4C00FB6823F07703FB60FB6823F47F43FB60A8
:101A5C007B681B68FA689A603B681B68B3F5005F8B
:101A6C003ED0B3F5005F00F28780B3F5805F00F0E5
:101A7C008580B3F5805F7FD8702B1AD0702B7BD804
:101A8C00602B50D0602B77D8502B3CD0502B73D878
:101A9C00402B58D0402B6FD8302B64D0302B6BD8C8
:101AAC00202B60D0202B67D8002B5CD0102B5AD069
:101ABC0062E07B6818683B6899683B685A683B68C9
:101ACC00DB6800F042F97B681B689B68FB60FB6875
:101ADC0043F07703FB607B681B68FA689A604EE002
:101AEC007B6818683B6899683B685A683B68DB6898
:101AFC0000F02BF97B681B689A687B681B6842F4C2
:101B0C0080429A603BE07B6818683B6859683B6888
:101B1C00DB681A4600F0A2F87B681B685021184657
:101B2C0000F0F9F82BE07B6818683B6859683B6853
:101B3C00DB681A4600F0C0F87B681B686021184609
:101B4C0000F0E9F81BE07B6818683B6859683B6853
:101B5C00DB681A4600F082F87B681B684021184647
:101B6C0000F0D9F80BE07B681A683B681B681946D3
:101B7C00104600F0D0F802E000BF00E000BF7B6828
:101B8C00012283F83D207B68002283F83C2000234F
:101B9C0018461037BD4680BD80B485B000AF786064
:101BAC0039607B681B68FB607B68294A93420BD0C9
:101BBC007B68B3F1804F07D07B68264A934203D0F1
:101BCC007B68254A934208D1FB6823F07003FB60C5
:101BDC003B685B68FA681343FB607B681C4A934262
:101BEC000BD07B68B3F1804F07D07B68194A9342C6
:101BFC0003D07B68184A934208D1FB6823F44073E6
:101C0C00FB603B68DB68FA681343FB60FB6823F0FE
:101C1C0080023B685B691343FB607B68FA681A605F
:101C2C003B689A687B68DA623B681A687B689A62E0
:101C3C007B68074A934203D13B681A697B681A6335
:101C4C007B6801225A6100BF1437BD4680BC7047C7
:101C5C00002C0140000400400008004080B487B014
:101C6C0000AFF860B9607A60FB681B6A7B61FB6847
:101C7C001B6A23F00102FB681A62FB689B693B61DB
:101C8C003B6923F0F0033B617B681B013A6913430A
:101C9C003B617B6923F00A037B617A69BB68134360
:101CAC007B61FB683A699A61FB687A691A6200BFCA
:101CBC001C37BD4680BC704780B487B000AFF8605D
:101CCC00B9607A60FB681B6A23F01002FB681A6229
:101CDC00FB689B697B61FB681B6A3B617B6923F436
:101CEC0070437B617B681B037A6913437B613B699F
:101CFC0023F0A0033B61BB681B013A6913433B61B2
:101D0C00FB687A699A61FB683A691A6200BF1C37F2
:101D1C00BD4680BC704780B485B000AF7860396038
:101D2C007B689B68FB60FB6823F07003FB603A6880
:101D3C00FB68134343F00703FB607B68FA689A6007
:101D4C0000BF1437BD4680BC704780B487B000AF6D
:101D5C00F860B9607A603B60FB689B687B617B696B
:101D6C0023F47F437B613B681A027B681A43BB6890
:101D7C0013437A6913437B61FB687A699A6000BFED
:101D8C001C37BD4680BC704780B485B000AF78600E
:101D9C0039607B6893F83C30012B01D1022346E07B
:101DAC007B68012283F83C207B68022283F83D206B
:101DBC007B681B685B68FB607B681B689B68BB600F
:101DCC00FB6823F07003FB603B681B68FA681343E5
:101DDC00FB607B681B68FA685A607B681B68164A54
:101DEC0093420ED07B681B68B3F1804F09D07B689F
:101DFC001B68124A934204D07B681B68104A9342BA
:101E0C000CD1BB6823F08003BB603B685B68BA688D
:101E1C001343BB607B681B68BA689A607B680122BD
:101E2C0083F83D207B68002283F83C200023184671
:101E3C001437BD4680BC7047002C014000040040A4
:101E4C0000080040014B1868704700BF14000020C8
:101E5C0070B500260C4D0D4C641BA410A64209D184
:101E6C0000F09CFC00260A4D0A4C641BA410A642F0
:101E7C0005D170BD55F8043B98470136EEE755F88F
:101E8C00043B98470136F2E7942F0008942F000882
:101E9C00942F0008982F000803460244934200D167
:101EAC00704703F8011BF9E70EB46FF0004100B561
:101EBC009CB01DAB0290069007910491084809490B
:101ECC0053F8042B0591006802A9019300F068F8FF
:101EDC000022029B1A701CB05DF804EB03B0704733
:101EEC00140000200802FFFF2DE9F0478E6882469F
:101EFC009E420C4690461F4638D88A8912F4906F41
:101F0C0032D0256809690133A5EB010965694B4499
:101F1C0005EB450505EBD5756D109D4238BF1D468B
:101F2C00530531D5294600F06FFB064650B90C23FA
:101F3C004FF0FF30CAF80030A38943F04003A3816F
:101F4C00BDE8F0874A46216900F0CEFAA38923F454
:101F5C00906343F08003A38126614E4426603E4685
:101F6C006561A5EB0905A560BE4200D93E46324627
:101F7C004146206800F0C6FAA36800209B1BA360B2
:101F8C00236833442360DBE72A4600F0B1FB0646A6
:101F9C000028E1D15046216900F0CEFAC7E70000D5
:101FAC002DE9F04F98468B8907461B060D461446C3
:101FBC009DB00ED50B6963B9402100F025FB28605C
:101FCC00286120B90C233B604FF0FF30D1E0402357
:101FDC006B610023099320238DF8293030234FF0B7
:101FEC000109CDF80C80DFF8A4818DF82A30234646
:101FFC009A4613F8012B0AB1252AF9D1BAEB040B36
:10200C000BD05B46224629463846FFF76DFF013060
:10201C0000F0AA80099A5A4409929AF80030002BD1
:10202C0000F0A28000234FF0FF32CDE905230AF126
:10203C00010A049307938DF853301A9354460522E2
:10204C0014F8011B514800F041FA049AD8B9D00693
:10205C0044BF20238DF85330110744BF2B238DF838
:10206C0053309AF800302A2B15D0544600204FF0EC
:10207C000A0C079A214611F8013B303B092B4ED92B
:10208C00B0B1079214E0A0EB080309FA03F3134371
:10209C00A2460493D2E7039B191D1B680391002BE6
:1020AC00BBBF5B4242F0020207930793B8BF049296
:1020BC0023782E2B0CD163782A2B35D1039B023439
:1020CC001A1D1B680392002BB8BF4FF0FF3305930A
:1020DC00DFF8BCA003225046217800F0F7F940B19C
:1020EC004023A0EB0A0003FA00F0049B01340343E5
:1020FC00049314F8011B062226488DF8281000F0D2
:10210C00E5F9002838D0244B1BBB039B073323F085
:10211C00070308330393099B3344099367E70C4681
:10212C0001200CFB0232A5E700234FF00A0C1946E4
:10213C0001340593204610F8012B303A092A03D9B3
:10214C00002BC5D00591C3E7044601230CFB0121EC
:10215C00F0E703AB00932A463846104B04A9AFF3C3
:10216C000080421C0646D6D1AB895B063FF52CAFEE
:10217C0009981DB0BDE8F08F03AB00932A46384692
:10218C00064B04A900F07CF8EBE700BF602F0008B9
:10219C00662F00086A2F000800000000F51E0008DA
:1021AC002DE9F047164699468A680B690746934213
:1021BC00B8BF1346336091F843200C46DDF82080FD
:1021CC000AB1013333602368990642BF3368023386
:1021DC003360256815F0060506D104F1190AE36889
:1021EC0032689B1AAB4228DC94F84320131E2268F9
:1021FC0018BF012392062DD44946384604F14302F8
:10220C00C047013020D02368E56803F00603042B97
:10221C0018BF002532684FF00006A36808BFAD1A3E
:10222C00226908BF25EAE5759342C4BF9B1AED18D5
:10223C001A34B5421AD1002008E00123524649460F
:10224C003846C047013003D14FF0FF30BDE8F0876E
:10225C000135C4E73020E11881F843005A1C94F88A
:10226C0045102244023382F84310C5E7012322466D
:10227C0049463846C0470130E6D00136D9E7000060
:10228C002DE9FF470F7E9146782F80460C469A46E3
:10229C000C9D01F1430207D8622F0AD8002F00F0E1
:1022AC00D980582F00F0A48004F1420584F84270C4
:1022BC003AE0A7F16303152BF6D801A151F823F0EE
:1022CC002523000839230008B5220008B522000890
:1022DC00B5220008B522000839230008B5220008F1
:1022EC00B5220008B5220008B522000847240008D2
:1022FC006923000829240008B5220008B52200082B
:10230C0069240008B522000869230008B5220008DA
:10231C00B5220008312400082B681A1D1B682A609E
:10232C0004F1420584F842300123A4E020682968B6
:10233C00060601F104030AD50E682B60002E03DAA1
:10234C002D23764284F843300A235E4819E00E6848
:10235C0010F0400F2B6018BF36B2EFE72B682068E7
:10236C00191D2960010601D51E6802E04606FBD541
:10237C001E886F2F0CBF08230A235248002184F8B3
:10238C0043106568002DA8BF2168A560A4BF21F08B
:10239C00040121600EB9002D4DD01546B6FBF3F1AA
:1023AC0003FB1167C75D05F8017D3746BB420E463E
:1023BC00F4D9082B0BD12368DE0708D52369616893
:1023CC009942DEBF302305F8013C05F1FF35521B65
:1023DC0022614B4621464046CDF800A003AAFFF7E8
:1023EC00DFFE01304CD14FF0FF3004B0BDE8F08778
:1023FC00344881F845702968236851F8046B2960CA
:10240C001D0614D5DF0744BF43F0200323601EB91B
:10241C00236823F0200323601023AFE7236843F0E5
:10242C00200323607823284884F84530E3E75906D5
:10243C0048BFB6B2E6E71546BBE72B682668181D01
:10244C006169286035061B6801D5196002E07006C9
:10245C00FBD51980002315462361BAE72B680021B0
:10246C001A1D2A601D686268284600F02FF808B112
:10247C00401B606063682361002384F84330A8E745
:10248C002A46494640462369D0470130ABD02368E1
:10249C009B0713D4E068039B9842B8BF1846A4E787
:1024AC000123324649464046D04701309BD0013586
:1024BC00E36803995B1AAB42F2DCEBE7002504F10D
:1024CC001906F5E7712F0008822F0008034610B596
:1024DC00C9B202449342184601D1002003E00478AB
:1024EC0001338C42F6D110BD0A44914200F1FF3306
:1024FC0000D1704710B511F8014B914203F8014F10
:10250C00F9D110BD884210B501EB020402D9844206
:10251C00234607D8431EA14208D011F8012B03F81B
:10252C00012FF8E7014602448A4200D110BD13F88E
:10253C00014D02F8014DF7E738B50546002940D0AA
:10254C0051F8043C0C1F002BB8BFE41800F010F934
:10255C001C4A136833B9636014602846BDE83840E0
:10256C0000F00CB9A34208D9206821188B4201BF96
:10257C0019685B6809182160EDE71A465B680BB1B6
:10258C00A342FAD911685018A0420BD1206801441B
:10259C00501883421160E0D118685B6801441160E7
:1025AC005360DAE702D90C232B60D6E72068211898
:1025BC008B4201BF19685B68091821606360546025
:1025CC00CBE738BD9C00002070B50E4E0C46316830
:1025DC00054611B900F0BCF830602146284600F0E1
:1025EC00B7F8431C0AD0C41C24F00304A04207D043
:1025FC00211A284600F0ACF8013001D14FF0FF341D
:10260C00204670BDA00000202DE9F041CD1C25F026
:10261C00030508350C2D38BF0C25002D074601DBB2
:10262C00A94205D90C2300263B603046BDE8F08159
:10263C002E4E00F09DF833681C4634BB29463846B4
:10264C00FFF7C2FF431C04464DD134682646002ECA
:10265C0040D123683146384604EB030800F078F883
:10266C0080453AD1216803356D1A25F003050835EC
:10267C000C2D38BF0C2538462946FFF7A5FF013035
:10268C002BD023682B4423600EE02268521B1ED4EF
:10269C000B2A16D96119A342256018BF59606368CB
:1026AC0008BF316062514B60384604F10B0600F0F4
:1026BC0065F826F00706231DF21AB6D09B1BA35013
:1026CC00B3E76268A3420CBF32605A60ECE7234662
:1026DC006468B2E734467668B9E70C2338463B6049
:1026EC0000F04CF8A1E72560DEE700BF9C0000205D
:1026FC002DE9F041804614460E4621B91146BDE83D
:10270C00F041FFF781BF2AB9FFF716FF254628468F
:10271C00BDE8F08100F038F88442074602D8B4EBEB
:10272C00500F12D821464046FFF76EFF0546002891
:10273C00EDD0BC422246314628BF3A46FFF7D4FEC4
:10274C0031464046FFF7F8FEE1E73546DFE700008B
:10275C0038B50023054D044608462B60FDF7C8FF2D
:10276C00431C02D12B6803B1236038BDA4000020A8
:10277C00014800F011B800BFA8000020014800F08B
:10278C000CB800BFA800002051F8043C181F002B07
:10279C00BCBF0B58C018704770477047F8B500BFE6
:1027AC00F8BC08BC9E467047F8B500BFF8BC08BC26
:0427BC009E4670477E
:1027C000436F756E74202564000000000203040549
:1027D000060708090A0B0C0D0E0F10100000000070
:1027E00000000000000000000000000000000000E9
:1027F0000010001000100010001000100000001069
:102800000000000000280028002800000000000050
:10281000000000000000000000240024007C0024D0
:102820000048007C004800480000000000380054C8
:10283000005000380014005400540038001000000C
:1028400000200054005800300028005400140008F4
:10285000000000000010002800280010003400488C
:1028600000480034000000000010001000100000BC
:102870000000000000000000000000000008001040
:102880000020002000200020002000200010000870
:1028900000200010000800080008000800080008D8
:1028A0000010002000100038001000280000000078
:1028B00000000000000000000000000000100010F8
:1028C000007C00100010000000000000000000006C
:1028D00000000000000000000000001000100010C8
:1028E00000000000000000000000003800000000B0
:1028F00000000000000000000000000000000000D8
:102900000000001000000000000800080010001087
:1029100000100010002000200000000000380044DB
:10292000004400540044004400440038000000000B
:1029300000100030005000100010001000100010B7
:1029400000000000003800440044000400080010AB
:102950000020007C00000000003800440004001843
:1029600000040004004400380000000000080018C3
:10297000002800280048007C000800080000000033
:10298000007C00400040007800040004004400384F
:10299000000000000038004400400078004400447B
:1029A0000044003800000000007C00040008001013
:1029B000001000200020002000000000003800442B
:1029C0000044003800440044004400380000000087
:1029D0000038004400440044003C00040044003837
:1029E00000000000000000000010000000000000D7
:1029F00000000010000000000000000000000010B7
:102A00000000000000000010001000100000000096
:102A1000000C003000400030000C000000000000FE
:102A2000000000000000007C0000007C00000000AE
:102A30000000000000000000006000180004001802
:102A4000006000000000000000380044000400089E
:102A500000100010000000100000000000380044CA
:102A6000004C0054005C00400040003800000000B2
:102A700000100028002800280028007C00440044A2
:102A80000000000000780044004400780044004446
:102A9000004400780000000000380044004000407E
:102AA0000040004000440038000000000070004872
:102AB000004400440044004400480070000000004E
:102AC000007C00400040007C004000400040007C52
:102AD00000000000007C0040004000780040004002
:102AE000004000400000000000380044004000406A
:102AF000005C004400440038000000000044004432
:102B00000044007C004400440044004400000000F5
:102B100000380010001000100010001000100038E5
:102B2000000000000004000400040004000400048D
:102B300000440038000000000044004800500060DD
:102B400000500048004800440000000000400040E1
:102B500000400040004000400040007C00000000B9
:102B60000044006C006C00540044004400440044E5
:102B70000000000000440064006400540054004C55
:102B8000004C0044000000000038004400440044B1
:102B90000044004400440038000000000078004475
:102BA0000044004400780040004000400000000065
:102BB00000380044004400440044004400540038FD
:102BC00000040000007800440044004400780048FD
:102BD000004800440000000000380044004000307D
:102BE000000800040044003800000000007C0010D1
:102BF0000010001000100010001000100000000075
:102C000000440044004400440044004400440038B0
:102C10000000000000440044004400280028002870
:102C20000010001000000000004400440054005454
:102C30000054006C00280028000000000044002818
:102C400000280010001000280028004400000000A8
:102C5000004400440028002800100010001000105C
:102C600000000000007C000400080010001000209C
:102C70000040007C00000000001800100010001050
:102C8000001000100010001000100018002000209C
:102C900000100010001000100008000800000000E4
:102CA0000030001000100010001000100010001084
:102CB0000010003000100028002800440000000030
:102CC0000000000000000000000000000000000004
:102CD0000000000000000000000000FE00200010C6
:102CE00000000000000000000000000000000000E4
:102CF0000000000000380044003C0044004C003458
:102D000000000000004000400058006400440044FF
:102D1000006400580000000000000000003800447B
:102D2000004000400044003800000000000400049F
:102D30000034004C00440044004C0034000000000B
:102D40000000000000380044007C004000440038CF
:102D500000000000000C0010007C001000100010AB
:102D60000010001000000000000000000034004CC3
:102D700000440044004C003400040078004000404F
:102D80000058006400440044004400440000000077
:102D90000010000000700010001000100010001063
:102DA0000000000000100000007000100010001073
:102DB00000100010001000E00040004000480050EB
:102DC0000060005000480044000000000070001047
:102DD0000010001000100010001000100000000093
:102DE00000000000007800540054005400540054C7
:102DF000000000000000000000580064004400448F
:102E000000440044000000000000000000380044BE
:102E100000440044004400380000000000000000AE
:102E20000058006400440044006400580040004022
:102E3000000000000034004C00440044004C00340A
:102E4000000400040000000000580064004000403E
:102E50000040004000000000000000000038004476
:102E6000003000080044003800000000002000206E
:102E70000078002000200020002000180000000042
:102E8000000000000044004400440044004C0034B2
:102E9000000000000000000000440044002800285A
:102EA0000028001000000000000000000054005442
:102EB0000054006C00280028000000000000000002
:102EC000004400280010001000280044000000000A
:102ED00000000000004400440028002800100010FA
:102EE0000010006000000000007C000800100020BE
:102EF0000040007C000000000018001000100010CE
:102F00000020002000100010001000180010001019
:102F10000010001000100010001000100010001031
:102F20000030001000100010000800080010001011
:102F3000001000300000000000000074004C000091
:102F40000000000000000000000000000000000081
:102F5000010203040607080900000000010203043F
:102F6000232D302B2000686C4C0065666745464772
:102F700000303132333435363738394142434445F5
:102F80004600303132333435363738396162636464
:042F90006566000072
:042F940031010008FF
:042F98000D0100081F
:102F9C00070A0000DC2700080024F40010000000E1
:102FAC0001000000180000200000000000000000DC
:102FBC000000000000000000000000000000000005
:102FCC0000000000000000000000000000000000F5
:102FDC0000000000000000000000000000000000E5
:102FEC0000000000000000000000000000000000D5
:102FFC0000000000000000000000000000000000C5
:08300C000000000000000000BC
:040000050800077573
:00000001FF
