:020000040800F2
:100000000050002051180008251800082718000883
:10001000291800082B1800082D18000800000000FF
:100020000000000000000000000000002F18000881
:1000300031180008000000003318000835180008C7
:1000400099180008991800089918000899180008CC
:1000500099180008991800089918000899180008BC
:1000600099180008991800089918000899180008AC
:10007000991800089918000899180008991800089C
:10008000991800089918000899180008991800088C
:10009000991800089918000899180008991800087C
:1000A000991800089918000899180008991800086C
:1000B000991800089918000899180008991800085C
:1000C000991800089918000899180008991800084C
:1000D000991800089918000899180008991800083C
:1000E0003918000899180008991800080000000045
:1000F0000000000000000000000000000000000000
:0C01000000000000000000005FF808F1A3
:10010C0010B5054C237833B9044B13B10448AFF345
:10011C0000800123237010BD14000020000000009B
:10012C00242A000808B5034B1BB103490348AFF35D
:10013C00008008BD0000000018000020242A0008E0
:10014C0081F0004102E000BF83F0004330B54FEA7C
:10015C0041044FEA430594EA050F08BF90EA020FE9
:10016C001FBF54EA000C55EA020C7FEA645C7FEA7C
:10017C00655C00F0E2804FEA5454D4EB5555B8BF9F
:10018C006D420CDD2C4480EA020281EA030382EA10
:10019C00000083EA010180EA020281EA0303362DA2
:1001AC0088BF30BD11F0004F4FEA01314FF4801C75
:1001BC004CEA113102D0404261EB410113F0004F87
:1001CC004FEA03334CEA133302D0524263EB43033E
:1001DC0094EA050F00F0A780A4F10104D5F1200EDC
:1001EC000DDB02FA0EFC22FA05F2801841F1000137
:1001FC0003FA0EF2801843FA05F359410EE0A5F10B
:10020C0020050EF1200E012A03FA0EFC28BF4CF03B
:10021C00020C43FA05F3C01851EBE37101F00045F1
:10022C0007D54FF0000EDCF1000C7EEB00006EEBFE
:10023C000101B1F5801F1BD3B1F5001F0CD3490888
:10024C005FEA30004FEA3C0C04F101044FEA4452DF
:10025C0012F5800F80F09A80BCF1004F08BF5FEA66
:10026C00500C50F1000041EB045141EA050130BD46
:10027C005FEA4C0C404141EB0101013C28BFB1F558
:10028C00801FE9D291F0000F04BF01460020B1FAA3
:10029C0081F308BF2033A3F10B03B3F120020CDA76
:1002AC000C3208DD02F1140CC2F10C0201FA0CF054
:1002BC0021FA02F10CE002F11402D8BFC2F1200CB9
:1002CC0001FA02F120FA0CFCDCBF41EA0C0190406F
:1002DC00E41AA2BF01EB0451294330BD6FEA0404B8
:1002EC001F3C1CDA0C340EDC04F11404C4F12002A3
:1002FC0020FA04F001FA02F340EA030021FA04F3B5
:10030C0045EA030130BDC4F10C04C4F1200220FA0B
:10031C0002F001FA04F340EA0300294630BD21FA49
:10032C0004F0294630BD94F0000F83F4801306BF0F
:10033C0081F480110134013D4EE77FEA645C18BF03
:10034C007FEA655C29D094EA050F08BF90EA020F9A
:10035C0005D054EA000C04BF1946104630BD91EA92
:10036C00030F1EBF0021002030BD5FEA545C05D195
:10037C004000494128BF41F0004130BD14F58004D4
:10038C003CBF01F5801130BD01F0004545F0FE4148
:10039C0041F470014FF0000030BD7FEA645C1ABF7D
:1003AC00194610467FEA655C1CBF0B46024650EAB4
:1003BC00013406BF52EA033591EA030F41F40021E0
:1003CC0030BD00BF90F0000F04BF0021704730B566
:1003DC004FF4806404F132044FF000054FF000013B
:1003EC0050E700BF90F0000F04BF0021704730B5FC
:1003FC004FF4806404F1320410F0004548BF4042D1
:10040C004FF000013EE700BF42004FEAE2014FEA25
:10041C0031014FEA02701FBF12F07F4393F07F4F00
:10042C0081F06051704732F07F4208BF704793F003
:10043C007F4F04BF41F40021704730B54FF4607416
:10044C0001F0004521F000411CE700BF50EA010219
:10045C0008BF704730B54FF000050AE050EA0102C2
:10046C0008BF704730B511F0004502D5404261EB32
:10047C0041014FF4806404F132045FEA915C3FF473
:10048C00D8AE4FF003025FEADC0C18BF03325FEA10
:10049C00DC0C18BF033202EBDC02C2F1200300FAC1
:1004AC0003FC20FA02F001FA03FE40EA0E0021FAE6
:1004BC0002F11444BDE600BF70B54FF0FF0C4CF4D4
:1004CC00E06C1CEA11541DBF1CEA135594EA0C0F86
:1004DC0095EA0C0F00F0DEF82C4481EA030621EAC1
:1004EC004C5123EA4C5350EA013518BF52EA0335FC
:1004FC0041F4801143F4801338D0A0FB02CE4FF0AE
:10050C000005E1FB02E506F00042E0FB03E54FF0DD
:10051C000006E1FB03569CF0000F18BF4EF0010ED5
:10052C00A4F1FF04B6F5007F64F5407404D25FEAD1
:10053C004E0E6D4146EB060642EAC62141EA555184
:10054C004FEAC52040EA5E504FEACE2EB4F1FD0CC6
:10055C0088BFBCF5E06F1ED8BEF1004F08BF5FEA44
:10056C00500E50F1000041EB045170BD06F00046F6
:10057C0046EA010140EA020081EA0301B4EB5C04A3
:10058C00C2BFD4EB0C0541EA045170BD41F480119B
:10059C004FF0000E013C00F3AB8014F1360FDEBFC0
:1005AC00002001F0004170BDC4F10004203C35DA9C
:1005BC000C341BDC04F11404C4F1200500FA05F31F
:1005CC0020FA04F001FA05F240EA020001F00042C0
:1005DC0021F0004110EBD37021FA04F642EB060136
:1005EC005EEA430E08BF20EAD37070BDC4F10C0460
:1005FC00C4F1200500FA04F320FA05F001FA04F224
:10060C0040EA020001F0004110EBD37041F100010F
:10061C005EEA430E08BF20EAD37070BDC4F120051A
:10062C0000FA05F24EEA020E20FA04F301FA05F282
:10063C0043EA020321FA04F001F0004121FA04F22A
:10064C0020EA020000EBD3705EEA430E08BF20EAFA
:10065C00D37070BD94F0000F0FD101F00046400034
:10066C0041EB010111F4801F08BF013CF7D041EAB6
:10067C00060195F0000F18BF704703F000465200BA
:10068C0043EB030313F4801F08BF013DF7D043EA8B
:10069C000603704794EA0C0F0CEA135518BF95EA41
:1006AC000C0F0CD050EA410618BF52EA4306D1D1C8
:1006BC0081EA030101F000414FF0000070BD50EAE7
:1006CC00410606BF1046194652EA430619D094EA71
:1006DC000C0F02D150EA013613D195EA0C0F05D15B
:1006EC0052EA03361CBF104619460AD181EA0301AF
:1006FC0001F0004141F0FE4141F470014FF0000067
:10070C0070BD41F0FE4141F4780170BD70B54FF001
:10071C00FF0C4CF4E06C1CEA11541DBF1CEA135581
:10072C0094EA0C0F95EA0C0F00F0A7F8A4EB050463
:10073C0081EA030E52EA03354FEA013100F088805A
:10074C004FEA03334FF0805545EA131343EA126323
:10075C004FEA022245EA111545EA10654FEA0026D8
:10076C000EF000419D4208BF964244F1FD0404F591
:10077C00407402D25B084FEA3202B61A65EB0305ED
:10078C005B084FEA32024FF480104FF4002CB6EBAA
:10079C00020E75EB030E22BFB61A754640EA0C002A
:1007AC005B084FEA3202B6EB020E75EB030E22BF6A
:1007BC00B61A754640EA5C005B084FEA3202B6EBAB
:1007CC00020E75EB030E22BFB61A754640EA9C006A
:1007DC005B084FEA3202B6EB020E75EB030E22BF3A
:1007EC00B61A754640EADC0055EA060E18D04FEAF8
:1007FC00051545EA16754FEA06164FEAC30343EA98
:10080C0052734FEAC2025FEA1C1CC0D111F4801F64
:10081C000BD141EA00014FF000004FF0004CB6E75D
:10082C0011F4801F04BF01430020B4F1FD0C88BFFC
:10083C00BCF5E06F3FF6AFAEB5EB030C04BFB6EB07
:10084C00020C5FEA500C50F1000041EB045170BDFA
:10085C000EF0004E4EEA113114EB5C04C2BFD4EB27
:10086C000C0541EA045170BD41F480114FF0000EAB
:10087C00013C90E645EA060E8DE60CEA135594EA27
:10088C000C0F08BF95EA0C0F3FF43BAF94EA0C0F2A
:10089C000AD150EA01347FF434AF95EA0C0F7FF49F
:1008AC0025AF104619462CE795EA0C0F06D152EAF3
:1008BC0003353FF4FDAE1046194622E750EA4106D7
:1008CC0018BF52EA43067FF4C5AE50EA41047FF4E8
:1008DC000DAF52EA43057FF4EBAE12E74FEA41024B
:1008EC00B2F1E04324BFB3F5001CDCF1FE5C0DD982
:1008FC0001F0004C4FEAC0024CEA5070B2F1004FCC
:10090C0040EB830008BF20F00100704711F0804FCE
:10091C0021D113F13872BCBF01F00040704741F493
:10092C0080114FEA5252C2F11802C2F1200C10FA97
:10093C000CF320FA02F018BF40F001004FEAC1237B
:10094C004FEAD32303FA0CFC40EA0C0023FA02F31F
:10095C004FEA4303CCE77FEA625307D150EA0133F5
:10096C001EBF4FF0FE4040F44000704701F00040C5
:10097C0040F0FE4040F40000704700BF80F00040A3
:10098C0002E000BF81F0004142001FBF5FEA41035B
:10099C0092EA030F7FEA226C7FEA236C6AD04FEA5B
:1009AC001262D2EB1363C1BFD218414048404140A0
:1009BC00B8BF5B42192B88BF704710F0004F40F452
:1009CC00000020F07F4018BF404211F0004F41F46E
:1009DC00000121F07F4118BF494292EA030F3FD03A
:1009EC00A2F1010241FA03FC10EB0C00C3F120034D
:1009FC0001FA03F100F0004302D5494260EB4000DC
:100A0C00B0F5000F13D3B0F1807F06D340084FEA46
:100A1C00310102F10102FE2A51D2B1F1004F40EB3B
:100A2C00C25008BF20F0010040EA030070474900A3
:100A3C0040EB0000013A28BFB0F5000FEDD2B0FA40
:100A4C0080FCACF1080CB2EB0C0200FA0CF0AABF63
:100A5C0000EBC25052421843BCBFD0401843704701
:100A6C0092F0000F81F4000106BF80F40000013207
:100A7C00013BB5E74FEA41037FEA226C18BF7FEADE
:100A8C00236C21D092EA030F04D092F0000F08BF20
:100A9C000846704790EA010F1CBF0020704712F007
:100AAC007F4F04D1400028BF40F00040704712F146
:100ABC0000723CBF00F50000704700F0004343F0AB
:100ACC00FE4040F4000070477FEA226216BF0846E1
:100ADC007FEA23630146420206BF5FEA412390EAA4
:100AEC00010F40F4800070474FF0000304E000BF9A
:100AFC0010F0004348BF40425FEA000C08BF70474B
:100B0C0043F0964301464FF000001CE050EA01020E
:100B1C0008BF70474FF000030AE000BF50EA010223
:100B2C0008BF704711F0004302D5404261EB410110
:100B3C005FEA010C02BF84460146002043F0B64335
:100B4C0008BFA3F18053A3F50003BCFA8CF2083A5A
:100B5C00A3EBC25310DB01FA02FC634400FA02FC63
:100B6C00C2F12002BCF1004F20FA02F243EB02006A
:100B7C0008BF20F00100704702F1200201FA02FCCC
:100B8C00C2F1200250EA4C0021FA02F243EB0200BF
:100B9C0008BF20EADC7070474FF0FF0C1CEAD05203
:100BAC001EBF1CEAD15392EA0C0F93EA0C0F6FD0C4
:100BBC001A4480EA010C400218BF5FEA41211ED0A2
:100BCC004FF0006343EA501043EA5111A0FB01318E
:100BDC000CF00040B1F5000F3EBF490041EAD37163
:100BEC005B0040EA010062F17F02FD2A1DD8B3F1DF
:100BFC00004F40EBC25008BF20F00100704790F04E
:100C0C00000F0CF0004C08BF49024CEA502040EA9F
:100C1C0051207F3AC2BFD2F1FF0340EAC250704765
:100C2C0040F400004FF00003013A5DDC12F1190FA3
:100C3C00DCBF00F000407047C2F10002410021FA15
:100C4C0002F1C2F1200200FA02FC5FEA310040F12D
:100C5C00000053EA4C0308BF20EADC70704792F0A6
:100C6C00000F00F0004C02BF400010F4000F013ADE
:100C7C00F9D040EA0C0093F0000F01F0004C02BFD9
:100C8C00490011F4000F013BF9D041EA0C018FE748
:100C9C000CEAD15392EA0C0F18BF93EA0C0F0AD04E
:100CAC0030F0004C18BF31F0004CD8D180EA010074
:100CBC0000F00040704790F0000F17BF90F0004F0D
:100CCC00084691F0000F91F0004F14D092EA0C0FEF
:100CDC0001D142020FD193EA0C0F03D14B0218BF82
:100CEC00084608D180EA010000F0004040F0FE40C8
:100CFC0040F40000704740F0FE4040F44000704764
:100D0C004FF0FF0C1CEAD0521EBF1CEAD15392EAE2
:100D1C000C0F93EA0C0F69D0A2EB030280EA010CD2
:100D2C0049024FEA402037D04FF0805343EA11116B
:100D3C0043EA10130CF000408B4238BF5B0042F1C9
:100D4C007D024FF4000C8B4224BF5B1A40EA0C006E
:100D5C00B3EB510F24BFA3EB510340EA5C00B3EBA0
:100D6C00910F24BFA3EB910340EA9C00B3EBD10F8E
:100D7C0024BFA3EBD10340EADC001B0118BF5FEAE0
:100D8C001C1CE0D1FD2A3FF650AF8B4240EBC25009
:100D9C0008BF20F0010070470CF0004C4CEA5020CA
:100DAC007F32C2BFD2F1FF0340EAC250704740F419
:100DBC0000004FF00003013A37E792F0000F00F00B
:100DCC00004C02BF400010F4000F013AF9D040EA89
:100DDC000C0093F0000F01F0004C02BF490011F41D
:100DEC00000F013BF9D041EA0C0195E70CEAD15315
:100DFC0092EA0C0F08D142027FF47DAF93EA0C0FFC
:100E0C007FF470AF084676E793EA0C0F04D14B02DF
:100E1C003FF44CAF08466EE730F0004C18BF31F091
:100E2C00004CCAD130F000427FF45CAF31F000438B
:100E3C007FF43CAF5FE700BF42000ED2B2F1FE4F31
:100E4C000BD34FF09E03B3EB126209D44FEA00238D
:100E5C0043F0004323FA02F070474FF00000704754
:100E6C0012F1610F01D1420202D14FF0FF307047F5
:100E7C004FF00000704700BFF0B502234FF48074B0
:100E8C000025012685B0694620480393CDE900462C
:100E9C00029500F0BDFD2A4621461C4800F098FE44
:100EAC0032462146194800F093FE69461748CDE9B1
:100EBC00015600F0ADFD2146144800F083FE48B900
:100ECC0000F18040214600F5843000F07BFE451B8C
:100EDC0018BF012500F01EFD0D4E0E4C306000F0C9
:100EEC0019FD0A4F20604FF48071384600F06AFEFD
:100EFC0020B1336822680233934202D8284605B0E9
:100F0C00F0BD00F007FD2060EDE700BF00080140D8
:100F1C00400000203C0000202DE9F0410726002471
:100F2C001E4FDFF87C8000F0F5FC386000F0F2FC1E
:100F3C001C4D28604FF48071404600F043FE20B9F0
:100F4C003B682A680233934222D84FF480714046A2
:100F5C0000F038FE0123B3405BB264B2D8B924EA86
:100F6C00030400F0D7FCE4B2386000F0D3FC4FF47B
:100F7C0080712860404600F025FE20B13B682A684D
:100F8C0002339342F1D8013ECDD22046BDE8F08128
:100F9C0000F0C0FCCDE71C43E3E700BF400000209D
:100FAC00000801403C0000202DE9F8430446FFF7FF
:100FBC00B3FF5B4E5B4D3070FFF7AEFF2870FFF751
:100FCC00ABFF594FDFF864913870FFF7A5FF89F834
:100FDC000000FFF7A1FF0246554B95F800803678CC
:100FEC003D78187099F8000006EB08032B44034475
:100FFC00934240F09380FFF7F5F900224D4BFFF739
:10100C0085FBFFF76BFC81462846FFF76DFD01461B
:10101C004846FFF7B9FC484B48491860FFF7BCFD40
:10102C004749FFF76DFE4FF08441FFF7ADFC454B90
:10103C00054618604046FFF7D5F900223D4BFFF7F7
:10104C0065FBFFF74BFC80463046FFF74DFD014634
:10105C004046FFF799FC3C4B18602846FFF7ECFE26
:10106C003A4BC6B21E703A492846FFF795FD054625
:10107C000A207043FFF73CFD01462846FFF782FC2F
:10108C00FFF7DAFE334B18211870002000F0F8F946
:10109C004FF40051304800F095FD304D621E304B3E
:1010AC00012A8CBF002201222E4900280CBF2846A1
:1010BC00184600F039FA2421002000F0E1F94FF431
:1010CC008041254800F07EFD274D284B621E18BF3D
:1010DC000122244900280CBF2846184600F024FAA7
:1010EC003021002000F0CCF94FF400411A4800F0F8
:1010FC0069FDA21E1E4B1F4C18BF01221949002866
:10110C000CBF2046184600F00FFA00F04DFA387864
:10111C001C2894BF00200120BDE8F8830020FBE7C9
:10112C00350000203400002038000020370000205B
:10113C003600002000002440440000200000104134
:10114C000000A04048000020300000203A000020A1
:10115C000000204139000020001001403C2A00080A
:10116C004D2A0008000000205E2A00086F2A0008A3
:10117C00912A0008802A000838B94FF4005100F178
:10118C00804000F5883000F028BD012804D00228EA
:10119C0006D14FF4004101E04FF480410148F2E7E1
:1011AC00704700BF00100140012901D1FFF7E4BFD7
:1011BC00704710B590B01422002108A801F024FC4F
:1011CC001422002101A801F01FFC02244FF48033EB
:1011DC000122CDE90D43CDE906234FF4E01306A817
:1011EC000A920F9301F014F808B172B6FEE70F23C0
:1011FC00CDE901344FF480630390CDE904302146EE
:10120C0001A801F0DBF908B172B6FEE710B010BD11
:10121C0000B58BB000F060FBFFF7CBFF1022002174
:10122C0006A801F0F1FB724B4FF460419A697148CA
:10123C0042F010029A619A69002402F010020092A6
:10124C00009A9A69022542F020029A619A69012655
:10125C0002F020020192019A9A6942F008029A6106
:10126C009A6902F008020292029A9A6942F0040208
:10127C009A619B69002203F004030393039B00F023
:10128C00A7FC00224FF480715B4800F0A1FC002207
:10129C004FF40071594800F09BFC4FF460435548E3
:1012AC0006A9CDE90636CDE9084500F0B1FB4FF4AF
:1012BC000061534B5148CDE9061306A9089400F080
:1012CC00A7FB4FF480734C4806A9CDE90636CDE94F
:1012DC00084500F09DFB4FF480604A4B06A9CDE910
:1012EC0006034548089400F093FB3823434806A9AD
:1012FC00CDE90634089400F08BFB4FF400733F48A3
:10130C0006A9CDE90636CDE9084500F081FB224659
:10131C002146282000F028FB282000F057FB3A4DEE
:10132C003A483B4BC0E90244C0E900534FF48043B8
:10133C00C0E90644C0E90434046200F037FD0546F8
:10134C0008B172B6FEE71022014606A801F05CFB5C
:10135C004723304C304A2046C4E900234FF6FF7334
:10136C00CDE90455C4E90335C4E90555A56001F080
:10137C002FFA08B172B6FEE74FF48053204606A947
:10138C00069301F05BFA08B172B6FEE7CDE90400F2
:10139C0004A9204601F0E6FA08B172B6FEE7204631
:1013AC0001F0B8F900F022F9144D1C4CAB6803F0B5
:1013BC0010030493AB6803F020030693069A2AB932
:1013CC002368022BD6BF013322602360049B1BB918
:1013DC0001212068FFF7E8FEFFF74EFD10B12068F1
:1013EC00FFF7E2FD4FF4FA7000F09AFADEE700BF67
:1013FC00001002400010014000080140000C0140A8
:10140C00000021100000111000540040500000207A
:10141C00801A0600A4000020002C01404C00002083
:10142C0000284FF4806214BFFF210021014801F015
:10143C00EBBA00BFF20000207F2830B511D83F294D
:10144C000FD80D4B0D4C1D79CB0801F007014DB198
:10145C0052B900EBC310012303FA01F1235C1943C9
:10146C00215430BD012AF4D000EBC31001238B4072
:10147C00215C21EA0301F3E7EC000020F2000020DC
:10148C00014B188059807047EC0000202DE9F04F7B
:10149C00DFF890B09146BBF800600A7805463244FC
:1014AC007F2A0C4685B03ADCBBF802304A780193AF
:1014BC001A443F2A33DC0027A0F1200303936278FF
:1014CC00974207D322781644ABF80060284605B043
:1014DC00BDE8F08F4FF00008039B616802FB0372BC
:1014EC0031F812300293019BD9191FFA81FA227834
:1014FC00904501D30137E2E7029B06EB080003FAA3
:10150C0008F2130454BFB9FA89F24A46514680B224
:10151C0058BF5209FFF790FF08F10108E7E70025D3
:10152C00D4E700BFEC00002070B50D461646441EF3
:10153C0014F8010F38B132462946FFF7A7FF0346CE
:10154C0020788342F4D070BD30B50024C3B08DF840
:10155C000810E1B2994204F101050AD30A220133C1
:10156C00014600929BB202AA054800F0C7FC43B0AA
:10157C0030BD02AC0C44515C61702C46E9E700BFF5
:10158C00500000201FB50A238DF80C108DF80D208B
:10159C000146009303AA0223024800F0AFFC05B0F9
:1015AC005DF804FB5000002038B5B0240E4D2246E7
:1015BC0000217820FFF7E6FF002278201146FFF784
:1015CC00E1FF0134102200217820FFF7DBFFE4B2A9
:1015DC002A46802340217820FFF7B6FFB82C05F16E
:1015EC008005E4D138BD00BFF200002010B544F6F0
:1015FC00206301227821524800F058FD044600284F
:10160C0040F09C800146AE227820FFF7BBFF2022E1
:10161C0021467820FFF7B6FF102221467820FFF7ED
:10162C00B1FFB02221467820FFF7ACFFC82221463B
:10163C007820FFF7A7FF224621467820FFF7A2FF6C
:10164C00102221467820FFF79DFF4022214678206A
:10165C00FFF798FF812221467820FFF793FFFF22A6
:10166C0021467820FFF78EFFA12221467820FFF734
:10167C0089FFA62221467820FFF784FFA822214665
:10168C007820FFF77FFF3F2221467820FFF77AFF73
:10169C00A42221467820FFF775FFD322214678201B
:1016AC00FFF770FF224621467820FFF76BFFD5220B
:1016BC0021467820FFF766FFF02221467820FFF7BD
:1016CC0061FFD92221467820FFF75CFF22222146B8
:1016DC007820FFF757FFDA2221467820FFF752FFD8
:1016EC00122221467820FFF74DFFDB22214678207D
:1016FC00FFF748FF202221467820FFF743FF8D2279
:10170C0021467820FFF73EFF142221467820FFF770
:10171C0039FFAF2221467820FFF734FF2E222146D5
:10172C007820FFF72FFF2046FFF77AFEFFF73CFFEC
:10173C000120044B1C805C80587110BD0020FCE71C
:10174C0050000020EC0000200E4B82B09A6942F051
:10175C0001029A619A6902F001020092009ADA6918
:10176C0042F08052DA61DB69074A03F0805301933F
:10177C00019B536823F0E06343F00073536002B0A5
:10178C00704700BF001002400000014010B5044635
:10179C0086B01022002102A801F036F92268114B04
:1017AC009A421CD1104CC022A369104843F0080384
:1017BC00A361A36902A903F008030093009B122301
:1017CC00CDE902230323059300F022F9E36943F4E6
:1017DC000013E361E36903F400130193019B06B06A
:1017EC0010BD00BF0054004000100240000C01402E
:1017FC000268084B82B09A420AD103F564439A6995
:10180C0042F400629A619B6903F400630193019BAB
:10181C0002B07047002C0140FEE7FEE7FEE7FEE752
:10182C00FEE770477047704700F068B808B54FF492
:10183C00806000F0DDF9BDE808404FF4006000F076
:10184C00D7B970470C480D490D4A002302E0D45813
:10185C00C4500433C4188C42F9D30A4A0A4C0023EE
:10186C0001E013600432A242FBD3FFF7EAFF01F060
:10187C00A7F8FFF7CDFC70470000002014000020F3
:10188C004032000814000020F8040020FEE700009D
:10189C0038B50E4B054618784FF47A73B3FBF0F35A
:1018AC000B4A1068B0FBF3F000F09EF8044658B9F0
:1018BC000F2D09D8024629464FF0FF3000F054F89E
:1018CC002046044B1D6038BD0120FCE70C000020B5
:1018DC000800002010000020074A08B513680320F8
:1018EC0043F01003136000F02DF80F20FFF7D0FF2A
:1018FC00FFF72AFF002008BD00200240034A044BDA
:10190C0011681B780B441360704700BFF40400206F
:10191C000C000020014B1868704700BFF404002035
:10192C0038B50446FFF7F6FF0546631C1EBF044B93
:10193C001B78E418FFF7EEFF431BA342FAD338BD24
:10194C000C00002007490302CA6803F4E06322F488
:10195C00E0621204120C134343F0BF6343F40033F0
:10196C00CB60704700ED00E0164B30B5DC68C4F37B
:10197C000224C4F10703251D042B28BF0423062DC4
:10198C004FF0FF3598BF002405FA03F388BF033CE2
:10199C0021EA0303A34005FA04F422EA0402002816
:1019AC0043EA0203ACBF00F16040074A4FEA03135D
:1019BC00DBB2ABBF00F5614000F00F0080F80033E4
:1019CC00135430BD00ED00E014ED00E0002808DBFE
:1019DC000123420900F01F0003FA00F0014B43F809
:1019EC002200704700E100E00138B0F1807F0BD29B
:1019FC004FF0E023F021054A586182F823100020B3
:101A0C00072298611A6170470120704700ED00E0D1
:101A1C002DE9F74F00221646644F654BDFF894C151
:101A2C00DFF894E10D6835FA06F402D103B0BDE895
:101A3C00F08F4FF0010808FA06F805EA080438EAB6
:101A4C0005057BD14D68032D07D8013D022D00F211
:101A5C008880DFE805F0969BA100122D00F099809C
:101A6C006ED8112D00F08F80FF2C98BF82464FF05E
:101A7C000F0988BF00F1040A4FEA8605DAF80080E6
:101A8C0088BF203D09FA05FB28EA0B0802FA05F588
:101A9C0048EA0505CAF80050D1F804A01AF0805F96
:101AAC004CD0BD6926F0030845F00105BD61BD6948
:101ABC0008F1804805F00105019508F5803806F01D
:101ACC00030B019D4FEA8B0BD8F8085009FA0BF960
:101ADC0025EA0909394DA84262D005F58065A8426E
:101AEC0060D005F58065A8425ED005F58065A842FA
:101AFC000CBF0325042505FA0BF545EA0905C8F8C2
:101B0C0008501D681AF4803F14BF2543A5431D607F
:101B1C005D681AF4003F14BF2543A5435D609D68C2
:101B2C001AF4801F14BF2543A5439D60DD681AF489
:101B3C00001F14BF2C4325EA0404DC60013671E756
:101B4C00DFF87C904D450CD017D8A9F580194D4580
:101B5C0007D009F570294D4503D0A9F580194D45DD
:101B6C0082D18A68D2B1012A08BFC0F810804FF028
:101B7C00080218BFC0F8148076E76545F1D07545AA
:101B8C00EEE7CA6870E7CA6804326DE7CA680832C3
:101B9C006AE7CA680C3267E7002265E7042263E74C
:101BAC000025A8E70125A6E70225A4E700100240BE
:101BBC000004014000003110000032100008014008
:101BCC00000022108368194214BF012000207047C6
:101BDC000AB1016170470904FBE7C36801EA03021B
:101BEC0021EA030141EA024101617047704700009C
:101BFC00044A08B55169014202D05061FFF7F6FF63
:101C0C0008BD00BF00040140016800224B6913F4B9
:101C1C00806310D06FF480634B612023026380F8E3
:101C2C003D3080F83E20036C80F83C2043F00403E8
:101C3C00036401207047184670472DE9F8460646A4
:101C4C000F4691461D464FEA114A3368BAF1010F0F
:101C5C000CBF5C699C6927EA0404A4B2B4FA84F44E
:101C6C006409A14501D0002017E06A1CEED0FFF7F3
:101C7C0051FE089BC01AA84201D8002DE5D10023C3
:101C8C0020220120336386F83D2086F83E30326CEA
:101C9C0086F83C3042F020023264BDE8F8862DE92B
:101CAC00F04104460F46164698462568686927EAAF
:101CBC00000080B2B8B16B695A0516D52B6820228A
:101CCC0043F400732B606FF480636B610023236318
:101CDC0084F83D2084F83E30226C42F0040201204E
:101CEC00226484F83C30BDE8F081731CDED0FFF731
:101CFC0011FEA0EB0800B04201D8002ED5D1002374
:101D0C002022236384F83D2084F83E30226C42F07C
:101D1C002002E4E770B504460D46164623685B695D
:101D2C005B0701D5002070BD2046FFF76DFFA8B9F9
:101D3C006A1CF3D0FFF7EEFD801BA84201D8002DE2
:101D4C00ECD100232022236384F83D2084F83E301C
:101D5C00226C84F83C3042F0200222640120E2E73D
:101D6C0070B504460D46164623685B691B0601D503
:101D7C00002070BD2046FFF747FFA8B96A1CF3D0BE
:101D8C00FFF7C8FD801BA84201D8002DECD1002321
:101D9C002022236384F83D2084F83E30226C84F8A2
:101DAC003C3042F0200222640120E2E770B5044688
:101DBC0008B9012070BD90F83D3003F0FF021BB94B
:101DCC0080F83C20FFF7E2FC242384F83D302368A4
:101DDC001A6822F001021A601A6842F400421A6072
:101DEC001A6822F400421A6000F084FC3F4A6368CF
:101DFC00934294BF3E4A3F4A90428CBF002201223C
:101E0C00002AD6D1394E3C49B342B0FBF1F188BF20
:101E1C004FF49676226800F1FF30556825F03F05A7
:101E2C0045EA010582BF71434FF47A76B1FBF6F1B6
:101E3C005560156A013125F03F0529431162D169BE
:101E4C002A4D21F44F41AB4221F0FF0132D85B0007
:101E5C00B0FBF3F0431C40F6FC70034242D0C3F3DA
:101E6C000B030B43D3611168D4E9073021F0C00197
:101E7C0003430B4313609168D4E9030321F403413A
:101E8C00034321F0FF010B439360D168D4E9053083
:101E9C0021F0FF0103430B43D3601368002043F090
:101EAC00010313602023206484F83D30206384F800
:101EBC003E007FE7A56855B903EB4303B0FBF3F392
:101ECC000133C3F30B037BB143F40043C9E719257A
:101EDC006B43B0FBF3F30133C3F30B0323B143F4B4
:101EEC004043BEE70423BCE70123BAE7A086010008
:101EFC007F841E00FF083D0040420F002DE9F04397
:101F0C00044685B098460D4691460C9FFFF702FD9E
:101F1C0094F83D300646202B04D00225284605B007
:101F2C00BDE8F08300901923012220465B49FFF79E
:101F3C0084FE0028F1D194F83C30012BEDD0012324
:101F4C00216884F83C300B68DA075EBF0B6843F0FD
:101F5C0001030B600B6823F400630B60212384F8EE
:101F6C003D30102384F83E3000232364A4F82A80EB
:101F7C00638DC4F824902385494BE362E36A082BF4
:101F8C0004D0012B02D013F5803F04D10B6843F42D
:101F9C0080730B6002E0236B122BF7D000223B46C0
:101FAC004FF0011120460096FFF747FE226838B12A
:101FBC001368DB0544BF4FF4007323640125ADE7C0
:101FCC002369B3F5804F21D105F0FE051561334629
:101FDC003A4620463349FFF762FE05460028EDD10C
:101FEC00236803905A6903929B690393039B238D87
:101FFC00F3B921680A6842F400720A60202284F85E
:10200C003C3084F83D2084F83E3087E7EB1103F038
:10201C00060343F0F0031361204633463A46224947
:10202C00FFF73DFE0028C9D12368EDB21D61CEE754
:10203C00324639462046FFF793FE40B1236C042B01
:10204C00BCD12268136843F400731360B6E7636A6B
:10205C0020681A4612F8011B01616262628D013A16
:10206C0092B26285228DD0F814C0511E89B21CF038
:10207C00040F21850AD049B159780233016163629A
:10208C00638D023A013B9BB2638522853246394609
:10209C002046FFF73FFE0028A9D0CFE70200100032
:1020AC000000FFFF02000100080001002DE9F04FC5
:1020BC00044685B01E460F469146FFF72BFC94F85C
:1020CC003D300546202B03D0022005B0BDE8F08F33
:1020DC0000901923012220464C49FFF7AEFD002841
:1020EC00F2D194F83C30012BEED0012384F83C3033
:1020FC0023684FF0010A1A68DFF810B1D20758BFF5
:10210C001A6807F0FE075CBF42F001021A601A68F9
:10211C0022F400621A60242384F83D3000232364E7
:10212C00A3F58033E36222684FF001111368204657
:10213C0043F480731360334600220095FFF77DFD56
:10214C00236838B11B68DB0502D54FF40073236498
:10215C000320BAE71F61FFF7DDFB4FF0A00805462F
:10216C0023685A695B69C2F34002C3F3802394F875
:10217C003D10A02901D013431DD04FF02008236837
:10218C0084F83D805A6912F0020F1A6842F400720A
:10219C001A6025D0002203925A69204603929B694B
:1021AC0001220393039B194919230095FFF745FD61
:1021BC0088B1012089E7FFF7ADFB401BB04200D886
:1021CC000EB984F83D8023685A695B69C2F34002FA
:1021DC00C3F38023CBE784F83D8084F83C0074E79C
:1021EC006FF4806259465A612046192301220095EA
:1021FC00FFF723FD0028DCD10AF1010ACA4592D36E
:10220C0084F83D8084F83C00D3E700BF0200100046
:10221C002DE9F341054638B30368DB0710D42B686E
:10222C009F075ED42B68190700F195802B685A071D
:10223C0000F1C180E869002840F02C81002029E0E1
:10224C00904C636803F00C03042B07D0636803F015
:10225C000C03082B0AD16368DE0307D523689C03A3
:10226C00DDD56B68002BDAD1012013E06B68B3F578
:10227C00803F12D1236843F480332360FFF74AFB7D
:10228C00064623689803CAD4FFF744FB801B6428D6
:10229C00F7D9032002B0BDE8F0819BB9236823F481
:1022AC0080332360236823F480232360FFF732FB01
:1022BC00064623689903B2D5FFF72CFB801B6428D4
:1022CC00F7D9E6E7B3F5A02F236803D143F48023B5
:1022DC002360CFE723F480332360236823F4802327
:1022EC00CBE7684C636813F00C0F07D0636803F0FE
:1022FC000C03082B10D16368DA030DD423689B07F9
:10230C0002D52B69012BAFD123686A6923F0F8033E
:10231C0043EAC203236085E72A695B4B6AB1012259
:10232C001A60FFF7F7FA064623689F07ECD4FFF70D
:10233C00F1FA801B0228F7D9ABE71A60FFF7EAFA2B
:10234C000646236898077FF56DAFFFF7E3FA801B0D
:10235C000228F6D99DE7AA694A4E4B4BE2B10122FD
:10236C00C3F88024FFF7D6FA0446736A9B070DD591
:10237C004FF4FA52454B1B68B3FBF2F3019300BFC9
:10238C00019B5A1E0192002BF9D14FE7FFF7C2FABD
:10239C00001B0228E9D97CE7C3F88024FFF7BAFABE
:1023AC000446736A9F077FF541AFFFF7B3FA001B32
:1023BC000228F6D96DE7334CE369D80024D4012701
:1023CC00E36943F08053E361E36903F080530093C6
:1023DC00009B2F4E3368D90518D5EB68012B26D1FD
:1023EC00236A43F001032362FFF794FA41F2883821
:1023FC000646236A9B073FD5002F3FF41BAFE369CA
:10240C0023F08053E36115E70027E2E7336843F4D8
:10241C0080733360FFF77EFA80463368DA05DCD4CC
:10242C00FFF778FAA0EB08006428F6D931E7ABB9CE
:10243C00236A41F2883823F001032362236A23F0D4
:10244C0004032362FFF766FA0646236A9807D3D57E
:10245C00FFF760FA801B4045F7D91AE7052B236A72
:10246C0003D143F004032362BAE723F00103236290
:10247C00236A23F00403B6E7FFF74CFA801B4045B0
:10248C00B7D906E7001002400000424208000020C5
:10249C00007000402A4C636803F00C03082B3ED0FC
:1024AC000022284B02281A662CD1FFF733FA064675
:1024BC002368990120D42B6AB3F5803F05D162685B
:1024CC00A96822F400320A436260696A62680B43AD
:1024DC0022F474121343012263601A4B1A66FFF73D
:1024EC0019FA054623689A013FF5A8AEFFF712FAD0
:1024FC00401B0228F6D9CCE6FFF70CFA801B022809
:10250C00D6D9C6E6FFF706FA054623689B017FF588
:10251C0095AEFFF7FFF9401B0228F6D9B9E6012862
:10252C003FF4B8AE63682A6A03F4803191427FF4B9
:10253C009BAE6A6A03F4701393423FF47FAE93E64A
:10254C00001002400000424230B5184B87B002AC7C
:10255C0003F11005224618685968083303C2AB42D0
:10256C001446F7D140F201231149ADF804304B6801
:10257C0003F00C02082A17D1C3F3834218326A44C1
:10258C00DB0312F8100C0CD54B680A4AC3F340431A
:10259C00504318336B4413F8143CB0FBF3F007B002
:1025AC0030BD054B5843FAE70248F8E726320008DD
:1025BC000010024000127A0000093D002DE9F041A4
:1025CC000D46044610B90120BDE8F081444A136859
:1025DC0003F007038B4228D321688E0730D4CA0737
:1025EC0043D43F4A136803F00703AB4265D8226813
:1025FC003C4D12F0040F6CD1130706D56B682269A1
:10260C0023F4605343EAC2036B60FFF79DFF6B68D2
:10261C00354AC3F30313D35CD840344B1860344BA6
:10262C001868FFF735F90020CEE7136823F007038D
:10263C000B431360136803F007038B42C3D1CBE742
:10264C00284B11F0040F1EBF5A6842F4E0625A6026
:10265C00080742BF5A6842F460525A605A68A06830
:10266C0022F0F00202435A60B9E762681D4E012A5B
:10267C0033681AD113F4003FA5D0736841F288383F
:10268C0023F0030313437360FFF744F907467368A1
:10269C00626803F00C03B3EB820FA2D0FFF73AF998
:1026AC00C01B4045F3D903208EE7022A02D113F058
:1026BC00007FE1E713F0020FDEE7136823F0070356
:1026CC002B431360136803F00703AB427FF47BAF1B
:1026DC008DE76B68E16823F4E0630B436B608BE779
:1026EC0000200240001002400E32000808000020BA
:1026FC0010000020044B054A5B68C3F30223D35C33
:10270C00034A1068D8407047001002401E3200087F
:10271C000800002090F83D30012B1CD102230F4AF9
:10272C0080F83D30036893420AD0B3F1804F07D054
:10273C00A2F59432934203D002F58062934204D105
:10274C009A6802F00702062A03D01A6842F00102C6
:10275C001A60002070470120704700BF002C014018
:10276C001A4A036890420AD0B0F1804F07D0A2F504
:10277C009432904203D002F58062904215D14A689F
:10278C0023F070031343114A90420AD0B0F1804FEA
:10279C0007D0A2F59432904203D002F580629042A9
:1027AC0003D1CA6823F4407313434A6923F08003AE
:1027BC00134303608B68C3620B688362034B9842BC
:1027CC0004BF0B690363012343617047002C014074
:1027DC0010B5044630B390F83D3003F0FF021BB93E
:1027EC0080F83C20FFF704F80223206884F83D3081
:1027FC00211DFFF7B5FF0123002084F8463084F833
:10280C003E3084F83F3084F8403084F8413084F80E
:10281C00423084F8433084F8443084F8453084F8EE
:10282C003D3010BD0120FCE710B584680A4324F448
:10283C007F4442EA03222243826010BD70B590F8B7
:10284C003C300446012B4FF0020027D0012384F8C2
:10285C003D00206884F83C30836823F47F4323F0E8
:10286C00770383600B68602B4DD032D8402B62D03D
:10287C0015D8202B03D009D833F0100208D1826868
:10288C0022F07002134343F0070320E0302BF6D004
:10289C000123002084F83D3084F83C0070BD502B9F
:1028AC00F6D14A68CE68016A056A21F00A0125F062
:1028BC000105056283690A4323F0F00343EA06131A
:1028CC0083610262836823F0700343F057038360D3
:1028DC00DEE7702B0CD0B3F5005FD9D1CB68D1E912
:1028EC000121FFF7A1FF2268936843F4804308E0BD
:1028FC00CB68D1E90121FFF797FF2268936843F079
:10290C0077039360C4E74D68CE68016A21F010012B
:10291C0001628269036A22F4704223F0A00343EA45
:10292C00051342EA063282610362836823F0700366
:10293C0043F06703CBE74A68CE68016A056A21F069
:10294C000A0125F00105056283690A4323F0F003AF
:10295C0043EA061383610262836823F0700343F039
:10296C004703B4E730B590F83C300246012B4FF0EA
:10297C00020022D0136882F83D005C680D6824F0D8
:10298C0070042C4398685C600C4CA3420AD0B3F1E1
:10299C00804F07D0A4F59434A34203D004F580648F
:1029AC00A34204D1496820F08000014399600123BF
:1029BC00002082F83D3082F83C0030BD002C0140F4
:1029CC0070B500260C4D0D4C641BA410A64209D109
:1029DC0000F022F800260A4D0A4C641BA410A642F3
:1029EC0005D170BD55F8043B98470136EEE755F814
:1029FC00043B98470136F2E73832000838320008B9
:102A0C00383200083C32000803460244934200D19D
:102A1C00704703F8011BF9E7F8B500BFF8BC08BC18
:102A2C009E467047F8B500BFF8BC08BC9E46704780
:102A3C004C65642D70696E2D3133203A206F6666BB
:102A4C00004C65642D70696E2D3133203A206F6E09
:102A5C0020004C65642D70696E2D3134203A206F46
:102A6C006666004C65642D70696E2D3134203A20F9
:102A7C006F6E20004C65642D70696E2D3135203AD7
:102A8C00206F6666004C65642D70696E2D313520A3
:102A9C003A206F6E200000000000000000000000D3
:102AAC0000000000000000000000001000100010EA
:102ABC0000100010001000000010000000000028A2
:102ACC0000280028000000000000000000000000AA
:102ADC00000000240024007C00240048007C0048F6
:102AEC00004800000000003800540050003800146A
:102AFC00005400540038001000000020005400580E
:102B0C0000300028005400140008000000000010E1
:102B1C000028002800100034004800480034000051
:102B2C000000001000100010000000000000000069
:102B3C000000000000000008001000200020002011
:102B4C0000200020002000100008002000100008C9
:102B5C000008000800080008000800100020001001
:102B6C0000380010002800000000000000000000E9
:102B7C0000000000000000100010007C001000108D
:102B8C000000000000000000000000000000000039
:102B9C0000000000001000100010000000000000F9
:102BAC0000000000003800000000000000000000E1
:102BBC0000000000000000000000000000100000F9
:102BCC000000000800080010001000100010002089
:102BDC000020000000000038004400440054004471
:102BEC000044004400380000000000100030005089
:102BFC000010001000100010001000000000003841
:102C0C00004400440004000800100020007C000078
:102C1C0000000038004400040018000400040044C4
:102C2C0000380000000000080018002800280048A8
:102C3C00007C0008000800000000007C0040004000
:102C4C000078000400040044003800000000003844
:102C5C000044004000780044004400440038000068
:102C6C000000007C00040008001000100020002070
:102C7C0000200000000000380044004400380044EC
:102C8C0000440044003800000000003800440044B8
:102C9C000044003C00040044003800000000000028
:102CAC0000000010000000000000000000100000F8
:102CBC0000000000000000000010000000000000F8
:102CCC0000100010001000000000000C003000404C
:102CDC000030000C000000000000000000000000AC
:102CEC00007C0000007C00000000000000000000E0
:102CFC0000000060001800040018006000000000D4
:102D0C00000000380044000400080010001000000F
:102D1C0000100000000000380044004C0054005C1F
:102D2C00004000400038000000000010002800287F
:102D3C0000280028007C00440044000000000078BB
:102D4C000044004400780044004400440078000033
:102D5C0000000038004400400040004000400044A7
:102D6C00003800000000007000480044004400449B
:102D7C0000440048007000000000007C004000404F
:102D8C00007C004000400040007C00000000007C03
:102D9C00004000400078004000400040004000002F
:102DAC0000000038004400400040005C0044004437
:102DBC00003800000000004400440044007C004443
:102DCC0000440044004400000000003800100010D3
:102DDC00001000100010001000380000000000046B
:102DEC000004000400040004000400440038000047
:102DFC0000000044004800500060005000480048AB
:102E0C000044000000000040004000400040004032
:102E1C0000400040007C000000000044006C006C8E
:102E2C0000540044004400440044000000000044EE
:102E3C000064006400540054004C004C004400003A
:102E4C0000000038004400440044004400440044A6
:102E5C000038000000000078004400440044007872
:102E6C0000400040004000000000003800440044D6
:102E7C000044004400440054003800040000007872
:102E8C00004400440044007800480048004400001E
:102E9C0000000038004400400030000800040044EA
:102EAC00003800000000007C001000100010001022
:102EBC00001000100010000000000044004400440A
:102ECC00004400440044004400380000000000446A
:102EDC0000440044002800280028001000100000C6
:102EEC00000000440044005400540054006C0028BE
:102EFC0000280000000000440028002800100010EA
:102F0C000028002800440000000000440044002871
:102F1C000028001000100010001000000000007CC1
:102F2C00000400080010001000200040007C00008D
:102F3C00000000180010001000100010001000100D
:102F4C0000100010001800200020001000100010CD
:102F5C0000100008000800000000003000100010F5
:102F6C0000100010001000100010001000300010B5
:102F7C0000280028004400000000000000000000B1
:102F8C000000000000000000000000000000000035
:102F9C000000000000FE00200010000000000000F7
:102FAC0000000000000000000000000000000038DD
:102FBC000044003C0044004C003400000000004081
:102FCC0000400058006400440044006400580000B5
:102FDC0000000000000000380044004000400044A5
:102FEC00003800000000000400040034004C0044D1
:102FFC000044004C003400000000000000000038C9
:10300C000044007C00400044003800000000000C2C
:10301C000010007C001000100010001000100000C8
:10302C000000000000000034004C00440044004C40
:10303C000034000400780040004000580064004454
:10304C000044004400440000000000100000007028
:10305C000010001000100010001000000000001004
:10306C000000007000100010001000100010001084
:10307C0000E0004000400048005000600050004854
:10308C000044000000000070001000100010001040
:10309C00001000100010000000000000000000787C
:1030AC000054005400540054005400000000000070
:1030BC000000005800640044004400440044000038
:1030CC0000000000000000380044004400440044AC
:1030DC0000380000000000000000005800640044AC
:1030EC000044006400580040004000000000003420
:1030FC00004C00440044004C003400040004000068
:10310C0000000058006400400040004000400000F7
:10311C0000000000000000380044003000080044AB
:10312C000038000000000020002000780020002063
:10313C0000200020001800000000000000000044E7
:10314C00004400440044004C003400000000000027
:10315C000000004400440028002800280010000053
:10316C00000000000000005400540054006C0028C3
:10317C00002800000000000000000044002800109F
:10318C000010002800440000000000000000004473
:10319C0000440028002800100010001000600000FF
:1031AC000000007C0008001000200040007C0000A3
:1031BC00000000180010001000100020002000106B
:1031CC00001000100018001000100010001000106B
:1031DC000010001000100010001000300010001043
:1031EC000010000800080010001000100030000053
:1031FC00000000000074004C000000000000000003
:10320C00000000000000000000000102030406079B
:10321C00080900000000010203040203040506076C
:0C322C0008090A0B0C0D0E0F101000001A
:043238003101000858
:04323C000D01000878
:10324000070A0000A22A00080024F4000100000080
:04325000100000006A
:040000050800185186
:00000001FF
